S01E000052414D436F646553706563696669635F52656C656173652E6D6F74C2
S11300009105CD05E90503062F06370639060000DC
S1130010644801210166FF210160704781B0624A92
S1130020582359435118614A904205D9CB691A4360
S1130030CA615F49401807E0CA690005000D120B48
S113004012030243CA61002001B07047F3B483680D
S113005055496A4612795824624389180022534C40
S1130060A34206D9CD692C43CC61514C1B19009392
S113007007E0CC691B051B0D240B24031C43CC6136
S11300800092C3681E0B77077F0F08D0022F01D0A0
S113009002D306E0022403E00024022501E0002448
S11300A000253605C027BF033740BC469E09B70369
S11300B0E02676023E4067463E43B4465E0AF702B7
S11300C0E026B6013E4067463E432406E70BC024C3
S11300D0E4003C4034432D066E0CC0256D003540D1
S11300E025431E01702434402C43DB085B000E259D
S11300F01D4025438D610A64C268D30CDB02F024E1
S1130100E4011C40D20BD201F023DB001340234353
S113011002221A434A6402680A6040688860012027
S11301206946097988408106890E0002FC22920101
S113013002400A431F4802600098F6BC7047F0B5BD
S113014083B006000C0001210820C046C0461A4FA7
S113015001253868E0402840FBD002960120A040E9
S11301600090B86700210820C046C0460098800669
S1130170800E00990902FC2292010A400243019276
S11301800C4E02980AE02100FFF748FF0199316004
S11301903968E1402940FBD00099B9670028F2D1C1
S11301A003B0F0BD3803122000001220FF0F00003E
S11301B001F0FFFFA0031220C002122080B5052029
S11301C06946487001236A46012100A8401C00F0DA
S11301D03FF968460078C007F4D46846007802BD49
S11301E010B584B06CA402A806CC06C0083C00205C
S11301F002A9487088700C20C870042301AA052144
S113020002A800F025F90198001D01A90CCC0CC12D
S113021001A9020C4A70020A8A70C87004236A4653
S1130220052101A800F014F9009804B010BD80B5B0
S1130230AB20694608700121684600F0C1F801BD91
S1130240FEB504000E0C89B20191012E16DB1500D7
S113025080277F0252A0694602680A606846210C22
S11302604170210A8170C4703B002A00042100F00F
S1130270EFF8E419ED19761EECD12A000198002854
S11302800CD0684647A10B680360210C4170210A19
S11302908170C470019B042100F0DAF8002003B0DF
S11302A0F0BD000038B504000D0006206946087052
S11302B00121684600F084F8032D684605D100BF8B
S11302C034A10A780270012109E000BF36A10A684E
S11302D00260210C4170210A8170C470042100F075
S11302E06FF8FFF76BFF002032BDFEB505000C0070
S11302F01600280A0002A84219D08021490040189B
S1130300401B2700844200D9070006206946087074
S11303100121684600F054F83B0032002900022015
S113032000F05EF8FFF74AFFF619ED19E41B20020E
S1130330000CE1B20191012817DB3400060080278C
S11303407F000620694608700121684600F038F8ED
S11303503B0022002900022000F042F8FFF72EFFA4
S1130360ED19E419761EECD12600019800280ED070
S11303700620694608700121684600F021F8019BB7
S113038032002900022000F02BF8FFF717FF0020AD
S113039003B0F0BD600000005A000000000000003F
S11303A00300000003000000200000003E4A002378
S11303B01360D0603D4801603D49416093607047DF
S11303C0F8B584B006000F003A4C3B4820603C204E
S11303D020650025E5640220E0640120A06017E0A8
S11303E0F8B584B016001F00324C334A22603C2218
S11303F022650025E5640222E2640122A2602066EF
S11304000802000E20660804000E2066C8B22066AA
S1130410684600BF2AA1102200F062F8009620006E
S113042060300190029700216846FFF70FFE01211A
S113043021610021FFF783FE0120A16A8908084099
S1130440FAD0A06AC007FCD4A560256105B0F0BD50
S1130450F0B585B01F00174C184B23607B1E6360FA
S1130460072363650026E6640125E564A5600B00A7
S113047004D003782366401C491EFAD1009201A8D7
S113048013A1102200F02CF8009802900397002189
S113049001A8FFF7DBFD25610021FFF750FEA660F0
S11304A0266105B0F0BD000008003020F0003020C7
S11304B0184200000000302000010700000307007C
S11304C00000000000000000000000004092000056
S11304D060003020000000000000000080A4000044
S11304E070B4103A03D378C9103A78C0FBD25307DA
S11304F001D318C918C001D508C908C0D20704D34C
S11305000B880380891C801C002A01D50B7803709A
S113051070BC704780B572B619481A4901604160D1
S1130520194A1160516000BF00BF00BF00BF00BF87
S113053000BF16490A6807239A43012313430B603B
S11305404A6F80235B0213434B67C02292050A66FD
S1130550CA6502690F239A430323134303610022EC
S1130560D2434A65090C816049088160FFF750FD58
S113057001210220FFF71AFFFFF759FE01BD000019
S1130580102013205555555510901420001020208C
S113059010B55468FFF7BEFFFFF722FE401C002190
S11305A021800822A270E170012222716271A2717D
S11305B0E17121726172A27222616161C10BA16158
S11305C09421490308601003E06110BD10B50C00CC
S11305D010004268416900694002400AFFF730FE9A
S11305E000202060606010BD10B50C00100042684F
S11305F0416900694002400AFFF777FE002020604D
S113060010BD38B51469556900200860002D09D063
S113061000212000FFF746FE8020400124186D1EB3
S1130620F6D131BD03212000FFF73CFE31BD80B57A
S10D0630FFF770FF01BD704770472B
S9030000FC
