:02000004A0005A
:200000004258323400E01200380500000DE012000000100000E00F0000000200F8B500F014
:2000200095F80121022000F07DF901242403354A6021204600F018F9334EB169314A08199F
:200040006032602100F010F900F046F9040001D100F054FA2B48844201D1002500E0B56923
:20006000A16DE06D401A21212818C9014718206D0007810F02290ED0012916D0800F1ED066
:2000800000F03CFA2148006BC006C00E142820D3FF218E311FE00F2000F024FA012212054E
:2000A0003846A16D00F0D8F8ECE7032000F01AFA012212053846A16D00F0C6F8E2E703209A
:2000C00000F010FA012212053846A16D00F0CCF8D8E7FF21B231204600F0D8F9002801D1C9
:2000E00000F00CFA01200005006880F30888216D074809078A0F71690468064B2846A04707
:20010000F8BD000028E51200F0DF120080102020040010009933000010B50B4A5824614340
:20012000084B8918CA69984204D91A43CA615942401810BD0005000D120B12031043C861D9
:20014000002010BDFF0F0000000012200349012088610249FF2080398863704780031220A2
:20016000F8B504460F468068FFF7D6FF0246E0684104490F08D0012903D0022906D1022654
:2001800003E00026022501E0002600258104C305890F5B0F09059B03194303055B0FDB025D
:2001A0001943B3075B0D1943AB07DB0D194343075B0E80061943400F4000014358200F4B35
:2001C0007843C018816100210164E1684B0249031B0F090FDB02C9010B439B1C4364216824
:2001E0000160616881600120B8408106890E8006800C0143024801621046F8BD000012207D
:2002000080031220F3B581B002990E4E01248C4031682142FCD00B4F4037BC63A506AD0E4A
:20022000A106890C0D4309E00299FFF775FF0549C0310D6231682142FCD0BC630028F3D1C3
:20024000FEBD0000C00212200B4610B501463B2000F05CF8002010BD0B4610B501466B201E
:2002600000F0D4F8002010BDFEB50446080C029088B20025012716463F04019012E015A0D4
:2002800000680090200C69464870200A8870CC703B4632460421684600F0C4F8E419F619F1
:2002A0006D1CADB202988542E9D3019800280ED008A000680090200C69464870200A887045
:2002C000CC70324604216846019B00F0ABF80020FEBD00000300000010B50B4C206D21467A
:2002E000C30708460A4680326030116B002B03D0C90700D0002010BDC90703D1616D526B1E
:200300009142F8D9004810BD28E512001CB50C46012100930191134601462246012000F082
:2003200011F81CBD054A0023936050610348C03001630349416313617047000000003020BB
:2003400018420000FFB585B00E980F99850784088807AD0F470A294E002C25D02848381800
:200360003060601E706025480721403041610021C1600121C160B16006990162079901625D
:200380002048016AC06A0390089800910190002102946846FFF7E4FE059931610021FFF787
:2003A00031FF0020B0603061002D24D0164838183060681E7060114900224031CA6001205F
:2003C000B06006980862079BA000C3180B62059B3361B36A5B07FCD5B36ADB07FCD1089B88
:2003E000C418002003E00B6A2354401CC0B2A842F9D3B260326109B0F0BD00000000302053
:2004000000031F00F8E41200000307001CB50C460221009301911346014622460120FFF738
:2004200091FF1CBDF0B59446164C85B0144A22605A1E6260134D072640356E610026EE60DE
:200440000126EE60A660002703E0C25D2A627F1CFFB28F42F9D30C480169C0690390604663
:2004600000910190002102936846FFF779FE26610021FFF7C7FE0020A060206105B0F0BD23
:200480000003070000003020F8E41200FEB50646806D0F4601010005090C000D01252D0552
:2004A0000024019100900DE00122120329460020B8476100715A81420FD1012000032D180B
:2004C000641CA4B201988442EED329460020009AB8476100715A814201D00020FEBD012042
:2004E000FEBD000004490A6A000712091201000F02430A6270470000002013200149022015
:200500000860704740102020000000000000000000000000409200006000302000000000AA
:200520000000000080A40000EC003020000000000000000082A400009842FFFFFFFFFFFF61
:20054000FFFFFFFFFFFFFFFFFFFFFFFFFFFFFFFFFFFFFFFFFFFFFFFFFFFFFFFFFFFFFFFFBB
:20056000FFFFFFFFFFFFFFFFFFFFFFFFFFFFFFFFFFFFFFFFFFFFFFFFFFFFFFFFFFFFFFFF9B
:20058000FFFFFFFFFFFFFFFFFFFFFFFFFFFFFFFFFFFFFFFFFFFFFFFFFFFFFFFFFFFFFFFF7B
:2005A000FFFFFFFFFFFFFFFFFFFFFFFFFFFFFFFFFFFFFFFFFFFFFFFFFFFFFFFFFFFFFFFF5B
:20100000958B7F23C5A4F678CBC693199DC7ED15DF06F78DCF230000000000000000000039
:201020000000000000000000000000000000000000000000000000000000000000000000B0
:20104000000000000000000000000000000000000A0000007B00000020A1000024A1000085
:20106000000000000000000000000000000000000000000000000000000000000000000070
:201080007047000090ED10008D011000E5011000C5021000000000000000000000000000A1
:2010A00000000000000000000000000000000000E501100000000000000000004B011000DE
:2010C000E5011000E5011000650410006D041000F9041000A5041000950410008504100022
:2010E000E5011000A5071000B5071000C50710003508100045081000E5011000E501100000
:20110000E9041000E50110007D071000E50110004600000065511000014610009944100002
:20112000794410009D47100089551000CD521000595310000552100021551000555510006E
:20114000A52E1000F12D1000D92D1000457510007175100001731000E57210001D7310001D
:20116000D89D1200D8991000E6991000294010005904100000000000AD3210000000000003
:20118000000000000348854600F05CF8004800472D41100090ED1000084B196808682030C7
:2011A00080F30988022080F31488BFF36F8F3FBCAE4608BC04BC62B618470000649F10004D
:2011C000EFF3108072B6704780F310887047EFF309800E4B1A6820381060F0C044464D4621
:2011E00056465F46F0C008B572B608F0AFFB62B60CBC116808681030F0C8A046A946B246E9
:20120000BB4680F309882038F0C81847649F1000014CA047014C2047D50710000101100061
:201220002046714603F078FD0146A07D08470321001D401E037812021A43491EF9D5104660
:2012400070470000064C0125064E05E0E36807CC2B430C3C98471034B442F7D3FFF796FFE4
:20126000089F1000289F1000FEE70000401E0028FCD17047FEB53C48066845688468C1688A
:2012800002910169019141690091876937A1012006F0D4FF43A1012006F0D0FF44A1012002
:2012A000029A06F0CBFF46A10120019A06F0C6FF47A10120009A06F0C1FF3A4648A1012091
:2012C00006F0BCFF22464AA1012006F0B7FF32464BA1012006F0B2FF2A464DA1012006F09C
:2012E000ADFFE41C2DD034464DA1012006F0A6FF50A10120226806F0A1FF52A10120626811
:2013000006F09CFF53A10120A26806F097FF55A10120E26806F092FF56A10120226906F010
:201320008DFF58A10120626906F088FF59A10120A26906F083FF5BA10120E26906F07EFF46
:20134000FEBD2C465BA1D0E710B5EFF308814A680548083100F0B8F8FFF78CFF002041784B
:201360000029FCD110BD0000E8D7100021212121212121212121486172644661756C7420F6
:2013800048616E646C657220697320747269676765726564212121212121212121210D0A55
:2013A0000000000050726F6C6F673A0D0A00000052342020203D203078253038780D0A0062
:2013C00052352020203D203078253038780D0A0052362020203D203078253038780D0A00FC
:2013E00052372020203D203078253038780D0A006C722020203D203078253038780D0A0084
:201400006D737020203D203078253038780D0A0070737020203D203078253038780D0A0067
:201420004D535020537461636B20496E666F3A0D0A00000052302020203D20307825303835
:20144000780D0A0052312020203D203078253038780D0A0052322020203D20307825303883
:20146000780D0A0052332020203D203078253038780D0A0052313220203D20307825303850
:20148000780D0A004C522020203D203078253038780D0A0050432020203D20307825303819
:2014A000780D0A0078505352203D203078253038780D0A0050535020537461636B20496E0F
:2014C000666F3A0D0A0000000160EFF3098343608260C460056146618761704700B5734654
:2014E00006F0C4FE00BD000010B501F0B7FA10BD10B51AF7D5FD03490420086003F0A0FF31
:2015000010BD000080E200E010B50248006800F017FC10BD84A0100010B50248006800F0DA
:20152000D1FD10BDB0A01000F8B50D4EB06A00248506AD0E01273846A040284204D0F0620E
:201540000848A10040588047641CE4B2052CF2D3A80604D52020F062034800688047F8BDE7
:201560000010202004DD1000CCA0100010B50248006800F01DFD10BDC8A0100010B508F02B
:201580009BF810BD10B503480078002801D100F0A3F910BD18DD1000F8B50446164800783E
:2015A000002801D100F098F9FF20002569460870102C1DD21148104E005D48701836307D53
:2015C0000E4F8007800F7F1E02280BD0304600F0B9F902280CD33C7002226946304600F0F0
:2015E000DCFA07E03C700222304600F0A6FA01E00025ED432846F8BD18DD10001EA010002C
:2016000070B5074B0646187814460D46002801D100F062F922462946304600F003F870BD20
:2016200018DD100070B50E4618214843134914464518E86A1835002804D001280FD0022888
:2016400005D113E0284600F07DF9A04201D2002411E022463146284600F09FFA0BE02846F4
:2016600000F070F9A042F4D20446F2E73146284600F063FA0446204670BD000018DD100032
:20168000F7B598B007A802904020039000200C460490189915460826069105902178641C9D
:2016A000002970D0252907D002A800F027FA05980028F3DA1BB0F0BD012200201346022712
:2016C000217823291BD02B2916D02D2902D0302906D101E0184300E03843641C002AEFD1A7
:2016E000002122781346303B0A2B0AD20A23594389183039641CF4E704210843EDE7304375
:20170000EBE70023D7B22E2F0AD1641C22781746303F0A2F04D20A277B439B18303BF4E736
:201720006C2A0DD0682A0BD0702A48D00BDC252A4FD0582A28D0632A0CD0642A4DD10EE045
:201740002278641CECE7732A2AD0752A13D0782A43D119E02868011D296001783AE02A6878
:20176000171D2F601768009101900A22394602A800F0F3F831E02A68171D2F6017680A22C4
:201780000091019007E02AE02A68171D2F601768102200910190394602A800F043F91CE0BD
:2017A0002868011D2960076839787F1C002914D002A800F0A3F905980028F5DA0DE02868E3
:2017C0000823011D296001680020102200960190E2E7252102A800F091F9641C67E700282C
:2017E00000DC67E70498002804D0024607A91898FFF706FF04990598401805905AE700001C
:2018000010B5074900204860064900238A69C8698B61CB611946904703F012FE10BD000037
:201820004020132020A1100010B50248006800F0E5FE10BDC0A0100010B50248406800F016
:20184000DDFE10BDC0A0100010B50248006800F0D5FE10BDBCA0100070B5114D114CAB4230
:2018600005D00020206060600220A06006E007C4012113208903000401F789F9BFF35F8F61
:201880000120094900058860BFF34F8F25200749C00301F77CF90649064801F778F970BD60
:2018A000993300000CF5120000ED00E0C61D0000340A0000CCF5120010B50248006800F021
:2018C00099FF10BDB4A0100010B50248406800F091FF10BDB4A0100010B5114C0220206112
:2018E000606110A0A0611248E061012080020021A162206261620BA0E162A0640D48E06444
:20190000A165102061652065E1650BA1E01D01F756F90AA1204601F752F92020A07110BD9E
:2019200018DD10005465726D696E616C0000000004D8100004DC100052545400534547476A
:20194000455200000269C1688A4203D88068401A801800E0501A401E7047FFB583B00E4641
:2019600070420D9F0C9C0090002900DB0846012502E001F79DF86D1C05998842F9DA069888
:20198000A84200D90546002C04D0002E01DB780700D5641EB80702D50698002810D0F8071E
:2019A0000ED1002C0CD0A5420AD22021641E039800F0A4F80398C0680028F2DA07B0F0BD78
:2019C0000398C0680028F9DB002E02DA2D21009E02E0780707D52B21039800F08FF803981C
:2019E000C0680028EADBB807800F022810D1069800280DD1002C0BD0A54209D23021641E39
:201A0000039800F07BF80398C0680028F2DAD5E7019700943146069B059A039800F002F8ED
:201A2000CCE70000FFB581B001261F4635460A9C029802E001F726F86D1C03998842F9D215
:201A4000AF4200D93D460B98C00718D1002C16D00B98800701D5002F02D0202000900CE017
:201A60003020FBE7641E0099019800F047F80198C06800283DDB002C01D0A542F2D301980E
:201A8000C068002835DB012F01D97F1E06E03146029800F7F7FF0399884202D303984643FC
:201AA000F1E7154F3146029800F7ECFF0146029A7143511A0291395C019800F01FF8019894
:201AC000C068002805DB3046039900F7DBFF0600E8D10B98C0070CD0002C0AD0A54208D227
:201AE0002021641E019800F009F80198C0680028F2DA05B0F0BD0000EB99100010B50446DF
:201B000080686368421C934205D323681954A260E068401CE060A2686068824209D1216830
:201B20002069FFF76DFDA168884203D00020C043E06010BD0020A06010BDF7B5054682B0D0
:201B400000200090EC6817462869A04201D9061B02E0A968201A0E1AA868761E001BB042B0
:201B600000D80646BE4200D33E46686832460019039900F7F3FF0098BF1B801900900398CE
:201B8000A41980190390A868A04200D10024EC60002FD9D1009805B0F0BDF7B50446C76831
:201BA0008068E168C51B606816464018B54205D9019900F7D3FFB819E060FEBD2A4601998A
:201BC00000F7CCFF0198761B41193246606800F7C5FFE660FEBD000008B572B613460A4635
:201BE000009002A1012006F029FBFEE7417373657274696F6E204661696C65643A2066694C
:201C00006C652025732C206C696E652025642C2025730A0002E008C8121F08C1002AFAD10F
:201C200070477047002001E001C1121F002AFBD170470FB470B5044606AE00250EE0327AF0
:201C400030787168531C23706070A01C0C3600F785FF2078641C04196D1CEDB26846007D30
:201C60008542ECD3204670BC08BC04B01847000070B50646104615460C46083005F036FCA2
:201C800000280BD00680448010218180C58008300446294600F77BFF204670BD122202A1B4
:201CA00009A0FFF799FF00002E2E5C6672656572746F735C6170705C6F736170705F74617B
:201CC000736B2E63000000006D736720213D204E554C4C0070B5154D044669688847EA68B2
:201CE0000021204690472A680221204690472A680021204690470720E1680122C001081830
:201D00008261207A8240521E9006800E02021043032212028918086308616A690021204691
:201D20009047EA6801212046904770BD6CA0100010B50248FFF7CEFF10BD0000E4A010009F
:201D4000F8B50646C068032109024718B968002916D0CD220FA119A0FFF73EFF00240BE00A
:201D6000A96E0120A040014204D0B8632146304602F038F8641CE4B2307AA04203D9EFE7C6
:201D80000521C9014518A86E0028E7D1304601F0DBFFF8BD2E2E5C706C665C706572697094
:201DA000686572616C5C6170705F646D61635C6170705F646D61632E630000007265672DF9
:201DC0003E7374617475735F6572725F6C203D3D20300000F8B50C46054601F003FF06463B
:201DE0000C2358436A682168031DD15001466B68626808315A506A68216911502D4F00215C
:201E0000FA68284690477A690221284690473146284601F0C5FE60694104490F0DD00129CA
:201E200008D0022904D0682223A12DA0FFF7D4FE022203E00022022101E000220021EB6825
:201E40008504C705AD0F7F0F2D05BF033D4307057F0FFF023D4352021543C9010D43410746
:201E6000490E0D438106490F49000D430002C00F582105437143C8188561002202646269E4
:201E8000550252032D0F120FED02D2011543AD1C4564A2685A50E16881600120B040810637
:201EA0008006890E800C01430720C001181801623046F8BD6CA010002E2E5C706C665C70AD
:201EC00065726970686572616C5C6170705F646D61635C6170705F646D61632E6300000093
:201EE0003000000010B501460148FFF773FF10BDE4A01000F3B50646C0680521C90183B055
:201F00004518049901248C40296C2142FCD003210902411802918C63A706A106BF0E890C52
:201F20000F430721C9014018019004980C214843009008E001F034FE01980762286C20428D
:201F4000FCD002988463716800980858049900283046EFD101F080FE304601F0F5FE05B0EA
:201F6000F0BD000010B501460148FFF7C3FF10BDE4A0100070B50D4E0546F2680021904729
:201F8000326802212846904732680021284690476C6804E02146284602F03AFE2468002CD0
:201FA000F8D1726900212846904770BD449A100070B5054644680EE0E968086C227AD04081
:201FC000C00707D0CB6C0120904083431843C864606880472468002CEED170BDC0684068EB
:201FE0007047C06841607047C06800687047C0680160704770B50E460446EFF3108572B6C1
:20200000406800F072FF002804D073220CA116A0FFF7E2FD3146606800F040FF207A0028BE
:2020200003D00020002D03D003E001202072F9E762B6002802D0204602F0F0FE70BD0000B2
:202040002E2E5C706C665C7065726970686572616C5C6170705F68776563635C6170705FFC
:2020600068776563632E63003000000010B501460148FFF7BFFF10BDF8A0100070B50C4C9A
:20208000054661688847E26800212846904722680221284690472268002128469047E8687B
:2020A0000021416001210161E2682846904770BD98A0100010B50248FFF7E0FF10BD000025
:2020C000F8A01000F8B50446E1680120C8610021606800F012FF0546876946690721E0688A
:2020E000C90141182022E86800F738FD1D21E068490141182022286900F730FD0F48012166
:20210000C26820469047EFF3108572B6606800F0B3FE606800F0E2FE002802D0002020720C
:2021200000E00120002D00D162B6002802D0204602F074FE3846B047F8BD000098A0100052
:20214000F8B50F4609491646CA681D46046900219047A8070649400A40182060B008401E9F
:20216000606027610120A060F8BD0000FC99100000021F0010B50B46024601210148FFF7BC
:20218000DFFF10BD08A1100001698A6AD207FCD18A600A610149CA6801211047FC991000E8
:2021A00010B50248FFF7F0FF10BD000008A11000006960307047000010B50248FFF7F8FFF9
:2021C00010BD000008A11000FFB581B01E46054605F06BFA0090144F2C69FA680021284612
:2021E00090477A690221284690472046009905F08BFA039820663002000E20663004000E1B
:202200002066F0B2206620460B9B0A9A029905F089FA7A69032128469047FA68012128460F
:20222000904705B0F0BD0000FC991000FFB583B01D4614460E4602F00BF807463346019577
:20224000009401210448039AFFF7BEFF384602F007F807B0F0BD000008A11000F8B5244F80
:20226000044679688847FA680021204690473B69E179002220469847607B002809D03B69BF
:20228000E17A0422204698473B69A17A0322204698473B69217A0122204698473B69617A29
:2022A000022220469847002505266019017B3B693246204698476D1C761CEDB2F6B2002D80
:2022C000F3D02169002088602169A08848612069A1798030016720690649803041677A6980
:2022E000002120469047FA68012120469047F8BDFC9910001842000010B50B4902228A80C4
:2023000001228A714873182008731920C8711A2008721B2048721C2088721D20C87208461B
:20232000FFF79CFF10BD000008A11000FFB587B006900469119901208004814204D39B22F2
:2023400039A144A0FFF748FC474F8D088E07B60FFA680021069890477A690221069890478D
:2023600012988007470A002D2ED0404838182060681E6060072060650020E0640120E0645D
:20238000A060099820660A98206618223849684600F7E4FB2046EC300290109803900F222F
:2023A00005980121D203C9039043084311018843059004956846FFF795FD08992161FFF745
:2023C000D1FD0020A0602061002E22D0294838182060701E60600023E3640120A0600998B3
:2023E00020660A98A9000818206608982061A06A4007FCD5A06AC007FCD11098091800209C
:2024000003E0226E0A54401CC0B2B042F9D3A3602361154C0321626906989047E2680121A7
:20242000069890470BB0F0BD2E2E5C706C665C7065726970686572616C5C7373695C617065
:20244000705F717370695C6170705F717370692E630000006C656E677468203C20307834CC
:202460003030303000000000FC99100000021F00BC9A100000020700FFB583B01D461646C1
:202480000C9F01F0E5FE0446002F01D0022100E0012102910096019501210548049B039AE4
:2024A000FFF744FF204601F0DBFE07B0F0BD000008A11000FFB505460469254887B0C2685C
:2024C0001F46119E002128469047214802214269284690471F482060701E606007206065E5
:2024E0000020E0640120E064A060002004E00999095C2166401CC0B2B842F8D31822164955
:20250000684600F72BFB204660300290109803900F2205980121D203C9039043084311016C
:2025200088430496059000266846FFF7DBFC08992161FFF717FDA6602661054C0321626906
:2025400028469047E2680121284690470BB0F0BDFC99100000030700A49A1000FFB583B039
:202560001D4614460E4601F073FE074633460195009401210448039AFFF79CFF384601F0ED
:202580006FFE07B0F0BD000008A11000FFB581B0044605F08AF80F4D0746EA682669002160
:2025A000204690476A690221204690473946304605F0AAF8304602AE0ECE05F0B3F86A69AA
:2025C000032120469047EA6801212046904705B0F0BD0000FC99100070B50C46054601F02F
:2025E00037FE064623462A4601210348FFF7CEFF304601F035FE70BD08A1100070B5064660
:2026000005462036A86A006B0406240E2ED0A00606D5327B1AA1022005F010FEA86A406C96
:20262000E00602D5284606F0D9F9200706D5327B1BA1022005F002FEA86AC06B600706D5A6
:20264000327B1FA1022005F0F9FDA86A006CA00706D5327B22A1022005F0F0FDA86A806B8F
:20266000E007CFD0284606F049FACBE7A86A8068002804D122480121C2682846904770BD5C
:2026800073706925642C6D756C74695F6D617374657220636F6E74656E74696F6E0A0000B8
:2026A00073706925642C52656365697665204649464F204F766572666C6F770A0000000094
:2026C00073706925642C52656365697665204649464F20556E646572666C6F770A00000012
:2026E00073706925642C5472616E736D6974204649464F204F766572666C6F770A000000C5
:202700002C9A1000406BEFF3108272B6C16F090708D4C16F490705D5016902239943016159
:20272000012000E00020002A00D162B67047406B016902221143016170470000F8B506460F
:20274000051D40682A4F840A8005800D0090796830468847BA68214630469047FA68002187
:20276000304690473B6929790122304698473B696979002230469847287A746B400709D5AB
:202780003B69A9790322304698473B69E979022230469847287A20210007002804DA8120E9
:2027A000A0602069084303E00120A060206988432061287AC1078007C00F090F0001C91CAE
:2027C0000143E16060680421084360603A680221304690473A68002130469047204600995B
:2027E00006F072FD7A69002130469047F8BD0000149A1000F8B50646406B354620350090AC
:20280000009880680107090F012954D0022939D0042920D0062907D00C291CD02A7E26A1E3
:20282000022005F00BFDEBE7746B6069C7B2B80708D527A1012005F001FD00E020686069DD
:20284000C007FBD13807DBD525A1012005F0F6FC01202874D4E73046726B0AE01168436A4D
:202860001970016A491E0162436A5B1C4362002903D05169C907C3D0F0E70021416206F027
:20288000E3FCBDE73169304600290FD0426B09E04169097811604169491C41610169491EE9
:2028A0000161ADD0D16F8907AAD5F1E70021416106F0B2FDA4E7F8BD756172743A256420CB
:2028C000756E6578706563746564206969640A0075617274206F76657272756E0A0000006C
:2028E00075617274206672616D696E67206572726F720A00F8B516460F4604461D461A4659
:202900003146384606F046FD67622662A5620698E06209480221426920469047207B8006D4
:2029200003D5204600F00AF8F8BD606B4168012211434160F8BD0000149A100030B587B097
:20294000044606F007FC054618221649684600F705F90194606B0290606A0390206A049040
:20296000207B000701D5680800E0012001F08AF9FF2205994007C132C00D914301432034C8
:202980000591207E002801D00B2000E009200F22D203C0039143014368460591FFF7A2FA1F
:2029A00007B030BD5C9A1000F0B516460F46044687B01D461A463146384606F0EBFC676139
:2029C0002661A5610C98E06117480421426920469047207BC00621D5204606F0BBFB182276
:2029E0001249684600F7BAF8019460690290606B0390206920340490207E002801D00A20A5
:202A000000E008200F220599D204C0049143014368460591FFF766FA07B0F0BD606B4168BB
:202A2000022211434160F7E7149A1000749A100003490A6B52005208C00702430A63704726
:202A40000000102001490320486370470010202010B5032006F026F910BD000010B5012077
:202A6000800200F0A1FC02F00FFC002006F01AF90A49012008700A490420086009490A6892
:202A8000024207D0002C07D1FF22023206A10FA0FFF7A2F8641CF2E710BD00000CA01000FA
:202AA00000E100E000E200E02E2E5C706C665C6278323430305C7372635C736C6565705C28
:202AC0007379735F736C6565702E6300726564756E64616E745F74696D65000004490A68FC
:202AE000C00752085200C00F02430A60704700004000112004494A69000712091201000F79
:202B000002434A61704700004000112004494A680005120B1203000D02434A6070470000B4
:202B20004000112004498A680005120B1203000D02438A6070470000400011200449CA68CB
:202B40000005120B1203000D0243CA60704700004000112004490A690005120B1203000D96
:202B600002430A617047000040001120014610B50748002300685A1E406807F059F8012806
:202B800004D01F2203A10AA0FFF726F810BD00002C9F10002E2E5C6672656572746F735C98
:202BA0006170705C626C655F7461736B2E63000030000000FFB581B00C9F1C4615460E46D1
:202BC000880704D5002211460120FEF787FC280B04D0002211460120FEF780FC600804D02D
:202BE000002211460120FEF779FC0A98400804D0002211460120FEF771FC0B98400804D058
:202C0000002211460120FEF769FC780904D0002211460120FEF762FC0D98000904D00022DA
:202C200011460120FEF75AFC0198B107C007084329040843E10308430A99490308430B99E9
:202C400009030843390108430D9908430149486305B0F0BD4000102004490A68FF231B04E0
:202C60009A43000402430A60704700008000102010B503480078022801D105F0D5FB10BD47
:202C80000CA0100010B50A4C207800280ED109A1032005F0D3FA0B4910200A6B824302432C
:202CA0000A6300E030BF20780228FBD110BD00000CA01000736F66742077616B6575700A4E
:202CC00000000000000010201CB50E4C20600E48006805F003FB0025ED43FFF7C9FF2068CD
:202CE0002A460068694607F0DFF80128F5D1FFF7C9FF684681880029EFD08279009803F0AD
:202D000009F9EAE72C9F1000B89F100003490A68120A120202430A6070470000800010209A
:202D2000F8B5054606F020FC05F01AFD044601F07DF8060001D0072C05D0E00700D030BF48
:202D400006F01EFCF8BD2A4FB96838680C1A012E0FD0651E2748456000F01CFC03F090FA24
:202D600030BF03F057FA23480069002807D0012106E06D1C684379680019451AEAE70021C6
:202D80001C480068012E0DD100290BD07A680021AA180B464B41821A994103D3EA2216A1A5
:202DA0001CA023E0001B3968FFF66CFE054606F089FDB868A04204D339686943C94381427D
:202DC00001D2012400E00024396869430818094DB860686000F0DEFB002CB1D12868B9682C
:202DE0008842ADD9FF22043203A11AA0FEF7F4FE389F1000000020202E2E5C6672656572F4
:202E0000746F735C6170705C7461736B5F696E69742E63002875696E7436345F74297761E6
:202E20006B6575704D6174636856616C7565202B2052544357616B65757044656C61792023
:202E40003E52544356616C75654166746572536C656570005254435F43555252454E5443B5
:202E60004E545F47455428293C3D7274634D61746368436F756E74008188037B02684B43E9
:202E80009A184389491C5B1E438189B281800389994201D1002181801046704710B50B4658
:202EA000044600F015F8227B1946FFF657FE204600F001F810BD4189491C4181C188491CCA
:202EC00089B2C1800289914201D10021C1807047C2880168007B424350187047408900286A
:202EE00001D0002070470120704741890089814201D1012070470020704742898A4201D84B
:202F0000002070478388026859180389994200D3C91A007B4143881870477047704710B54E
:202F200000220169026108460DF734F810BD10B508781446002808D010460DF75DFA0028DF
:202F400003D1012120460DF785FA002010BD0000F8B5000B801CC6B20848012700683F03B7
:202F6000C519002406E00021284601F07DF8ED19641CE4B2B442F6D3F8BD000000A0100034
:202F800010B50446F22003F065FA808A001980B210BD10B50446F22003F05CFA007D201A7B
:202FA000C0B210BDFFB585B0044600271E46808A274901AD009743C513210F233A4649021C
:202FC000069800F7E9FD05003ED101211C200DF7D3F820618775C7754760876007610699E7
:202FE00009888182F10701D00121C903079A11430180A18A4180F221E1820121E1811830E2
:20300000A06014486060144A0421182001F038F9114E12A1361F0320726805F00FF91648F8
:203020000268002A01D0002000E07068306013A1032005F003F918A10320326805F0FEF89A
:20304000A08A00210DF706FA284609B0F0BD0000709510002096100004A01000696D616720
:20306000655F73697A655F6C696D6974203D20307825780A000000000CF5120063757272B8
:20308000656E745F696D6167655F62617365203D20307825780A00006F74615F696D616780
:2030A000655F62617365203D20307825780A000070B514460D4605F039FB012120460DF75E
:2030C000C9F9F22003F0C6F9294603F0BBF90146224602480DF746F970BD000005F20000F4
:2030E000F8B506461F460D46F22003F0B3F9044638460DF781F90146A068626840199042E4
:2031000004D9D9220BA11748FEF766FD022910D1A06032462946E06801F012F8E06840199D
:20312000E060A1686068814203D1032138460DF791F9F8BD2E2E5C69705C626C655C7072A4
:203140006F66696C65735C62786F74615C62786F7461735C7372635C62786F7461732E6364
:2031600000000000CC9C100000487047E895100010B54878002803D00878114600F0B6F856
:20318000002010BD70B515460C46F22003F062F9214603F057F9014601232A4603480DF73C
:2031A00095F804700DF7CAF870BD000003F20000F8B5054617460E46F22003F04BF90446EA
:2031C00038460DF719F90246022805D02B7A12A1022005F033F8F8BD287A002816D1A1680B
:2031E0006068814212D1E07D01280FD1A07DB0420CD12868606000201749A06009680122AB
:203200006868120389184018E060F8BD13A1022005F014F8F8BD00007570646174655F72FB
:20322000657120696E2077726F6E672073746174653A7365727665725F73746174653A2583
:20324000642C7570646174655F73656374696F6E3A25640A0000000000A0100062786F74CD
:2032600061735F72785F696E666F5F75706461746520636865636B206661696C0A00000060
:2032800070B514460D46F22003F0E4F8807D0A23010222460B48C91D0DF718F8044602202D
:2032A000FFF76EFE2080042060800020207104222946601DFFF652FC20460DF73FF8002041
:2032C00070BD0000140C000070B505460C46F22003F0C0F8294603F0B5F80146224602481A
:2032E0000DF740F870BD000001F2000070B504460D46F22003F0AEF884750121C175002193
:2033000081604160022128460DF7A4F870BD10B5002904D00120400200F08EF810BDFF2046
:203320000130F9E704480268C90752085200C90F0A4302607047000040201320081A1949F5
:20334000001F0B400105490D09040B43C101420210B54A40D20FD2430124D207E4061209FE
:20336000A3431A4363001A4303024B40DB0FDB43DB07A4009B08A24313430322920713433A
:203380009A0A80029202800D0243E0148243C80F800202431F20C00282430F20000310182A
:2033A00010BD0000FFFF00F810B50B4948600B4A104203D04A680242FCD110BD074AD24319
:2033C000104204D04A6803469343FBD110BD1E2203A111A0FEF700FC00102020AAAAAAAADF
:2033E0002E2E5C706C665C6278323430305C7372635C7379735F696E746567726174696FE3
:203400006E5C636C6B5F676174655C636C6B5F676174652E630000003000000004490348B9
:20342000086148610349086148617047AAAAAAAA002013200090142010B50B4948610B4A8F
:20344000104203D04A690242FCD110BD074AD243104204D04A6903469343FBD110BD672236
:2034600003A111A0FEF7B8FB00201320AAAAAAAA2E2E5C706C665C6278323430305C73721D
:20348000635C7379735F696E746567726174696F6E5C636C6B5F676174655C636C6B5F6719
:2034A0006174652E630000003000000010B50B4908610B4A104203D00A690242FCD110BDC4
:2034C000074AD243104204D00A6903469343FBD110BD302203A111A0FEF77EFB009014205C
:2034E000AAAAAAAA2E2E5C706C665C6278323430305C7372635C7379735F696E74656772E7
:203500006174696F6E5C636C6B5F676174655C636C6B5F676174652E6300000030000000A3
:2035200010B50B4948610B4A104203D04A690242FCD110BD074AD243104204D04A69034636
:203540009343FBD110BD422203A111A0FEF744FB00901420AAAAAAAA2E2E5C706C665C62EB
:2035600078323430305C7372635C7379735F696E746567726174696F6E5C636C6B5F6761EE
:2035800074655C636C6B5F676174652E630000003000000002488069024908200860704736
:2035A0000000202080E200E070B5094C1D46207000206070A270002A02D0E01CFFF6CEFA65
:2035C000A17800232A462046C91C05F075FD70BDDCD7100001700A0A42700A0C8270090E47
:2035E000C170704702480068002800D0012070474CA0100070B500F0BFFC2A4D0446E86983
:2036000010218843E8611A202749C0430860FFF719FAFFF71DFA00F017FD012005F0F0FA36
:2036200028680126C008C00030432860002004F0A9F91E49641C0868A042FCD3E86901211F
:20364000090488430843E861002005F04FFBA868400840003043A860154908690422104344
:20366000086101F0B7FC134C134DA168884321690843286001F08EFCA1688843E16808436A
:203680006860286801F0AEFC686801F08BFC03F023FF0449606840314861022005F0B0FAEA
:2036A00070BD00000010202080E100E00000202000ED00E050A0100014A0100070B506460A
:2036C0000D46006989000C186068002803D00CF761FC00206060B18A2802084300210CF7AA
:2036E000B9FE70BD10B5808A0902084301210CF7B1FE10BD70B5056906460024A000401924
:203700004068002801D00CF745FC641CE4B20A2CF4D30020306128460CF73CFC70BD00002A
:20372000FFB581B00F4603980CF766FE05460398060A152002F08EFE040005D11948049ACB
:20374000036E032003999847012D09D0002D04D089223146204600F029F8002005B0F0BD37
:20376000B000051968680028F2D101213C200CF703FD3C216860FFF60AFA3878002806D073
:203780003A22B91C6868FFF6E9F90022E1E7064A3146204602F03AFE022103980CF75AFEF7
:2037A000DBE700008C0010000A180000F8B514460E46074602F090FF05463146384602F02E
:2037C00041FE01463C232A460F480CF77FFD054604702046B100CC19002808D060680CF738
:2037E000D9FB0020606028460CF7A8FDF8BD3A22A81C6168FFF6B2F93146384602F06CFF6F
:2038000001210CF727FEEEE701150000F8B505461F461446012138200CF7AEFC06462861C0
:203820001149F80700D0084620433080A88A084370801520E8820A20E88130462C30A86085
:203840000A48002427466860A00080194760A98A2002084300210CF7FDFD641CE4B20A2CD3
:20386000F2D30020F8BD000000800000849610000048704728961000FFB581B016461046A0
:203880000CF7BAFD0746350A152002F0E3FD040005D11A483146036E0320049A9847012FE7
:2038A0000CD0002F07D0892300200090144A2946204602F067FD002005B0F0BDA8000319FB
:2038C00059680029EFD002980078092814D206224243921D8A5A002A0ED0203188760092ED
:2038E0005868294643880288204602F0DBFE032130460CF7AFFDDEE78223D5E78C00100008
:203900000315000002460020802901D98D207047062A06D0072A07D0082AF8D10729F5D141
:2039200070470829F2D170470629EFD37047704730B502460120002103241346CB40DB07EA
:2039400004D04D0023466D1CAB401843491CC9B20929F2D330BD704770B50546046904E0D2
:20396000201D02F723FD0CF715FB6068002808D000210029F4D00020286120460CF70AFBF1
:2039800070BD0121F5E730B50446A2890920521C93B2E48900222546D540ED0706D05D1C74
:2039A0008D4201D1104630BD9B1C9BB2521CD2B2092AF0D330BD0000FFB585B00E9F04466A
:2039C0001D463888FFF7B4FF049028461E210840A18A1A4A0023019100930292039013235E
:2039E00004AA1749069800F7D7F8060022D1012114200CF7C1FB20610699098881813988D3
:203A0000C181E90701D00121C903079A11430180A18A41801421E1820121E18101461231AD
:203A2000A1600849001D616002F713FCA08A00210CF710FD304609B0F0BD00008C961000E5
:203A40000A1800004C9710000048704724971000FFB581B00C46142002F0FCFC217807464C
:203A6000092931D200F080F800282BD061782078FFF748FF060028D17D680DE028792178CD
:203A8000884208D100222946381D02F757FB28460CF780FA02E02D68002DEFD16078012109
:203AA00008300CF769FB054620782871607868716278A11CA81DFFF651F82946381D02F7E3
:203AC0007FFC02E0822600E0812602230648039A04990CF7FBFB2178017046700CF72EFCC7
:203AE000002005B0F0BD000001140000F8B517460D4610460CF780FC012831D1142002F0AC
:203B0000A9FC0446017C00F02FF80646217C2A781448914214D1617C6B7809023A46C91D52
:203B20009B1D0CF7D3FB0446068000202071687860806A78A91C601DFFF610F8204609E04B
:203B4000617C062309023A46C91D0CF7BFFB0680802101710CF7F2FB002138460CF77AFC90
:203B60000020F8BD140C000010B58289C489521C93B200222046D040C00706D0914202D1A5
:203B80005B1C9BB205E09B1C9BB2521C52B2092AF0DB092A01D0184610BD002010BD0000EC
:203BA00030B50C224A43582543686943C5689B580B4C4919A34207D9CB692343CB61406885
:203BC00063428158C91808E0CC691B051B0D240B24032343CB6140680021815030BD0000B2
:203BE000FF0F000070B504460020267A16E001218140C9B2EFF3108572B6637A0B4201D199
:203C0000012200E00022002A01D00B436372002D00D162B6002A08D1401CC0B28642E6D8F4
:203C2000362202A10BA0FDF7D7FF70BD2E2E5C706C665C7065726970686572616C5C617038
:203C4000705F646D61635C6170705F646D61632E630000003000000001228A40EFF310814E
:203C600072B6437A93434372002900D162B6704710B5002903D08020FFF7DEFB10BD4020AE
:203C8000FAE7000010B5012809D020281BD008DC042812D0082812D0102809D111E0002022
:203CA00010BD402811D0802811D0FF38012810D0B42209A112A0FDF78FFF012010BD022061
:203CC00010BD032010BD042010BD052010BD062010BD072010BD00002E2E5C706C665C7097
:203CE00065726970686572616C5C6170705F646D61635C6170705F646D61632E6300000055
:203D00003000000010B54022002908D001290AD002290CD01822074907A0FDF75DFF07496F
:203D20000860074801E006488030026010BD0548FBE70000589D10003000000084A0100026
:203D400000E100E080E200E070B50446C0680721C9014018006A002808D1054D0121EA684E
:203D6000204690476A6903212046904770BD00006CA0100010B5202004F01EFF10BD0000A6
:203D800010B500290DD0012910D00E4B0229186811D0032912D00A460BA1022004F04EFA01
:203DA00010BD01460E4803F039FD10BD01460C4803F082FD10BD0121084301E040084000F3
:203DC000186010BD4CA01000756E6578706563746564207379735F737461743A25640A0006
:203DE0003CA0100070B50D462C460C22416854430A59C668002A0ED02946FFF7D1FE012091
:203E0000A84081068006890E800C01430720C0013018016270BD221D08348E580C59294651
:203E2000FFF71AFF2046B04770BD0000094901200968002901D0002070470749CA69002A87
:203E4000F9D1044A283212688968491E8A42F3D102207047F0D51000649F100008B500927E
:203E6000034A0B461146203900F05EF808BD000074971000F0B585B0044600294FD12046FB
:203E800008300390001D0290001D0190001D071D3E1D244D0090FEF64FFE01462046FFF779
:203EA00099FBFEF649FE0146201DFFF793FBFEF643FE01460398FFF78DFBFEF63DFE014620
:203EC0000298FFF787FBFEF637FE01460198FFF781FBFEF631FE01460098FFF77BFBFEF6F3
:203EE0002BFE01463846FFF775FBFEF625FE01463046FFF76FFB1F20215C002901D1401E25
:203F0000FAD5401C02D120780028C4D01F20215C2A5C9142BFD8914201D3401EF7D505B01D
:203F2000F0BD000094971000F0B51C4687B017460E4605464023FF2220460C990CF7C6F90E
:203F400004461C2207496846FEF608FE204620300490039406946A46E0C26846FEF786F8F3
:203F600007B0F0BD1499100010B50CF7E7F901F067FA10BD7047000010B50748C269102132
:203F80008A430A43C261C26909028A430A43C26100F02AFE10BD00000010202070B50B4AC2
:203FA00005460121126800209047094A002112680846904700F03EF8064C6560FEF7FCF8EA
:203FC000A0602720C005E06070BD000068A0100064A010000010122010B5FEF7E1F8034A1A
:203FE000012112680020904710BD000064A0100070B50E4A04460021126808469047022C98
:204000000FD0012C0FD00321094DE868000A00020843E860E1B22020FEF7ACF80120286037
:2040200070BD6B21F0E73B21EEE7000064A0100000101220034801218161C161C1690029A5
:20404000FCD170470010122008B5B9206946087001216846FEF7C0FA08BD10B5002300F0C1
:2040600052F8002010BD0000F8B50C0006460AD0012C08D0022C06D0032C04D0682216A1DD
:204080001D48FDF7A9FD05F059FC00F026F9300C69464870300A8870CE70002C06D0012C86
:2040A00006D0022C08D0032C0BD107E0202000E052200870042504E0D820FAE7602008704A
:2040C000012529466846FEF787FA00F028F806F0DDF80020F8BD00002E2E5C706C665C70B1
:2040E00065726970686572616C5C666C6173685C666C6173682E6300AC9E100010B500215F
:20410000FFF7B2FF10BD08B5002B00930B46014601D06B2000E03B20FEF7AEF908BD1CB54F
:2041200005206946087101236A46194601A8FEF715FA68460078C007F5D1684600781CBDA0
:20414000F8B5044616460D46000E04D0942219A120A0FDF741FD200A0002A0420CD0071B69
:20416000FF370137BD4200D20F463946204600F03DF8F619E419ED1B2802070CE8B2002591
:2041800000900BE0FF2132460131204600F02EF86D1CFF340134FF36ADB20136BD42F1D3DF
:2041A0000098002804D001463246204600F01EF80020F8BD2E2E5C706C665C7065726970F5
:2041C000686572616C5C666C6173685C666C6173682E6300286F6666736574263078666625
:2041E000303030303030293D3D30000070B50546FF20013016460C46814204D98A2209A168
:2042000010A0FDF7E9FC05F099FB00F066F82346324629460220FEF709F8FFF780FF06F06B
:2042200035F870BD2E2E5C706C665C7065726970686572616C5C666C6173685C666C617336
:20424000682E63006C656E6774683C3D3235360010B5002405F088F9FFF7BEFE204610BD89
:2042600010B503480068FFF7C3FE05F089F910BD14F5120010B50123FFF745FF002010BDA0
:2042800038B508A31B680093030C6C466370030AA370E0708BB204216846FEF75FF90020EF
:2042A00038BD00000300000010B500F00DF804480068FFF773FE03480068FFF799FE10BD24
:2042C0000CF5120014F5120008B5AB206946087001216846FEF780F908BD08B5062069466C
:2042E000087001216846FEF777F908BD0C4910B5884201D9062010BD0949C839884201D9A4
:20430000002010BD0749884201D9072010BDE121C9008842F4D86E22034904A0FDF75CFC9B
:204320003C0F0000480D0000149D10003000000003480449401804494018044908607047EB
:20434000551A00003B1B0000F52A000008A0100070B50024012000F0F3F802780C2A01D0FB
:204360000A2100E00221274BDD7C0A2D06D30C2A04D0457A032D01D0432441E09D7CA943DD
:2043800033D10C2A0BD00D2A04D00E2A24D00F2A03D121E0417A032904D3402430E0417AD6
:2043A0000329FAD8817A0429F7D2002904D0417A0129F2D00229F0D00A21A94304D0417AD9
:2043C000012912D0022910D000242146491CC9B2022901D2002CF9D0197D4907490F0229FF
:2043E00005D0407800280AD10AE0422408E00C2A02D04178022902D04078002800D1492419
:20440000204670BD34FF120070B5012000F098F804464188FF2001308143C8B26180434DEC
:204420000300FEF6F6FB0B7D077D7D555B6B6B6F7D7B7D0010233E4A002128460BF746FF10
:20444000054604F79BFD01466871207A6873E0886880A0882880207801230C280FD00022D8
:204460000D281FD00E2827D00F2823D031481146036E0120984728460BF7DEF870BD2B20C2
:20448000005D00280CD002202871A07AA87302290AD35120005D06222146A8714B3113E0DE
:2044A0000320F1E72A71F0E7AB710621E81DFEF66EFBE0E7042000E001202871AA73E07BED
:2044C00006222146A8710931E81DFEF647FBD2E72146E07A0C3100F0F1F870BD144A202361
:2044E000D21C002128460BF7F1FE05462B20005D214628701F222C31681CE6E7204600F017
:204500008DF870BD607A022804D10B4A08210B480CF7A2F9012005F775FB70BD0020FAE7E6
:20452000080A00020C30608070BD000005080000062000008C00100050460000290D000083
:2045400010B50446032805D304480022036E1146012098470249A000085810BD8C0010005F
:2045600014FF1200F7B582B017460446032805D328480022036E11460120984700260820E6
:204580000BF73AFF0190039800780090019808283CD02046FFF7D4FF01460398814234D0FF
:2045A000012001990025A040084209D0012C01D002262BE043251DE00099884204D07F1CB0
:2045C00038780028F8D11EE00006000E1BD00126039F032C05D30F480022036E114601200B
:2045E00098470D49A0000F500121204605F7A3FF002D0BD003980BF7BCFE01462A460098B3
:2046000005F771FA02E04025F4E70126304605B0F0BD00008C00100014FF120010B5044642
:204620008078062808D007281BD01E480022036E11460120984710BD0822052311461A483A
:204640000BF744FE182101706178012902D0022904D101E0402100E0002101710BF76EFE74
:2046600010BD0623114A002111480BF72FFE044606221049FEF672FA20460AF7DDFF0D487D
:204680002C38428B0C48824200D802460648082115300CF7E1F80748F7220C38017D11409E
:2046A000017510BD8C001000160D0000052000000508000040FF1200983A000070B5054633
:2046C0000E460120FFF73CFF2023084A002108480BF7FCFD044605701F223146401CFEF66C
:2046E0003DFA20460AF7A8FF70BD000008200000050800007CB50E4614A003C800900191ED
:204700000120FFF71DFF002809D000246A4631460120FFF727FF0546012802D014E001247E
:20472000F4E7002C0ED000207080FFF711FE010003D0012005F7BDF906E000221146012058
:2047400005F7AAFDFFF760FE28467CBD0C0D0E0F00000000FFB581B00C4603980BF74CFE67
:204760000746152001F076FE06460398050A022F02D0032F1AD02AE06278002A11D1A800A5
:20478000801941683B20405C012802D008D9842207E0104A0920091D01F0BAFD024600E0FE
:2047A000832229463046FFF701F810E02078082809D16378002B06D000200090064A2946A3
:2047C000304601F0DFFD012103980BF743FE002005B0F0BD3896100003150000FFB581B039
:2047E000164610460BF708FE03281DD1152001F031FE0F4F040004D13B6E31460320049A79
:204800009847350AA80000194068002804D13B6E31460320049A9847029800900023054AB8
:204820002946204601F0AEFD002005B0F0BD00008C00100003150000FFB581B0002000903C
:204840001F460C460888FEF7A4FB02280DD0144D0A280FD0062339462846039A0BF736FD1C
:20486000218801808021017115E0380A0399FEF72BFD12E003980BF7BFFD064607233946CB
:204880002846039A0BF722FD21880180012141800021017146710BF751FD009805B0F0BD4B
:2048A000140C0000FFB581B0002000900E4603980BF7A2FD002802D001284BD04CE0142015
:2048C00001F0C8FD07463188FFF75DF805462448092D35D27C6803E02179A94203D0246832
:2048E000002CF9D117E0002C15D06379039A9B1D04990BF7EBFC054630882880002028719F
:20490000607968806279A11D681DFEF627F928460BF714FD20E03D740498010A7974384660
:2049200001F090FD014601230E48039A0BF7CEFC05700BF703FD012103980BF78BFD0BE026
:204940000623039A04990BF7C1FC3188018080210171DDE702200090009805B0F0BD000078
:20496000140C000002140000FFB583B00D4605980BF742FD02282FD10598070A152001F0EB
:2049800069FD174E040004D1336E0320069A05999847B80004196068002804D1336E032034
:2049A000069A0599984763683B20C05C00280ED10090019002900B4A092128461B1D01F0C8
:2049C00061FD6168688A08806168A88A488060682030C17E491CC176002007B0F0BD0000FC
:2049E0008C00100038961000FFB583B01D460C460888FEF7CEFA06462F0A042329463848B9
:204A0000059A0BF763FC21880180002105468170082E38D004DC042E13D0062E04D120E0D3
:204A20000C2E42D00E2E47D032462EA1032003F005FC0120A87028460BF780FC002007B07D
:204A4000F0BDA088042803D0582229A135A039E0E08869460880208948800098FEF778FA41
:204A6000E9E7A088042803D0602221A13AA029E0E088694608802089488039466846059A3C
:204A8000FEF780FBD7E7A0880C2803D0682218A13DA017E00C22A11D6846FEF65FF839463E
:204AA0006846059AFEF784FBC5E7A1883A46A01D059BFEF715FBBEE7A088042804D073221C
:204AC0000BA13DA0FDF788F8E088694608802089488039466846059AFEF7EAFAABE7000092
:204AE000160C0000696E76616C69642C25640A002E2E5C69705C626C655C70726F66696CE6
:204B000065735C62786F74615C62786F7461735C7372635C62786F7461735F7461736B2E85
:204B200063000000706172616D2D3E6C656E677468203D3D2073697A656F662862786F74E5
:204B400061735F666C6173685F65726173655F7265715F7429000000706172616D2D3E6C1A
:204B6000656E677468203D3D2073697A656F662862786F7461735F7570646174655F696E04
:204B800069745F7429000000706172616D2D3E6C656E677468203D3D2073697A656F6628CC
:204BA00062786F7461735F7570646174655F7265715F742900000000706172616D2D3E6CF7
:204BC000656E677468203D3D2073697A656F662862786F7461735F626F6F745F6F7665728E
:204BE000726964655F74290002490A6808688242FCD070470000202010B5002905D0012974
:204C000002D14803FEF78CFC10BD01200003F9E7F0B5C3689D6E4A7A0C7A5207D60F0122A2
:204C2000A6401746A740BD432E439E66C3689E6B4C7A1746E5070C7AED0FA540A740BE4343
:204C400035439D63C368DE6B4C7A1746A407E50F0C7AA540A740BE433543DD63C468256BDF
:204C60000E7A1346B3409D432B432363C068436B097A8A4093434363F0BD0000012210B558
:204C8000D203002908D001290AD002290CD02422064907A0FCF7A0FF06490860064801E07F
:204CA00005488030026010BD0448FBE7689E100030000000C8A0100000E100E080E200E0D9
:204CC00010B50120400403F07FFF10BD10B5002907D001290AD00A4607A1022003F0AEFAEE
:204CE00010BD01460B4802F099FD10BD0146094802F0E2FD10BD0000756E65787065637456
:204D000065642073797320737461743A2025640A0000000030A01000F8B50446807D002886
:204D200008D02B4D01281ED0022832D0032835D0D92248E0607D2076062806D0072804D013
:204D4000082807D008461C30F8BD214A042120465C3A14E0012003F00BFC1E490020086073
:204D60001D4908602CE0207E062802D0072815D107E01A48164A0421606020461C3A904785
:204D80001EE0E068042200680090154B6946072012E0207E062803D0072813D00846F8BDD3
:204DA00004226846E6686168FDF6D8FE0098002230600C4B11460620FEF7F6FB2046A847E6
:204DC0000948F8BDCB2209A113A0FCF705FF000061B0000048A010004CA010000DA01000CA
:204DE00071671000198A10009FB100002E2E5C706C665C6278323430305C7372635C706101
:204E00007463685F6C6973745C6834746C5F70617463682E630000003000000070B50446C1
:204E200040680021FEF769F8054626480021C268204690471F22E0685201801829682022CB
:204E400000F0DEF91522E068520180186968202200F0D6F90B22E06892018018A96820225C
:204E600000F0CEF90921E068890140180822002102F09CFD1326E068760180190822002175
:204E800002F094FD0521E068C90140180822002102F08CFD1725E0686D01401908220021A3
:204EA00002F084FDE06801228019114602F07EFDE06801224019114602F078FDE1680120CB
:204EC000886070BD98A0100010B5002904D00120C004FEF7B1FA10BD01208004F9E70000DC
:204EE00010B52022002908D001290AD002290CD01D22074907A0FCF76FFE07490860074802
:204F000001E006488030026010BD0548FBE700009C9D100030000000B0A0100000E100E0BA
:204F200080E200E010B50120C00503F045FE10BD10B500290ED0012911D00E4B402218686F
:204F4000022911D0032911D00A460BA1022003F075F910BD01460E4802F060FC10BD0146ED
:204F60000B4802F0A9FC10BD104300E09043186010BD00004CA01000756E657870656374C7
:204F80006564207379735F737461743A25640A003CA0100010B50248FDF720F810BD00000D
:204FA000D0A0100010B501460148FDF71AF810BDD0A0100010B50448FCF7DCFF034910206E
:204FC00008600349086010BDD0A0100080E200E000E100E010B50248FDF706F810BD000097
:204FE000D0A0100010B501460148FDF700F810BDD0A0100070B5184DAC6B1848844204D305
:20500000002211460120FCF769FA204603F0B6FA134CA17A461813493046FDF633FD114970
:2050200027224143711A1201511A89B2002300290CD0A372084A4032506011600A490820C2
:205040000860296B81430143296370BD11460122A272401CEEE7000000001020001BB700D2
:2050600088F81200710200004010202010B50D4AD3680D4C23605063FF200F309061042042
:20508000D060D0680006C00F05D0802090610346D0689843D060002902D10120FDF7C8FC0C
:2050A00010BD000000001020FC9F100070B586B02F48002101600224684604716A4601A951
:2050C0000F2000F02BFA002802D02A48694608806846047104AA01A90E2000F01FFA264DC4
:2050E000002801D0684605826846047102AA01A90D2000F013FA002801D068460581684604
:20510000008903F059FA86B26846008A03F054FA85B26846008803F04FFA84B2E80A04D06A
:20512000002211460120FCF7D9F9A00A04D0002211460120FCF7D2F97005A90208430F4977
:205140002043C863684602890088824200D9104669460881098A884200D80846694608811A
:2051600003F040FA0020FDF763FC06B070BD0000FC9F1000710200008813000000001020C3
:2051800010B50020FDF754FCFFF734FF024901208861C86010BD00000000102002480349AD
:2051A0000068C86070470000FC9F10000000102003F040FD0E490D48486002680A60002154
:2051C0000160FCF7DFF90BA1032003F037F800F0DFFF00F059F809480021406800F052FA4D
:2051E00000F04AF802F0C6FFFEE7000018F51200B89F10006D61696E0A0000000CF5120099
:20520000F8B50C460546930704D0102209A113A0FCF7E2FC0026970808E0601CFCF707F85B
:2052200021780002084301C5241D761CB742F4D8F8BD00002E2E5C706C665C7065726970FF
:20524000686572616C5C6170705F68776563635C6170705F68776563632E63006C656E67FF
:2052600074682573697A656F662875696E7433325F74293D3D30000010B50120FDF72EFCA6
:2052800000F068F810BD000010B52F4C207800280BD06088FDF73AFCA088FDF743FCE08841
:2052A000FDF74CFC2089FDF755FC284C60690521800980010843606160690F21090288437C
:2052C000012189020843606160697F21090688430921890608436061206807214902884347
:2052E0000121C902084320602168062081430143216020680121C905884308432060144854
:20530000006BC006C00E801F102802D80320FDF7F1FB0E4940314869F022904360221043A7
:20532000486120684905884300212060A06B0722120390431043A063E069E161206A000AF1
:205340000002206210BD000014DC10000000112080102020F8B5374E3078002869D1364C3D
:2053600020688007C00FFBD1FDF7B8FB3348006B0021C206D20ED21F481E0125009113000C
:20538000FDF647FC0A060A100A0A1E0A1E19131E6846057045700BE069460870487088706F
:2053A000C8700DE00120C043F6E76846057041708570C57004E06A46117050709070D170B3
:2053C00060686946002200058A56000D801880B2FDF79CFBA0686946012200058A56000D21
:2053E000801880B2FDF79EFBE0686946022200058A56000D801880B2FDF7A0FB20696946B8
:20540000032200058A56000D801880B2FDF7A2FB60680005000D7080A0680005000DB08006
:20542000E0680005000DF08020690005000D30813570F8BD14DC10004000112080102020BB
:205440001CB500200A4C009001902068006804F009FD002806D02068002300681A466946DA
:2054600004F09AFC01200349000748601CBD00002C9F100000ED00E010B5002304F0D8FB56
:20548000012804D03E2202A109A0FCF7A5FB10BD2E2E5C6672656572746F735C6170705CE8
:2054A0006F736170705F7461736B2E630000000030000000034610B503480A460068194686
:2054C0000068FFF7D9FF10BD349F10001CB508496A46CB6F08219847042206A16846FDF664
:2054E00061FB002801D000201CBD01981CBD000044D710004E5644530000000010B500F0D1
:20550000C1F9040007D0608800F024F9002020706070608010BD022010BD000070B5154665
:205520000C4600F0AFF9002814D001782278C91EC9B28A4201D2042070BD2170064A408867
:2055400092681018044A803AD36F2A46C01C9847002070BD022070BDC4D71000F8B5054675
:205560000721FDF68FFA0720461A1F212846FDF689FA0C460A4F01E00020F8BD88003A5C5D
:20558000002A03D0C0194278AA4202D18800C019F8BD88191F21FDF675FAA142EED1EBE7EF
:2055A00044D71000F8B50D4607461C486A46C36F03212846984768460078C0430606360E43
:2055C00021D068468078C00717D068464078FFF7C5FF040019D0694660784978884206D190
:2055E0000FA1022002F02AFE608800F0B3F86846407860702670E81B6080AD190121E81BA2
:2056000009038842D1DB2846F8BD0DA1012002F015FEF82211A11AA0FCF7DEFA44D7100095
:20562000756E6578706563746564206D756C7469706C652076616C6964207461670A000013
:205640006E6F20737061636520666F72206E76647320696E6465780A000000002E2E5C6D98
:205660006F64756C65735C6E7664735C7372635C6E7664735F696E5F72616D2E6300000066
:2056800030000000F8B50546000505D0FF22103219A122A0FCF7A0FA27482849006802282A
:2056A00019D0012819D02648244CC867254880342060254860602846FFF708FF064601203C
:2056C000000328180746FFF701FFB04207D9A7602061012006E01D48E6E71D48E4E72661FA
:2056E0000020A5602075A06801460831FFF75AFFE0600020F8BD00002E2E5C6D6F64756C2B
:2057000065735C6E7664735C7372635C6E7664735F696E5F72616D2E63000000282875694B
:205720006E7433325F742962617365263078666666293D3D3000000014F5120044D7100072
:20574000FD311000BD30100079301000F1311000D72F100008B50649801C09680091054915
:205760008A680B6810186A460121984708BD00004C991000C4D71000F0B5274C0121227DAD
:205780000903A068C5B0002A41D0401A029061688847029E002508361F4AAF00803AD15DBE
:2057A000002918D0B81803904088002813D0A3681818D36F04AA9847174823688038C15DD8
:2057C00004AA3046984702980399301A488012488038C05D86196D1CEDB21F2DDCD30F4836
:2057E0006A46406800902069401C019023680821029898470298E660A0602069401C2061D8
:20580000207D002805D00020207545B0F0BD4018BCE70120F8E70000C4D710004C991000FC
:20582000F8B50746164816460D46C268C91C51188068012212038018814201D9FFF79CFF03
:20584000384600F01FF800280CD0448833462A46394600F03FF8002C02D02046FFF77AFF91
:205860000020F8BD3846FFF779FE002805D033462A46394600F02EF8F2E70320F8BD00003C
:20588000C4D71000F8B504460721FDF6FBF80720461A1F212046FDF6F5F80D4F88003A5CD1
:2058A000002A12D0C0194278A2420DD00D4688191F21FDF6E7F8A94207D08800C0194078A7
:2058C000A042F4D18800C019F8BD0020F8BD000044D71000F8B5D61C0F460546F0436946EA
:2058E00008704F70FF2088700C4C9E469446E068236872466146C01C984723686A460321F8
:20590000E06898476F70F0B22870A1892289891A6980E1680818E060F8BD0000C4D71000DD
:205920000048704758941000F0B4114B0025012201461C6808311B790DE0D600A65B078839
:20594000BE4206D1D200121DA45883884288B8B209E0521C92B29342EFD8002D06D18388EE
:20596000428800886468A446F0BC6047F0BC7047D89410001CB5064B08385B6800900193A4
:205980006846083181801146FFF794FD1CBD0000E094100010B50C46022219460548FCF70A
:2059A00067F92178017001214170022100F0AAFA10BD000004F2000010B51946042204489A
:2059C000FCF756F903490160042100F09BFA10BD02F200000505000008B500931346024672
:2059E00002A1032002F02AFC08BD000064656661756C742068616E646C65722C6D73676945
:205A0000643A20307825782C20646573745F69643A20307825782C207372635F69643A20A2
:205A2000307825780A00000010B501220D210448FCF71EF90121017000F064FA10BD0000FD
:205A4000020D0000F8B50E46097818460B00FDF6E0F80906091215181B0C1E0F3500172466
:205A600019A516E00A241EA513E008241FA510E0072421A50DE00A2421A50AE0052423A501
:205A800007E0052423A504E0052424A501E0062424A50146A21C2548FCF7EAF80746307848
:205AA00038707C70002C04D022462946B81CFDF655F8A11C384600F025FAF8BDFF227232A3
:205AC0001BA113A0FCF788F8426C756558204D6963726F656C656374726F6E69637300004F
:205AE00052572D424C452D312E300000123456FFFE9ABCDE00000000025E044000000300CD
:205B0000312E302E302E302D4C450000312E302E30000000362E312E32000000362E332ED5
:205B200030000000FFEEDDCCBBAA0000031400002E2E5C6672656572746F735C6170705C08
:205B40006F736170705F6469735F7365727665722E63000010B50C4619462C220848FCF7F5
:205B600087F8002228210A542C2100F0CBF9228804A1032002F062FB00F0EEF910BD000077
:205B8000020E0000636F6E6964783A25640A000010B58A7803A1032002F050FB00F0DCF913
:205BA00010BD0000646973636F6E6E3A25640A0038B5087800251E4C002809D001281CD04B
:205BC000022823D0FF2224321AA123A0FCF704F8F82268460270194620460A32FCF748F856
:205BE00004460570021D69460220FFF797FC68460178618020460A3117E019460A222046DC
:205C0000FCF736F80121017045800DE019460A222046FCF72DF802210170082141800A216C
:205C20008180C580C82101810A2100F06BF938BD0B0E00002E2E5C6672656572746F735CA8
:205C40006170705C6F736170705F6469735F7365727665722E6300003000000008B5888861
:205C600000904B880A8802A1032002F0E7FA08BD706172616D2075706461746520696E64C2
:205C80005F25782C25782C25780A000010B51C4609A1032002F0D2FAE12021460622000129
:205CA000FBF7E6FF01210170094981804180062100F028F910BD0000706172616D2075704B
:205CC0006461746520726571756573740A000000FFFF0000F8B50A781B27012A08D0032A54
:205CE00022D00D2A46D01B2A37D024A102203EE04878002801D0D32233E00A2600250124D9
:205D000030220D212548FBF7B3FF032101704670FF21478449318184C02101848576C476A2
:205D2000E102C184302115E04878002801D0D72217E01A480A220D211730FBF799FF077048
:205D4000002141701422428046228280C180144A02810A2100F0D6F8F8BD4A78002A04D08F
:205D6000DB2210A118A0FBF737FF20A1032002F065FAF8BD4A7828A1F8E700006761706D9C
:205D80005F636D705F657674206F7065726174696F6E3A307825780A00000000040D00002B
:205DA000FF0100002E2E5C6672656572746F735C6170705C6F736170705F6469735F7365CF
:205DC000727665722E630000636D705F6576742D3E7374617475733D3D4741505F455252DC
:205DE0005F4E4F5F4552524F520000006761706D20636D70206576742070726F66696C6539
:205E0000207461736B206164642C7374617475733A307825780A00006761706D5F636D70C9
:205E20005F657674206164765F696E642C7374617475733A307825780A00000038B5888869
:205E400000900C464B880A8813A1032002F0F6F92088142810D108220D211C48FBF708FFC9
:205E60001B21017000214170F222428046228280C180082100F046F82088F2280AD101220B
:205E8000F2210002FBF7F4FE0121017000F03AF800F062F838BD00004741504D2070726F7F
:205EA00066696C6520616464656420696E6469636174696F6E2C69643A25642C6E623A25D7
:205EC000642C68646C3A25640A0000001B0D000010B54B880A8802A1032002F0AFF910BDAE
:205EE00045786368616E676564204D54552076616C75653A25642C207365715F6E756D3A87
:205F000025640A0010B50022D243FFF733FD012010BD0000064B5B691A70054A2432491C35
:205F2000D180012111721060024891804160704720A110004020132010B504A1032002F065
:205F40007DF9002000F050F910BD00004F54415F444F4E450A00000038B550220D2111484C
:205F6000FBF786FE04460020607007202072A021A180E1800D202070012060721120009004
:205F8000204609A3092201210C30FBF752FE1C20E0721F212820015550212046FFF7B2FF3A
:205FA00038BD00000D0D0000426C7565782044697320536572766572000000001CB5164CC8
:205FC0000025ED43206020682A464068694603F06BFF012804D0D82210A118A0FBF7FCFDF5
:205FE00068468079022809D0042807D0052809D006280BD012A1022002F020F9009803F07A
:20600000F3FAE0E70098FFF78FFCF7E768468188009800F027F8F1E7349F10002E2E5C669E
:2060200072656572746F735C6170705C6F736170705F7461736B2E6300000000300000006D
:206040006F73617070207061636B657420727820696E76616C696420696E64696361746F09
:20606000720A000010B502A1032002F0E7F810BD757372206D73672068616E646C65720AB2
:206080000000000008B5684600F032F800280ED06B46094A0949187800F03EF808480268AF
:2060A0006B461B78012199400A43026008BD112204A10EA0FBF790FD640500002C5401003E
:2060C000803013202E2E5C706C665C6278323430305C7372635C70617463685F6C697374BC
:2060E0005C6164765F696E742E6300003000000030B50021074C012522682B468B401A42FD
:2061000002D10170012030BD491CC9B21029F3D3002030BD8030132070B50F2804D976228D
:2061200009A115A0FBF758FD174C8903164D8000090C2358154E403549043340C90B0B439D
:2061400023502A5070BD00002E2E5C706C665C6278323430305C7372635C7379735F696E9A
:20616000746567726174696F6E5C70617463685C70617463682E630070617463685F6E6F9D
:20618000203C3D2030786600003013200300FEFF10B505490020086002F088FA02F044FA96
:2061A000FFF770FF10BD00008030132002480068002800D00120704748A0100070B5002407
:2061C000054601260BE031466868A140084204D02868A100405801688847641CE4B2287A63
:2061E000A042F0D870BD000072B60649496808600549884205D00549884202D004490220F2
:2062000008607047B89F1000C3C3C3C3A5A5A5A54010202070B501F0FBFB012002F066FD46
:20622000FEF7E2FC124D04462868FEF7DBFE6868FEF7B8FE0F4810490068486101F04CF912
:206240000D49403988680425A8438860FDF7E6F802F0E6FEFEF728F8204602F0BDFC02F0C3
:2062600075FE02F0B9FE05480169A943016170BD14A0100050A010004010202000ED00E0AF
:2062800010B5FDF7B7F910BDF3B5054681B00026408800F0F3F901000AD01C4F6A88002082
:2062A00018234343DB19DB8A934203D142262AE0402628E0401CC0B20A28F1D3002E22D156
:2062C000002418206043C019C08AFF2806D0641CE4B20A2CF5D30A2C14D014E028460830D7
:2062E000009018206043C0190E686B78AA880746A91DB0470600EED16888F8820298B98AB9
:206300000180E8E74B263046FEBD000054D6100070B50546002003460EE006245C430E5B58
:20632000002E0ED09E00B6186418F6782479A64300D085205B1CDBB2AB4201D20028ECD058
:2063400070BD9C00A418A478FF2CF3D18320F1E7F3B50B4E81B00F4600241820604385190E
:20636000E88A00F08BF9002804D0C3683A46284601999847641CE4B20A2CEED3FEBD0000E1
:2063800054D61000FFB581B000250A9E1F46002B00D1B5880299019800F09EF904460299D3
:2063A000019800F04FF80146A81D83B22246039809F78CFF04460771002020806580002EA9
:2063C00006D0308820802A46B11D601DFCF6C6FB204609F7B3FF05B0F0BD0000F8B50A4EA2
:2063E00007460024182060438519E88A00F046F9002803D08268394628469047641CE4B253
:206400000A2CEFD3F8BD000054D6100070B514460D4600F061F9024629021A230848C91D93
:2064200009F754FF1521017001218180891EC180022141700472220A427209F77FFF70BD82
:20644000190C000002885004400CD20B01D009020843704710B50024094A214618234B43C6
:206460009B18DB8A834204D1182041438818046903E0491CC9B20A29F0D3204610BD0000B5
:2064800054D61000FFB585B00746002481E016216143C9198B7D022B79D1631CC3189BB224
:2064A00004930D8BC97D01940091AA426FD30119A9426CD2281A401EC0B216214843C01923
:2064C00000260390183002905EE0062008997043085A002856D10798B100425A0398C17DFB
:2064E0000298FDF6F2FB00284CD0304606225043089A049911520899401802904580009922
:206500000171641CE4B216206043C0190090807D042824D100980025183003901CE0109857
:206520006900405A002815D10F99A8004118C978B1420FD10F990A5A0098C17D0398FDF61D
:20654000C4FB002806D0798A601C081810996A00885204E06D1CEDB20E988542DFD3798AC4
:20656000601C0818B98A884205D80098807D022801D00128C5D1641E0198E4B20299201AC0
:20658000487104E0761CF6B2069886429DD3641CE4B2BA8A788A111AA14200DD77E709B0F0
:2065A000F0BD000030B5FF23040AC5B209490020182242435218928AAA4204D1182250435D
:2065C0004018C38A03E0401CC0B20A28F0D32002184330BD54D6100030B5FF23040AC5B240
:2065E00009490020182242435218D28AAA4204D1182250434018838A03E0401CC0B20A28CE
:20660000F0D32002184330BD54D61000F8B50025194EFF27002818D0002418206043871905
:20662000F88A00F02BF8002802D0416838468847FF20F8827D60BD60FD81387D09F7E0FF30
:20664000641CE4B20A2CE8D3F8BD0024204618214843811922460A320D618A82CF824D607A
:206660008D60CD818D813550087D09F759FF641CE4B20A2CEAD3F8BD54D61000014610B56B
:206680000020C9B2142906D0152907D0F22901D1FCF76AFD10BDFDF7D7F910BDFDF7E8F8BE
:2066A00010BD000070B50D46049C00F015F8024629020A230748C91D09F708FE0821017083
:2066C000012141700021C1800181848009F736FE70BD0000080C000042885004400CD20B43
:2066E00001D0090208437047F8B5134E0F46F56804463068001D02F0D1FE601C07D1002FB9
:2067000005D031680D48091D02F022FFF8BD30682C1944603168AC4204D2B06B091D02F0B7
:20672000FFFEF8BD706B091D02F0FAFEB06A8442F7D2B462F8BD0000649F100018D6100037
:20674000F8B5054602F010FF294EB068401CB0603068284F002803D07069002827D02CE037
:206760003560B068012828D1002414206043C01902F0C8FE641C062CF7D31E48783002F042
:20678000C1FE1C488C3002F0BDFE1A48A03002F0B9FE1848B43002F0B5FE1648C83002F061
:2067A000B1FE1448783070631430B06305E03068E96AC06A884200D83560706A401C7062C3
:2067C000E86A3169884200D9306114214843C019291D02F0BDFE02F0D3FE7069002806D073
:2067E0003068E96AC06A884201D202F095FFF8BD649F100050D5100010B502F0B5FE0C4CA2
:206800002068002810D10B4802F07CFE0948143002F078FE0748E0601430206100220C2188
:20682000052003F079F9206002F0AAFE10BD0000A09F10002CD6100010B5026C0C46002AD7
:206840000CD0C1688B18C36041688B4201D2194601E00168C1602046FCF680F910BDF8B50F
:20686000856B164604460027026C002A21D0002E0FD0E068FCF672F9E168206C091AE160E7
:206880002268914202D26168081AE060022E0DD00FE0A068FCF662F9216CA0684018A0605E
:2068A0006168884205D32068A06002E0002D00D06D1E6D1CA5633846F8BD10B50446006B3D
:2068C00002F092FE204602F08FFE10BD0A4900200A69002A00D001200A68D26A002A01D0DA
:2068E00000207047054A1268012AF9D80028F7D1886AC968401A7047649F100050D5100090
:206900000D210E488902420705D0C01DC0080B4AC000821A891A0A4B0022411805C3083978
:20692000C908C900183B19604A600A600A1A06C09A600120C0075A60D860704750A1100067
:206940005C9F10001B4D1C4E11E002F00DFEF068C468201D02F0A2FDA868401EA8606868D4
:20696000401E686002F00CFE2046FFF7A6FF68680028EAD11048B4380068012801D902F0A0
:20698000CBFEFFF7A3FF0228DDD302F0D7FFA86AE968884204D2094A09A10FA0FBF71CF93E
:2069A000FFF794FF022801D3FCF7BAF903F06EFCC9E70000649F100004D61000EE0C0000A6
:2069C0002E2E5C6672656572746F735C7372635C7461736B732E6300784E6578745461739F
:2069E0006B556E626C6F636B54696D65203E3D20785469636B436F756E740000FFB581B023
:206A00000E4691000C9C0F460A9DA522206BFCF6B7F8206B3F1FC019C708FF00780704D017
:206A2000184A19A11E48FBF7D7F82218315C20321175315C002902D0401C1028F5D3264624
:206A400000214036F170062D00D30525201DE56202F063FD2046183002F05FFD2461062091
:206A6000401B6462A0610020606430723846049A019900F0FFFD20600B98002800D004604D
:206A800005B0F0BD630300002E2E5C6672656572746F735C7372635C7461736B732E630055
:206AA000889C100030B5114900E011460A688242FBD34B685C18844203D1406818184860E7
:206AC000084643681C18944209D1084C103C2468A24209D052689A1842600A681268026094
:206AE000814200D0086030BD0460F9E75C9F100070B5002441600B4D0061914206D8D11A20
:206B00008269914206D2011D286907E09A4203D2994201D3012403E0011DE86802F000FD84
:206B2000204670BDA09F100010B5044602F01CFDA06B002804D0002402F022FD204610BDEA
:206B40000124F9E7F8B5054613480E46C068C068C468201D02F0A2FCE069012812D1A069E2
:206B60002B46411932462046FFF7C2FF002809D000200346014600902A46204603F070FC3F
:206B8000002803D0616A20468847F8BDFF22E53202490348FBF720F8A09F10003893100043
:206BA0003C5D100030B585B02A4D49E00198002846DB039C6069002802D0201D02F06EFC95
:206BC00004A800F0B1F8024601980300FCF621F80A06060638253506063825380298A1698E
:206BE000034641182046FFF783FF002828D0616A20468847E069012822D100200090029846
:206C0000A169002342181946204603F029FC002816D1114A11A118A00DE00298A06100288C
:206C200005D0811813462046FFF762FF08E0C52292000AA112A0FAF7CFFF204602F0D4FC2B
:206C4000002201A9286803F02FF90028AED105B030BD0000A09F1000FD0200002E2E5C6608
:206C600072656572746F735C7372635C74696D6572732E630000000078526573756C7400F4
:206C80002820707854696D65722D3E7854696D6572506572696F64496E5469636B73203E69
:206CA0002030202900000000F8B50D46064602F045FE684600F038F804460098002802D010
:206CC00003F0E4FAF8BD0F48002D10D001690968002915D00025311B2A46006802F028FD81
:206CE00003F0D4FA0028EDD102F016FDF8BDA642F1D803F0CBFA21463046FFF723FFF8BD20
:206D00000125E8E7A09F10000648416B0968002905D0416BC968C96849688162704700214C
:206D2000C943FAE7649F100070B5054603F0E8F9064E0446B068844203D200F009F80120AC
:206D400000E0002028602046B46070BDA09F1000F8B5184E20E0C068C4680568201D02F0B2
:206D60009DFB616A20468847E069012814D1A0694019A84206D924616060211DF06802F02C
:206D8000CFFB09E000200346014600902A46204603F066FB002807D0F06801680029DAD142
:206DA0003169F1603061F8BD034A044904A0FAF713FF0000A09F10006E03000038931000C6
:206DC00078526573756C740005480068401C04D0752204A10FA0FAF7FFFE72B6FEE70000F1
:206DE000B49F10002E2E5C6672656572746F735C7372635C706F727461626C655C41524D79
:206E000043435C41524D5F434D305C706F72742E630000007578437269746963616C4E6514
:206E20007374696E67203D3D207E30554C000000094CE0680168002908D00021002907D0FC
:206E40000020FFF731FFFFF7ADFEF2E70121F5E7C0680068F5E70000A09F1000F8B50446C2
:206E600002F082FB2646403605257557274624370BE0606A00280AD0384603F0B9F9002801
:206E800001D002F07FFC6D1E6DB2002DF1DC0027FF43777102F074FB02F066FB0425755716
:206EA0002046103000900BE0206900280AD0009803F09EF9002801D002F064FC6D1E6DB20F
:206EC000002DF1DC377102F05BFBF8BDF0B587B0152803D94A22C8A1D4A04CE10E2903D995
:206EE0004B22C5A1D5A046E1012A05D0002A03D04C22C1A1D4A03EE1DC4C636A9B029B0A8C
:206F00000193012383400093002A1DD00D072D0F2A0104922A0203922A0302920A0712098D
:206F200009072F042E05069205910300FBF671FE160F1C2F4557697F93A9BCD1F1E7E6E5EA
:206F4000E4E3E2E1E0DFDE2E0198984336E1206A8006C00F03D05822A7A1C5A00BE1206B01
:206F600000090001284310E001F0F8FE002801D05C2211E001F01AFF002801D05D2213E0E8
:206F8000206BF0218843049979E0206313E101F0E5FE002803D0612297A1BEA0EBE001F079
:206FA00005FF002803D0622293A1C2A0E3E0206B0F2109028843039961E001F0CFFE0028A1
:206FC00001D06622E8E701F0F1FE002801D06722EAE7206B0F210903884302994FE001F009
:206FE000BDFE002801D06B22D6E701F0DFFE002801D06C22D8E7206B0F2109048843384371
:20700000C3E7206A0006C00F03D070227AA1B1A0B1E001F083FEC00703D0712276A1B6A0F9
:20702000A9E0206B0F21090588433043ADE701F0A9FE002801D0752212E001F06FFE80072D
:2070400003D576226CA1B8A095E0206B0F2109068843069913E001F095FE002803D07A22A4
:2070600065A1BDA087E001F059FE400703D57B2261A1C1A07FE0206B059900010009084302
:2070800083E701F07FFE002801D07F22E8E701F045FE000703D5802257A1C3A06BE0606B89
:2070A00000090001284312E001F06CFE002801D08422D5E701F032FEC00603D585224EA15E
:2070C000C5A058E0606BF0218843049934E0606371E001F057FE002801D08922C0E701F025
:2070E0001DFE80060FD58A2243A10AE07DE076E06EE067E059E053E04BE044E034E01DE07D
:2071000007E0C1A037E0606B0F2109028843039912E001F037FE002801D08E22A0E701F06A
:20712000FDFD400603D58F2233A1C3A023E0606B0F210903884302990843C8E7206A000556
:20714000C00F03D093222CA1C7A014E001F0E6FD000603D5942228A1CBA00CE0606B0F212D
:20716000090488433843B2E7206AC004C00F04D0982221A1D0A0FAF72FFD606B0F21090520
:2071800088433043A3E7606B0F210906884310439DE7606B010105980909014361630AE00D
:2071A000A06B00090001284304E0A06BF0218843049912E0A06301990098084301F0B6FDD1
:2071C00007B0F0BDA06B0F2109028843039904E0A06B0F210903884302990843EAE7A06BE6
:2071E0000F21090488433843E4E7A06B0F21090588433043DEE700002E2E5C706C665C623D
:2072000078323430305C7372635C7379735F696E746567726174696F6E5C707368617265EF
:207220005C7073686172652E6300000028696F5F6E756D203C3D203231290000286964787D
:20724000203C3D203134290028656E203D3D20454E41424C4529207C7C2028656E203D3D95
:207260002044495341424C452900000000201320737973635F6370755F7370696D305F630B
:2072800073315F656E5F676574662829203D3D2030000000737973635F6370755F737069C4
:2072A0006D305F656E5F676574662829203D3D2030000000737973635F6370755F737069AB
:2072C000735F656E5F676574662829203D3D203000000000737973635F6370755F737069B5
:2072E0006D315F6373315F656E5F676574662829203D3D203000000028737973635F6370FC
:20730000755F626C655F6D61635F6462675F656E5F6765746628292026203078303129200A
:207320003D3D20300000000028737973635F6370755F626C655F6D61635F6462675F656E12
:207340005F6765746628292026203078303229203D3D203000000000737973635F637075EB
