:02000004A0005A
:200000004258323400E01200300500000DE012000000100000E00F0000000200F8B500F01C
:2000200091F80121022000F079F901242403334A6021204600F014F9314EB1692F4A0819B1
:200040006032602100F00CF900F042F9040001D100F050FA2948844201D1002500E0B56931
:200060002120C0012F18206D0007810F02290ED0012916D0800F1ED000F03CFA2148006B83
:20008000C006C00E142820D3FF218E311FE00F2000F024FA012212053846A16D00F0D8F8FC
:2000A000ECE7032000F01AFA012212053846A16D00F0C6F8E2E7032000F010FA01221205B2
:2000C0003846A16D00F0CCF8D8E7FF21B231204600F0D8F9002801D100F00CFA01200005E1
:2000E000006880F30888216D074809078A0F71690468064B2846A047F8BD000020E5120057
:20010000F0DF120080102020040010009933000010B50B4A58246143084B8918CA69984213
:2001200004D91A43CA615942401810BD0005000D120B12031043C861002010BDFF0F0000DF
:20014000000012200349012088610249FF2080398863704780031220F8B504460F46806869
:20016000FFF7D6FF0246E0684104490F08D0012903D0022906D1022603E00026022501E077
:20018000002600258104C305890F5B0F09059B03194303055B0FDB021943B3075B0D194394
:2001A000AB07DB0D194343075B0E80061943400F4000014358200F4B7843C0188161002179
:2001C0000164E1684B0249031B0F090FDB02C9010B439B1C4364216801606168816001208E
:2001E000B8408106890E8006800C0143024801621046F8BD0000122080031220F3B581B01B
:2002000002990E4E01248C4031682142FCD00B4F4037BC63A506AD0EA106890C0D4309E063
:200220000299FFF775FF0549C0310D6231682142FCD0BC630028F3D1FEBD0000C002122089
:200240000B4610B501463B2000F05CF8002010BD0B4610B501466B2000F0D4F8002010BD24
:20026000FEB50446080C029088B20025012716463F04019012E015A000680090200C6946AA
:200280004870200A8870CC703B4632460421684600F0C4F8E419F6196D1CADB2029885427B
:2002A000E9D3019800280ED008A000680090200C69464870200A8870CC7032460421684607
:2002C000019B00F0ABF80020FEBD00000300000010B50B4C206D2146C30708460A468032E7
:2002E0006030116B002B03D0C90700D0002010BDC90703D1616D526B9142F8D9004810BD7F
:2003000020E512001CB50C46012100930191134601462246012000F011F81CBD054A0023EF
:20032000936050610348C0300163034941631361704700000000302018420000FFB585B0CC
:200340000E980F99850784088807AD0F470A294E002C25D0284838183060601E70602548F8
:200360000721403041610021C1600121C160B16006990162079901622048016AC06A039018
:20038000089800910190002102946846FFF7E4FE059931610021FFF731FF0020B060306126
:2003A000002D24D0164838183060681E7060114900224031CA600120B06006980862079B96
:2003C000A000C3180B62059B3361B36A5B07FCD5B36ADB07FCD1089BC418002003E00B6AEE
:2003E0002354401CC0B2A842F9D3B260326109B0F0BD00000000302000031F00F0E412009F
:20040000000307001CB50C460221009301911346014622460120FFF791FF1CBDF0B5944660
:20042000164C85B0144A22605A1E6260134D072640356E610026EE600126EE60A660002724
:2004400003E0C25D2A627F1CFFB28F42F9D30C480169C0690390604600910190002102932D
:200460006846FFF779FE26610021FFF7C7FE0020A060206105B0F0BD0003070000003020A1
:20048000F0E41200FEB50646806D0F4601010005090C000D01252D050024019100900DE081
:2004A0000122120329460020B8476100715A81420FD1012000032D18641CA4B20198844209
:2004C000EED329460020009AB8476100715A814201D00020FEBD0120FEBD000004490A6AFB
:2004E000000712091201000F02430A627047000000201320014902200860704740102020E2
:200500000000000000000000000000004092000060003020000000000000000080A4000035
:20052000EC003020000000000000000082A40000BA7EFFFFFFFFFFFFFFFFFFFFFFFFFFFF2F
:20054000FFFFFFFFFFFFFFFFFFFFFFFFFFFFFFFFFFFFFFFFFFFFFFFFFFFFFFFFFFFFFFFFBB
:20056000FFFFFFFFFFFFFFFFFFFFFFFFFFFFFFFFFFFFFFFFFFFFFFFFFFFFFFFFFFFFFFFF9B
:20058000FFFFFFFFFFFFFFFFFFFFFFFFFFFFFFFFFFFFFFFFFFFFFFFFFFFFFFFFFFFFFFFF7B
:2005A000FFFFFFFFFFFFFFFFFFFFFFFFFFFFFFFFFFFFFFFFFFFFFFFFFFFFFFFFFFFFFFFF5B
:201000004A1018A5B843ADAFDA4F7A7186BFA18141143DEDFB16E1932730E6B3FE41910221
:20102000DA983E30E8D454791F06ACD210B5000000000000000000000000000000000000DF
:20104000000000000000000000000000000000000A0000007B000000086701000C67010027
:20106000000000000000000000000000000000000000000000000000000000000000000070
:2010800078EB11008D01100089031000690410000000000000000000000000000000000025
:2010A0000000000000000000000000008903100000000000000000004B011000890310009C
:2010C00089031000A30A1000AD0A1000C90F1000310C1000210C1000110C100089031000B5
:2010E00075121000851210009512100005131000151310008903100089031000210E100024
:20110000890310004D121000890310004600000065DB1000F9CD100091CC100071CC100002
:2011200095CF100089DF1000CDDC100059DD100005DC100021DF100055DF10003D6B1000C7
:20114000896A1000716A10002D06110059061100E9031100CD03110005041100D89D12006E
:20116000503A11005E3A110021C01000FD05100000000000C56F10000000000000000000E4
:201180000348854600F01EF90048004749C3100078EB1100084B19680868203080F309887B
:2011A000022080F31488BFF36F8F3FBCAE4608BC04BC62B618470000285C1100EFF310805D
:2011C00072B6704780F310887047EFF309800E4B1A6820381060F0C044464D4656465F4652
:2011E000F0C008B572B612F0B5F962B60CBC116808681030F0C8A046A946B246BB4680F3A8
:2012000009882038F0C81847285C1100014CA047014C2047A512100001011000204671465B
:2012200007F0D6FE0146A07D084710B5002200E0521C835C8C5CA34201D1002BF8D1D8B2FF
:20124000E1B2401A10BD000070B5104D002800D12868002414E00A4602E09E4203D0521C5E
:201260001378002BF9D1DAB2224307D0002B06D0002C04D000210170401C04E00446401CAD
:201280000678002EE7D12860204670BDF86611000321001D401E037812021A43491EF9D5A0
:2012A00010467047F7B5009C0F4600262578641C002D05D000F02EF80068405DC007F5D197
:2012C0002B2D02D02D2D18D0641E39462046029A00F024F8002F04D03968A14201D10099A1
:2012E00039607105022400290BDA4042002803DD01F02CFB0460A007FEBD01208002064357
:20130000E3E70028F8DA01F021FB04600048FEBDFFFFFF7F0048704708481100F7B582B0DB
:20132000029C00272078641C15460197302802D0002D15D015E020780127641C782804D0F8
:20134000582802D0002D09D00BE0002D01D0102D07D1002710252078641C02E0082500E0D4
:201360000A250026009610E00099012769430818020C294680B2714300908E183804864268
:2013800001D3012001902078641C294600F02CF80028E9DA0398002805D0002F01D0641E27
:2013A00000E0029C04600198002806D001F0CEFA02210160C81E05B0F0BD00993004084317
:2013C000F9E70000064C0125064E05E0E36807CC2B430C3C98471034B442F7D3FFF7D4FEFD
:2013E000CC5B1100EC5B11003A2800D23038202302469A43412A01D310463738884201D3B7
:201400000020C04370470000FEE70000401E0028FCD17047FEB53C48066845688468C1689C
:2014200002910169019141690091876937A101200FF076FF43A101200FF072FF44A101200A
:20144000029A0FF06DFF46A10120019A0FF068FF47A10120009A0FF063FF3A4648A10120EE
:201460000FF05EFF22464AA101200FF059FF32464BA101200FF054FF2A464DA101200FF0F0
:201480004FFFE41C2DD034464DA101200FF048FF50A1012022680FF043FF52A10120626877
:2014A0000FF03EFF53A10120A2680FF039FF55A10120E2680FF034FF56A1012022690FF065
:2014C0002FFF58A1012062690FF02AFF59A10120A2690FF025FF5BA10120E2690FF020FF02
:2014E000FEBD2C465BA1D0E710B5EFF308814A680548083100F0B8F8FFF78CFF00204178AA
:201500000029FCD110BD0000D09D110021212121212121212121486172644661756C7420A5
:2015200048616E646C657220697320747269676765726564212121212121212121210D0AB3
:201540000000000050726F6C6F673A0D0A00000052342020203D203078253038780D0A00C0
:2015600052352020203D203078253038780D0A0052362020203D203078253038780D0A005A
:2015800052372020203D203078253038780D0A006C722020203D203078253038780D0A00E2
:2015A0006D737020203D203078253038780D0A0070737020203D203078253038780D0A00C6
:2015C0004D535020537461636B20496E666F3A0D0A00000052302020203D20307825303894
:2015E000780D0A0052312020203D203078253038780D0A0052322020203D203078253038E2
:20160000780D0A0052332020203D203078253038780D0A0052313220203D203078253038AE
:20162000780D0A004C522020203D203078253038780D0A0050432020203D20307825303877
:20164000780D0A0078505352203D203078253038780D0A0050535020537461636B20496E6D
:20166000666F3A0D0A0000000160EFF3098343608260C460056146618761704700B57346B2
:201680000FF066FE00BD00007FB50C46032815D1002211462068FFF705FE86B200221146E8
:2016A0006068FFF7FFFD85B26A461021A06810F0DBFC6A462946304608F0E4F87FBD7FB5A0
:2016C0000C4602280ED1002211462068FFF7EAFD85B26A461021606810F0C6FC6946284612
:2016E00009F05CFB7FBD0000F8B50C4613496A461180032821D1002211462068FFF7D2FDDF
:201700000646002211466068FFF7CCFD85B269464D8000221146A068FFF7C4FD84B208F064
:201720001BFF301A80B208F0E5FC694609882A4609F0D2F8214609F0E7F8F8BDBDBC00005A
:2017400010B5012807D1002208681146FFF7AAFD80B20AF0C7FC10BD10B501280BD1002295
:2017600008681146FFF79EFD034908600A46042106200AF0B3FA10BD845F1100F8B50C465B
:2017800016496A461180032826D1002211462068FFF788FD0646002211466068FFF782FD09
:2017A00085B269464D8000221146A068FFF77AFD044608F0D1FE301A86B2E0B207F0D4FF99
:2017C0000446304608F096FC694609882A4609F083F8214609F05EF8F8BD0000BDBC0000B7
:2017E00070B50C4602280ED1002211462068FFF759FD85B2002211466068FFF753FD81B22B
:20180000284607F065FF70BD10B5012807D1002208681146FFF746FD80B209F06BFA10BD8D
:20182000F8B50C4613496A461180032821D1002211462068FFF736FD064600221146606838
:20184000FFF730FD85B269464D8000221146A068FFF728FD84B208F07FFE301A80B208F0F7
:2018600049FC694609882A4609F036F8214609F080F8F8BDBDBC000070B50C4602280ED1C6
:20188000002211462068FFF70DFD85B2002211466068FFF707FD81B2284607F073FF70BD9E
:2018A00030B59BB00C460546642101A801F76DF9114968460180022D1CD100221146206829
:2018C000FFF7F0FC0546002211466068FFF7EAFC84B269464C8008F03FFE281A80B208F06C
:2018E00009FC69460988224608F0F6FF01AA642108F0E5FF1BB030BDBDBC000010B5012823
:2019000007D1002208681146FFF7CCFC80B209F0FFF810BD30B587B00C4605461649684693
:201920008182142101F731F9022D22D1002211462068FFF7B7FC0546002211466068FFF7FF
:20194000B1FC84B26946CC8208F006FE281A80B208F0D0FB6946898A224608F0BDFF6946E7
:2019600008F0CDFF01060020490E00E0401C8142FCDC07B030BD0000BDBC000070B50C46BA
:2019800002280ED1002211462068FFF78BFC85B2002211466068FFF785FC0146284609F023
:2019A000EFFA70BD1CB501280AD100200090019008686A46062110F057FB684608F028FF95
:2019C0001CBD000030B59BB00C466421684601F7DCF8002211462068FFF764FC85B20322FA
:2019E00006A1206801F7DCF8002805D119A808F0FDFE284609F08CF81BB030BD414C4C00BE
:201A000010B501280ED1002208681146FFF74AFC84B208F0A1FD401C80B2234601220021CD
:201A20000EF07CFE10BD704738B501280FD1002208681146FFF736FC84B20EF069FE401CAC
:201A4000002180B22346012200910EF095FE38BD7CB50C46042825D1002211462068FFF7F4
:201A600021FCC5B2002211466068FFF71BFC6946087100221146A068FFF714FC694648716D
:201A800000221146E068FFF70DFC6946887108F063FD01A9401C009180B22B460122002108
:201AA0000BF0E6F87CBD0000F8B50C4616496A461180032826D1002211462068FFF7F2FB6F
:201AC0000646002211466068FFF7ECFB85B269464D8000221146A068FFF7E4FB044608F051
:201AE0003BFD301A86B2E0B207F03EFE0446304608F000FB694609882A4608F0EDFE2146BA
:201B000008F047FFF8BD0000BDBC000070B5002404E00D5D165D75401D55641C8442F8DB0F
:201B200070BD10B502F016FA10BD000010B51AF7B5FA0349042008600CF028F810BD00009E
:201B400080E200E0FFB5244D89B000242C80234817464DC86D464DC568468473C4730D2268
:201B6000401C00F7F9FF07940C9804940609354605940694761C13E0401C0880010A6A4662
:201B80009173D07304AA6946099800F05BFF2001C219134604A91020FFF7B8FF641CA4B201
:201BA0000D49AC420888E7DB401C0880010A6A469173D07304AA6946099800F043FF300148
:201BC000C2190C99103A081A134604A91030FFF79DFF0DB0F0BD0000FC6411000C41110008
:201BE0000FB4F0B589B0284D0020159F2880274A04900590069007905CCA6D465CC56A46E2
:201C00009073D07300A80D22013000F7A5FF04AA69460E9800F016FF169800240609354677
:201C2000761C13E0401C0880010A6A469173D07304AA69460E9800F005FF2001C2191346ED
:201C400004A91020FFF762FF641CA4B20E49AC420888E7DB401C0880010A6A469173D073FD
:201C600004AA69460E9800F0EDFE3001C2191699103A081A134604A91030FFF747FF09B024
:201C8000F0BC08BC04B01847FC641100FC40110010B50248006800F0A1FF10BD485D110079
:201CA00010B50248006801F06FF910BD745D1100F8B50D4EB06A00248506AD0E0127384673
:201CC000A040284204D0F0620848A10040588047641CE4B2052CF2D3A80604D52020F0621F
:201CE000034800688047F8BD00102020ECA21100905D110070B594B0054602A812900E4674
:201D00000AA81446134613900AAA02A930460EF0B1FE61880194491C09B20091002814D0FE
:201D20000020800012A90A58214600232846443100F00FF82078400041B2284610F0DFFD6D
:201D4000002804D0002014B070BD0120E9E70120F9E7FFB5AFB0399C00202056029002462C
:201D60000FA830991E46389D039010F036FF029830998000411806901FA804910746029ACB
:201D800010F02BFF17AB07AA394600960194039800F0F1FBAD1E21E02946319810F040FF42
:201DA000002878D00022500117A9411800940B4605910121891A4A0107AE871917A951181E
:201DC00096193A463046019100F04DFB009432463846019B059900F0E5FA6D1E2DB2002D6A
:201DE000DADC0021319810F01BFF002855D00020420117A901255718281A07AE400145188F
:201E0000921980193B46294606460094019200F02AFB02980090231D07AA27A8039910F080
:201E200034FE27A92A462346084610F018FE27A923460846309A10F012FE27A9221D0846A5
:201E4000029B10F084FD27A923460846049A10F006FE27A932462346084610F000FE2B46CD
:201E6000394600943246019800F09CFA234627AA17A907A801F072FD07A9029A2F9810F09C
:201E8000ACFE2F990698029A401817A910F0A5FE33B0F0BDFFE7012285E70120A8E7000026
:201EA00010B50248006800F0D1FF10BD8C5D1100F7B50E468AB0002100910191029103917F
:201EC0000491059106910791C117090F02070918002A0BD000282AD00A0912010F11801A87
:201EE0007F1C00250897C4B27F1E34E000281ED00F1100247D1E0CE02001811904AB6A4661
:201F00001020FFF703FE6A4604A9274800F09AFD641CAC42F0DB3801811904AB6A461020AC
:201F20001039FFF7F3FD204A04AB103231E080201D4A6946087404AB20322AE02801811906
:201F400004AB6A461020FFF7E1FD6A4604A9164800F078FD6D1CBD42F0DB089A00201201D6
:201F600004A9103A03E01318F35C0B54401CA042F9DB80200855002000E00855641C102C86
:201F8000FBDB094A0B4620321020FFF7BFFD04AB6A4619461020FFF7B9FD04A902480C9A5C
:201FA00000F050FD0DB0F0BDA8C7110010B58CB00021089109910A910B911CA11EC907942F
:201FC00004AC0EC41D4A0021435C5354491C1029FADB6A4608A9194800F034FD6846007835
:201FE000174A8028694603D210200AF0C9FD08E010200AF0C5FD124B04AA19461020FFF700
:2020000085FD0F480F4A00780D49802804D210200AF0B6FD0CB010BD10200AF0B1FD094BB0
:2020200004AA19461020FFF771FDF3E700000000000000000000000000000087A8C711001E
:20204000B8C71100C8C7110010B511F001F910BD10B503480078002801D100F0C1FA10BDC9
:2020600000DA1100F8B5044616480078002801D100F0B6FAFF20002569460870102C1DD278
:202080001148104E005D48701836307D0E4F8007800F7F1E02280BD0304600F0D7FA022803
:2020A0000CD33C7002226946304600F0FAFB07E03C700222304600F0C4FB01E00025ED4355
:2020C0002846F8BD00DA1100E25C110070B5074B0646187814460D46002801D100F080FA3F
:2020E00022462946304600F003F870BD00DA110070B50E4618214843134914464518E86AEE
:202100001835002804D001280FD0022805D113E0284600F09BFAA04201D2002411E0224656
:202120003146284600F0BDFB0BE0284600F08EFAA042F4D20446F2E73146284600F081FB25
:202140000446204670BD000000DA1100F7B598B007A802904020039000200C4604901899D8
:2021600015460826069105902178641C002970D0252907D002A800F045FB05980028F3DA97
:202180001BB0F0BD0122002013460227217823291BD02B2916D02D2902D0302906D101E0BF
:2021A000184300E03843641C002AEFD1002122781346303B0A2B0AD20A235943891830399C
:2021C000641CF4E704210843EDE73043EBE70023D7B22E2F0AD1641C22781746303F0A2F18
:2021E00004D20A277B439B18303BF4E76C2A0DD0682A0BD0702A48D00BDC252A4FD0582AB8
:2022000028D0632A0CD0642A4DD10EE02278641CECE7732A2AD0752A13D0782A43D119E00E
:202220002868011D296001783AE02A68171D2F601768009101900A22394602A800F011FA8E
:2022400031E02A68171D2F6017680A220091019007E02AE02A68171D2F60176810220091C3
:202260000190394602A800F061FA1CE02868011D2960076839787F1C002914D002A800F0C4
:20228000C1FA05980028F5DA0DE028680823011D296001680020102200960190E2E72521AF
:2022A00002A800F0AFFA641C67E7002800DC67E70498002804D0024607A91898FFF706FF80
:2022C00004990598401805905AE7000010B5074900204860064900238A69C8698B61CB610B
:2022E000194690470BF052FC10BD0000402013200867110010B50248006801F015F910BD3C
:20230000845D110010B50248406801F00DF910BD845D110010B50248006801F005F910BD2B
:20232000805D110070B5114D114CAB4205D00020206060600220A06006E007C40121132085
:202340008903000400F721FCBFF35F8F0120094900058860BFF34F8F25200749C00300F7FA
:2023600014FC0649064800F710FC70BD993300000CF5120000ED00E0C61D0000340A0000B3
:20238000CCF5120010B50248006801F0C9F910BD785D110010B50248406801F0C1F910BD5E
:2023A000785D1100FFB589B0129D00240E4607462C570246009401A82B1D0B9910F065FB82
:2023C00001A92A46084610F05AFB39462B4601AA084610F044FB0B992B4601AA084610F00A
:2023E0003EFB0C992B1D32460094084610F04DFB2A4601A80C9910F042FB01A92B1D3A46A8
:202400000846009410F041FB01A92B1D009408460B9A10F03AFB0B992B1D3A4600940846A2
:2024200010F033FB31462B4608460B9A10F017FB2B1D01AA394600940B9810F026FB0C9912
:202440002B4608460B9A10F00AFB0C992B1D32460094084610F019FB224601A90B9810F003
:20246000BCFB0DB0F0BDFFB599B0229D002416462C570F460094314609A82B1D199A10F070
:2024800004FB09A92A46084610F0F9FA19992B4609AA084610F0E3FA31462B4609AA0846F0
:2024A00010F0DDFA2B1D3A46009409A81C9910F037FA1C992B1D3A460094084610F0E5FA14
:2024C00000942B1D314601A8199A10F0DEFA39462B4601AA084610F0C2FA00942B1D32467C
:2024E00001A8199910F01CFA2A4630461C9910F0C6FA31462B1D01AA0846009410F0C5FA05
:2025000000942B1D324611A8199910F0BEFA1C992B4611AA084610F0A2FA1C992B1D3A46FC
:202520000094084610F0B1FA2A4609A911A810F0A6FA11A92B1D01AA0846009410F0A5FA65
:2025400000942B1D11A901A8199A10F09EFA01A92B4609AA084610F082FA3A462B1D01A9E7
:202560001046009410F091FA224611A9199810F034FB1DB0F0BDFFB589B0139C00251299FE
:2025800065571E461746002904D02A46684610F024FB05E02946684610F077F90120009061
:2025A0002A463846099910F018FB2A4630460A9910F013FB23466A460A99099801F0CEF9CC
:2025C000A420055923466A460A990998A84723466A463146384601F0C1F90DB0F0BD00006A
:2025E00010B5114C02202061606110A0A0611248E061012080020021A162206261620BA052
:20260000E162A0640D48E064A165102061652065E1650BA1E01D00F7D0FA0AA1204600F7A1
:20262000CCFA2020A07110BD00DA11005465726D696E616C00000000EC9D1100ECA1110057
:202640005254540053454747455200000269C1688A4203D88068401A801800E0501A401E06
:202660007047FFB583B00E4670420D9F0C9C0090002900DB0846012502E000F717FA6D1CE7
:2026800005998842F9DA0698A84200D90546002C04D0002E01DB780700D5641EB80702D5DD
:2026A0000698002810D0F8070ED1002C0CD0A5420AD22021641E039800F0A4F80398C0681E
:2026C0000028F2DA07B0F0BD0398C0680028F9DB002E02DA2D21009E02E0780707D52B2164
:2026E000039800F08FF80398C0680028EADBB807800F022810D1069800280DD1002C0BD014
:20270000A54209D23021641E039800F07BF80398C0680028F2DAD5E7019700943146069B6F
:20272000059A039800F002F8CCE70000FFB581B001261F4635460A9C029802E000F7A0F924
:202740006D1C03998842F9D2AF4200D93D460B98C00718D1002C16D00B98800701D5002FDE
:2027600002D0202000900CE03020FBE7641E0099019800F047F80198C06800283DDB002C89
:2027800001D0A542F2D30198C068002835DB012F01D97F1E06E03146029800F771F9039928
:2027A000884202D303984643F1E7154F3146029800F766F90146029A7143511A0291395C89
:2027C000019800F01FF80198C068002805DB3046039900F755F90600E8D10B98C0070CD034
:2027E000002C0AD0A54208D22021641E019800F009F80198C0680028F2DA05B0F0BD0000AE
:20280000633A110010B5044680686368421C934205D323681954A260E068401CE060A26855
:202820006068824209D121682069FFF74FFCA168884203D00020C043E06010BD0020A060E9
:2028400010BDF7B5054682B000200090EC6817462869A04201D9061B02E0A968201A0E1A5E
:20286000A868761E001BB04200D80646BE4200D33E46686832460019039900F76DF900983A
:20288000BF1B801900900398A41980190390A868A04200D10024EC60002FD9D1009805B058
:2028A000F0BDF7B50446C7688068E168C51B606816464018B54205D9019900F74DF9B8193C
:2028C000E060FEBD2A46019900F746F90198761B41193246606800F73FF9E660FEBDF8B51C
:2028E000040C8BB2264682B25E430D0C1046370C5843360480190021794116466E43370CFF
:2029000036048019794126466E438919F8BD000008B572B613460A46009002A101200EF0D6
:20292000FFFCFEE7417373657274696F6E204661696C65643A2066696C652025732C206C30
:20294000696E652025642C2025730A00004870470467110002E008C8121F08C1002AFAD188
:2029600070477047002001E001C1121F002AFBD170470000F0B59646154A0023146824E0C5
:20298000A600724656439D006F18F75DC25C76185740C754E7186A1CBC46B25CC75D7A40F7
:2029A0006746C2556700FF18AA1CBC46B25CC75DED1C7A406746C2556200A218755DD2187C
:2029C000865C75405B1C8554DBB2A342D8DBF0BDEC64110010B50D480BF0B9FE07F0ECF935
:2029E000002812D0012808D002280CD003280CD0212207A111A0FFF78BFF114800680BF0E7
:202A0000DAFC002801D107F01DF810BDB0D311002E2E5C2E2E5C6A6D657368424C455C7350
:202A200072635C6265617265725C6164765C6A6D6573685F6164762E63000000300000008F
:202A40004C66110030B5ADB00D461446694609F0EFFF6A462146284602F078F800202DB04A
:202A600030BD0000FFB591B0002415461E46089409940A94142224490CA80B9400F76CF869
:202A800037090094019402947F1C03940494059406940794300707D03801321A411908A802
:202AA0001039103200F758F800240CAE7F1E12E02001411904AB6A461020FFF727F8721C2A
:202AC00004A91298FFF7BEFF1022711C684600F743F8641CE4B2BC42EADB04AB6A4608A964
:202AE0001020FFF713F8721C04A91298FFF7AAFF1022711C684600F72FF811220CA9119805
:202B000000F72AF815B0F0BDE840110070B50646104615460C4608300DF060FB00280BD0EA
:202B20000680448010218180C58008300446294600F72BF8204670BD122202A109A0FFF7C0
:202B4000E7FE00002E2E5C6672656572746F735C6170705C6F736170705F7461736B2E63AF
:202B6000000000006D736720213D204E554C4C0070B5154D044669688847EA6800212046EB
:202B800090472A680221204690472A680021204690470720E1680122C00108188261207A8B
:202BA0008240521E9006800E02021043032212028918086308616A69002120469047EA6837
:202BC00001212046904770BD305D110010B50248FFF7CEFF10BD0000A85D1100F8B506461D
:202BE000C068032109024718B968002916D0CD220FA119A0FFF78CFE00240BE0A96E0120D0
:202C0000A040014204D0B8632146304604F026FD641CE4B2307AA04203D9EFE70521C9016A
:202C20004518A86E0028E7D1304604F0C9FCF8BD2E2E5C706C665C70657269706865726147
:202C40006C5C6170705F646D61635C6170705F646D61632E630000007265672D3E73746164
:202C60007475735F6572725F6C203D3D20300000F8B50C46054604F0F1FB06460C2358435B
:202C80006A682168031DD15001466B68626808315A506A68216911502D4F0021FA682846A7
:202CA00090477A690221284690473146284604F0B3FB60694104490F0DD0012908D00229FB
:202CC00004D0682223A12DA0FFF722FE022203E00022022101E000220021EB688504C705D7
:202CE000AD0F7F0F2D05BF033D4307057F0FFF023D4352021543C9010D434107490E0D4346
:202D00008106490F49000D430002C00F582105437143C81885610022026462695502520330
:202D20002D0F120FED02D2011543AD1C4564A2685A50E16881600120B04081068006890E17
:202D4000800C01430720C001181801623046F8BD305D11002E2E5C706C665C7065726970E9
:202D6000686572616C5C6170705F646D61635C6170705F646D61632E630000003000000064
:202D800010B501460148FFF773FF10BDA85D1100F3B50646C0680521C90183B0451804995A
:202DA00001248C40296C2142FCD003210902411802918C63A706A106BF0E890C0F43072124
:202DC000C9014018019004980C214843009008E004F022FB01980762286C2042FCD0029805
:202DE0008463716800980858049900283046EFD104F06EFB304604F0E3FB05B0F0BD000019
:202E000010B501460148FFF7C3FF10BDA85D110070B50D4E0546F2680021904732680221E8
:202E20002846904732680021284690476C6804E02146284606F055F82468002CF8D1726921
:202E400000212846904770BDBC3A110070B5054644680EE0E968086C227AD040C00707D0BF
:202E6000CB6C0120904083431843C864606880472468002CEED170BDC06842688A43426069
:202E80007047C06842680A4342607047C06840687047C06841607047C06802688A4302603B
:202EA0007047C06800687047C06802680A4302607047C0680160704770B50E460446EFF337
:202EC000108572B6406801F006FB002804D073220CA116A0FFF71CFD3146606801F0D4FA9A
:202EE000207A002803D00020002D03D003E001202072F9E762B6002802D0204606F0EAF857
:202F000070BD00002E2E5C706C665C7065726970686572616C5C6170705F68776563635CA0
:202F20006170705F68776563632E63003000000010B501460148FFF7BFFF10BDBC5D110026
:202F400070B50C4C054661688847E268002128469047226802212846904722680021284656
:202F60009047E8680021416001210161E2682846904770BD5C5D110010B50248FFF7E0FF7A
:202F800010BD0000BC5D1100F8B50446E1680120C8610021606801F0A6FA0546876946694C
:202FA0000721E068C90141182022E868FFF6D4FD1D21E0684901411820222869FFF6CCFD6C
:202FC0000F480121C26820469047EFF3108572B6606801F047FA606801F076FA002802D055
:202FE0000020207200E00120002D00D162B6002802D0204606F06EF83846B047F8BD000022
:203000005C5D110070B5174D04462B690179C668002298472A68022120469047AA680121B0
:2030200020469047EA68002120469047207C000181194A68E08892B2000410434860207C73
:20304000000181194A682089120C1204104348606A69002120469047EA6801212046904769
:2030600070BD0000D43A110070B5144E044633690179C56800229847F26800212046904737
:20308000207C000141194A68E08892B2000410434860207C000141194A682089120C120456
:2030A00010434860207C00012958012211432950726902212046904770BD0000D43A110080
:2030C000F8B50F4609491646CA681D46046900219047A8070649400A40182060B008401E10
:2030E000606027610120A060F8BD0000743A110000021F0010B50B46024601210148FFF713
:20310000DFFF10BDCC5D110001698A6AD207FCD18A600A610149CA6801211047743A1100BD
:2031200010B50248FFF7F0FF10BD0000CC5D1100006960307047000010B50248FFF7F8FFE8
:2031400010BD0000CC5D1100FFB581B01E4605460DF0BFF90090144F2C69FA6800212846A6
:2031600090477A69022128469047204600990DF0DFF9039820663002000E20663004000E30
:203180002066F0B2206620460B9B0A9A02990DF0DDF97A69032128469047FA680121284625
:2031A000904705B0F0BD0000743A11001CB5019300920B46024601210148FFF7C5FF1CBD89
:2031C000CC5D1100F8B5244F044679688847FA680021204690473B69E17900222046984776
:2031E000607B002809D03B69E17A0422204698473B69A17A0322204698473B69217A0122FE
:20320000204698473B69617A022220469847002505266019017B3B693246204698476D1C52
:20322000761CEDB2F6B2002DF3D02169002088602169A08848612069A17980300167206994
:203240000649803041677A69002120469047FA68012120469047F8BD743A110018420000F7
:2032600010B50B4902228A8001228A714873182008731920C8711A2008721B2048721C2024
:2032800088721D20C8720846FFF79CFF10BD0000CC5D1100FFB587B006900469119901201E
:2032A0008004814204D39B2239A144A0FFF730FB474F8D088E07B60FFA68002106989047D7
:2032C0007A6902210698904712988007470A002D2ED0404838182060681E6060072060653C
:2032E0000020E0640120E064A060099820660A982066182238496846FFF62EFC2046EC30AC
:203300000290109803900F2205980121D203C9039043084311018843059004956846FFF782
:203320002FFD08992161FFF76BFD0020A0602061002E22D0294838182060701E606000236D
:20334000E3640120A060099820660A98A9000818206608982061A06A4007FCD5A06AC007D9
:20336000FCD110980918002003E0226E0A54401CC0B2B042F9D3A3602361154C0321626963
:2033800006989047E2680121069890470BB0F0BD2E2E5C706C665C70657269706865726159
:2033A0006C5C7373695C6170705F717370695C6170705F717370692E630000006C656E674D
:2033C0007468203C203078343030303000000000743A110000021F004C3B11000002070078
:2033E0003EB51446069A002A01D0022200E00122019302920B460246009401210148FFF708
:2034000049FF3EBDCC5D1100FFB505460469254887B0C2681F46119E002128469047214812
:2034200002214269284690471F482060701E6060072060650020E0640120E064A06000206F
:2034400004E00999095C2166401CC0B2B842F8D3182216496846FFF67FFB20466030029029
:20346000109803900F2205980121D203C90390430843110188430496059000266846FFF78C
:203480007FFC08992161FFF7BBFCA6602661054C0321626928469047E2680121284690471E
:2034A0000BB0F0BD743A110000030700343B11001CB5019300920B46024601210148FFF76A
:2034C000A3FF1CBDCC5D1100FFB581B004460DF000F80F4D0746EA6826690021204690472B
:2034E0006A69022120469047394630460DF020F8304602AE0ECE0DF029F86A690321204612
:203500009047EA6801212046904705B0F0BD0000743A110010B50B46024601210148FFF743
:20352000D3FF10BDCC5D110070B5064605462036A86A006B0406240E2ED0A00606D5327BBB
:203540001AA102200DF0ECFEA86A406CE00602D528460EF08BFC200706D5327B1BA10220AC
:203560000DF0DEFEA86AC06B600706D5327B1FA102200DF0D5FEA86A006CA00706D5327BE7
:2035800022A102200DF0CCFEA86A806BE007CFD028460EF0FBFCCBE7A86A8068002804D1F0
:2035A00022480121C2682846904770BD73706925642C6D756C74695F6D6173746572206349
:2035C0006F6E74656E74696F6E0A000073706925642C52656365697665204649464F204F8C
:2035E000766572666C6F770A0000000073706925642C52656365697665204649464F20553F
:203600006E646572666C6F770A00000073706925642C5472616E736D6974204649464F2088
:203620004F766572666C6F770A000000A43A1100406BEFF3108272B6C16F090708D4C16FAA
:20364000490705D50169022399430161012000E00020002A00D162B67047406B016902224F
:203660001143016170470000F8B50646051D40682A4F840A8005800D00907968304688474B
:20368000BA68214630469047FA680021304690473B6929790122304698473B69697900221E
:2036A00030469847287A746B400709D53B69A9790322304698473B69E97902223046984750
:2036C000287A20210007002804DA8120A0602069084303E00120A060206988432061287A0A
:2036E000C1078007C00F090F0001C91C0143E16060680421084360603A680221304690471F
:203700003A68002130469047204600990FF0B6FB7A69002130469047F8BD00008C3A11000D
:20372000F8B50646406B354620350090009880680107090F012954D0022939D0042920D046
:20374000062907D00C291CD02A7E26A102200DF0E7FDEBE7746B6069C7B2B80708D527A179
:2037600001200DF0DDFD00E020686069C007FBD13807DBD525A101200DF0D2FD012028742E
:20378000D4E73046726B0AE01168436A1970016A491E0162436A5B1C4362002903D05169CE
:2037A000C907C3D0F0E7002141620FF027FBBDE73169304600290FD0426B09E0416909786D
:2037C00011604169491C41610169491E0161ADD0D16F8907AAD5F1E7002141610FF0E8FB4B
:2037E000A4E7F8BD756172743A256420756E6578706563746564206969640A007561727499
:20380000206F76657272756E0A00000075617274206672616D696E67206572726F720A0059
:20382000F8B516460F4604461D461A46314638460FF07CFB67622662A5620698E062094829
:203840000221426920469047207B800603D5204600F00AF8F8BD606B4168012211434160CB
:20386000F8BD00008C3A110030B587B004460FF04BFA0546182216496846FFF66DF9019490
:20388000606B0290606A0390206A0490207B000701D5680800E0012003F030FEFF22059987
:2038A0004007C132C00D9143014320340591207E002801D00B2000E009200F22D203C0036B
:2038C0009143014368460591FFF75AFA07B030BDEC3A1100F0B516460F46044687B01D462D
:2038E0001A46314638460FF021FB67612661A5610C98E06117480421426920469047207B17
:20390000C00621D520460FF0FFF9182212496846FFF622F9019460690290606B0390206964
:2039200020340490207E002801D00A2000E008200F220599D204C004914301436846059111
:20394000FFF71EFA07B0F0BD606B4168022211434160F7E78C3A1100043B1100F0B5164662
:2039600089B00F4604461D461A46314668460FF086F821462B466A4608460FF070F869461E
:203980002B46324608460FF06AF839462B466A4608460FF064F809B0F0BD00000249896AA2
:2039A000002900D008477047B866110038B50D460B350095487A0C46401EC3B28A7A282091
:2039C000415CA01C06F078F906F052FD062806DA607A2A46401E81B2A01C04F053F838BD09
:2039E000F0B585B030220D211048FFF78FF8032202700F2304464370C02020841B20FF21F3
:203A000060844931A18400250126A576E676F702E78404976F4663C7054903200DF080FC98
:203A2000302120460AF0A7FF05B0F0BD040D0000505B110070B50C461D462C2219460A4827
:203A4000FFF764F8002228210A540849CD802C210AF091FF204621780A3006F097F80121F6
:203A6000002006F0B5FD70BD020E0000D8C7110008B500931346024602A103200DF050FC91
:203A800008BD000064656675616C742068616E646C65722C6D736769643A20307825782C73
:203AA00020646573745F69643A20307825782C207372635F69643A20307825780A00000002
:203AC00010B500F07BFB10BD10B502A103200DF027FC10BD636861720000000010B502A170
:203AE00003200DF01DFC10BD646573630000000010B502A103200DF013FC10BD696E636C17
:203B00000000000010B5180A06F056F80021084606F05EFD10BD000003490A6B5200520880
:203B2000C00702430A6370470000102010B50C460A788EB018A103200DF0F2FB20780228C6
:203B400022D006281ED1A378E278217960790D930AAB07C3A379E279217A607A069007A81E
:203B60000EC0A37AE27A217B607B029003A80EC0A17BE07B01910090237C627C0AA1032098
:203B80000DF0CEFB0EB010BDE378A27814A103200DF0C6FBF6E70000626F6E645F696E64AF
:203BA0005F25640A000000004373726B203D2025783A25783A25783A25783A25783A257833
:203BC0003A25783A25783A25783A25783A25783A25783A25783A25783A25783A25780A0075
:203BE000417574685F25642C4C746B2050726573656E745F25640A00F8B50C460A7826A1B9
:203C000003200DF08DFB2078294C2A4F01251026002828D0072825D127A103200DF080FB72
:203C2000E18822223846FEF771FF4570072101702549044641820025FEF67CFF61196D1C94
:203C4000EDB28870102DF7D30025FEF673FF61196D1CEDB20875082DF7D3267722212046D7
:203C60000AF089FEF8BD19A103200DF059FBE18822223846FEF74AFF057045700321817038
:203C80000022C27009230371467104238371C17102722221E4E70000676170635F626F6E71
:203CA000645F7265715F696E645F25640A000000D8C71100140E0000474150435F4C544B36
:203CC0005F455843480A0000A4A60000474150435F50414952494E475F5245510A00000034
:203CE0007047000010B51A4602A103200DF018FB10BD0000636F6E6E656374696F6E5B2595
:203D0000785D20636F6E6669726D65640A00000010B503A103200DF003FB002010BD000079
:203D2000706172616D20757064617465640A000010B508780C460D2808D017DC012820D0B1
:203D4000022874D003282BD00C280ED110F014FA0246637843A103200DF0E2FA6078442867
:203D600066D0002801D105F0B1FF10BD11282FD012282DD01B28F8D141A103200DF0D0FA5A
:203D8000F1E74878002804D0F52241A149A0FEF7BFFD50A103200DF0C3FAFFF721FE10BD4C
:203DA0004EA103200DF0BCFA0A220D214F48FEF7ADFE1B210170002141704722428046229B
:203DC0008280C1804A4A02810A210AF0D4FD10BD10F0D2F90246637846A103200DF0A0FA37
:203DE00060784428F3D14A4800680AF0FFFA0400EDD0206841782A2902D02B290DD012E084
:203E0000831C02782A21012005F078FF0023414A052141480AF0B4FC05E0831C02782B2160
:203E2000002005F06BFF206807F06EFA10BD12E005F04CFFFEF67EFE5021FEF637FE0846C5
:203E400050301421FEF632FE01460023314A32480AF096FCEAE74A7830A103200DF060FAC0
:203E6000E4E70000256C643A20616476207564697265637420696E642025780A00000000BB
:203E80006372656174652074696D65720A0000002E2E5C2E2E5C6A6D657368424C455C733A
:203EA00072635C424C455C424C455F61646170742E630000706172616D2D3E737461747528
:203EC000733D3D4741505F4552525F4E4F5F4552524F520072657365740A0000616464207A
:203EE00070726F66696C650A000000001B0D0000FF010000256C643A207363616E207061BA
:203F0000737369766520696E642025780A0000004C66110055191000B0D311006761706DDB
:203F20002063616E63656C65642025780A00000010B5087803F0B8FD10BD00000149032044
:203F4000486370470010202010B503200EF054F910BD000010B50120800200F051FE09F00F
:203F60002DFD00200EF048F90A49012008700A490420086009490A68024207D0002C07D10A
:203F8000FF22023206A10FA0FEF7C2FC641CF2E710BD0000D05C110000E100E000E200E0DD
:203FA0002E2E5C706C665C6278323430305C7372635C736C6565705C7379735F736C65652F
:203FC000702E6300726564756E64616E745F74696D65000004490A68C00752085200C00F0C
:203FE00002430A60704700004000112004494A69000712091201000F02434A6170470000FF
:204000004000112004494A680005120B1203000D02434A60704700004000112004498A6896
:204020000005120B1203000D02438A6070470000400011200449CA680005120B1203000D22
:204040000243CA60704700004000112004490A690005120B1203000D02430A61704700005E
:2040600040001120014610B50748002300685A1E40680FF019FE012804D01F2203A10AA027
:20408000FEF746FC10BD0000F05B11002E2E5C6672656572746F735C6170705C626C655F13
:2040A0007461736B2E6300003000000010B50988180A05F01BFD10BD10B5E12019460622ED
:2040C0000001FEF723FD0446012020700549A180618005A103200DF023F9062120460AF016
:2040E0004AFC10BDFFFF0000626C655F706172616D5F7570646174655F7265715F68616EED
:20410000646C65720A00000010B50888472802D1888805F04BFE10BDFFB581B00C9F1C464A
:2041200015460E46880704D5002211460120FDF7A5FA280B04D0002211460120FDF79EFA0E
:20414000600804D0002211460120FDF797FA0A98400804D0002211460120FDF78FFA0B988C
:20416000400804D0002211460120FDF787FA780904D0002211460120FDF780FA0D98000909
:2041800004D0002211460120FDF778FA0198B107C007084329040843E10308430A99490352
:2041A00008430B9909030843390108430D9908430149486305B0F0BD4000102010B5012294
:2041C0000D210748FEF7A2FC01220446027005A103200DF0A5F8012120460AF0CCFB10BD77
:2041E000020D0000626C655F72657365743A636D642D3E6F7065726174696F6E203D2025AF
:2042000078200A0004490A68FF231B049A43000402430A60704700008000102010B50348F5
:204220000078022801D10DF071F910BDD05C110010B54A8A180A002105F03CFC10BD0000C3
:2042400010B50A4C207800280ED109A103200DF067F80B4910200A6B824302430A6300E02B
:2042600030BF20780228FBD110BD0000D05C1100736F66742077616B6575700A0000000044
:20428000000010201CB50E4C20600E4800680DF097F80025ED43FFF7C1FF20682A4600688E
:2042A00069460FF03DFE0128F5D1FFF7C9FF684681880029EFD0827900980AF063FBEAE70D
:2042C000F05B11007C5C110003490A68120A120202430A60704700008000102070B50C461E
:2042E0000646FF21154691310748FEF64EFC224631460548FEF630FC03482860200900015F
:20430000103080B270BD000018C61100F8B505460EF0F6FE0DF06CFC044603F0D1FB0600B1
:2043200001D0072C05D0E00700D030BF0EF0F4FEF8BD2A4FB96838680C1A012E0FD0651E68
:204340002748456000F052FD0AF098FC30BF0AF05FFC23480069002807D0012106E06D1CD4
:20436000684379680019451AEAE700211C480068012E0DD100290BD07A680021AA180B4654
:204380004B41821A994103D3EB2216A11CA023E0001B3968FEF674FB05460FF097F8B868AA
:2043A000A04204D339686943C943814201D2012400E00024396869430818094DB860686089
:2043C00000F014FD002CB1D12868B9688842ADD9FF22053203A11AA0FEF79AFAFC5B110086
:2043E000000020202E2E5C6672656572746F735C6170705C7461736B5F696E69742E63000B
:204400002875696E7436345F742977616B6575704D6174636856616C7565202B2052544383
:2044200057616B65757044656C6179203E52544356616C75654166746572536C65657000F1
:204440005254435F43555252454E54434E545F47455428293C3D7274634D61746368436F1B
:20446000756E74008188037B02684B439A184389491C5B1E438189B281800389994201D1D1
:20448000002181801046704710B50B46044600F015F8227B1946FEF65FFB204600F001F8F7
:2044A00010BD4189491C4181C188491C89B2C1800289914201D10021C1807047C288016818
:2044C000007B4243501870474089002801D0002070470120704741890089814201D1012043
:2044E00070470020704742898A4201D8002070478388026859180389994200D3C91A007B69
:204500004143881870477047704710B500220169026108460BF73CFD10BD10B508781446A9
:20452000002808D010460BF765FF002803D1012120460BF78DFF002010BD0000F8B5000B08
:20454000801CC6B20848012700683F03C519002406E00021284603F0D5FBED19641CE4B2CF
:20456000B442F6D3F8BD0000C45C110010B50446F2200AF06DFC808A001980B210BD10B52B
:204580000446F2200AF064FC007D201AC0B210BDFFB585B0044600271E46808A274901AD89
:2045A000009743C513210F233A4649020698FFF6F1FA05003ED101211C200BF7DBFD2061E0
:2045C0008775C775476087600761069909888182F10701D00121C903079A11430180A18A22
:2045E0004180F221E1820121E1811830A06014486060144A0421182003F096FC114E12A14A
:20460000361F032072680CF08BFE16480268002A01D0002000E07068306013A103200CF0C5
:204620007FFE18A1032032680CF07AFEA08A00210BF70EFF284609B0F0BD0000E8351100B7
:2046400098361100C85C1100696D6167655F73697A655F6C696D6974203D20307825780ADF
:20466000000000000CF5120063757272656E745F696D6167655F62617365203D203078257E
:20468000780A00006F74615F696D6167655F62617365203D20307825780A000070B51446AD
:2046A0000D460DF065FA012120460BF7D1FEF2200AF0CEFB29460AF0C3FB014622460248FD
:2046C0000BF74EFE70BD000005F20000F8B506461F460D46F2200AF0BBFB044638460BF72B
:2046E00089FE0146A06862684019904204D9D9220BA11748FEF70CF9022910D1A06032468E
:204700002946E06803F070FBE0684019E060A1686068814203D1032138460BF799FEF8BD4B
:204720002E2E5C69705C626C655C70726F66696C65735C62786F74615C62786F7461735CD6
:204740007372635C62786F7461732E6300000000044A1100004870476036110010B5487809
:20476000002803D00878114600F0B6F8002010BD70B515460C46F2200AF06AFB21460AF038
:204780005FFB014601232A4603480BF79DFD04700BF7D2FD70BD000003F20000F8B505469E
:2047A00017460E46F2200AF053FB044638460BF721FE0246022805D02B7A12A102200CF048
:2047C000AFFDF8BD287A002816D1A1686068814212D1E07D01280FD1A07DB0420CD128686E
:2047E000606000201749A060096801226868120389184018E060F8BD13A102200CF090FDB3
:20480000F8BD00007570646174655F72657120696E2077726F6E672073746174653A736522
:20482000727665725F73746174653A25642C7570646174655F73656374696F6E3A25640AA6
:2048400000000000C45C110062786F7461735F72785F696E666F5F75706461746520636875
:2048600065636B206661696C0A00000070B514460D46F2200AF0ECFA807D0A2301022246E6
:204880000B48C91D0BF720FD04460220FFF76EFE2080042060800020207104222946601D8B
:2048A000FEF65AF920460BF747FD002070BD0000140C000070B505460C46F2200AF0C8FA08
:2048C00029460AF0BDFA0146224602480BF748FD70BD000001F2000070B504460D46F22084
:2048E0000AF0B6FA84750121C175002181604160022128460BF7ACFD70BD10B5002904D0EF
:204900000120400200F0C4F910BDFF200130F9E704480268C90752085200C90F0A430260D1
:204920007047000040201320081A1949001F0B400105490D09040B43C101420210B54A4033
:20494000D20FD2430124D207E4061209A3431A4363001A4303024B40DB0FDB43DB07A4003D
:204960009B08A24313430322920713439A0A80029202800D0243E0148243C80F8002024362
:204980001F20C00282430F200003101810BD0000FFFF00F8FFB5B3B0284C02AE0146227818
:2049A0003046419F3F9DFEF6D7F820786278861930463499FEF6D0F86078A27886193046EB
:2049C0003599FEF6C9F8A078E278861930463699FEF6C2F8E2783C999019FEF6BDF83A464F
:2049E000912102A80CF0F4FF2FA80190042314A2202100973D980CF0FCFE10222FA94298A0
:204A0000FEF6AAF80024FF21002006F013FE2855641CE4B2102CF6D31022294627A8FEF699
:204A20009BF810222BA83E99FEF696F827AA2021409B42980CF06AFE37B0F0BDE46611006B
:204A40007072636B00000000FFB597B00D460446302102A8209F229EFEF697F81022214678
:204A600002A8FEF679F81022294606A8FEF674F810220AA81999FEF66FF812AA302102A8D0
:204A80000CF0A6FF0EAD12AC0195042313A2202100941A980CF0ADFE10220EA93846FEF601
:204AA0005BF8019504230FA2202100941A980CF0A0FE10220EA92198FEF64EF8019504237B
:204AC0000AA2202100941A980CF093FE10220EA93046FEF641F81BB0F0BD00007072736B52
:204AE000000000007072736E000000007072646B0000000070B50E4690B0154601461C4685
:204B000010226846FEF628F81022314604A8FEF623F808AB6A46202128460CF0F7FD102209
:204B2000214608A8FEF63CF8002802D0002010B070BD0120FBE7002204E0401E80B20B5C2F
:204B40009A18D2B20028F8D110467047F7B52B4D2868800008F060FC04462868002200217C
:204B60000346534307E08E00B718009EF65D6718491CDE55C9B28142F5DB521CD2B2042ADC
:204B8000EDD3002220460299FDF7F4FE01260EE00DF098FA20460DF003F8204608F05EFD91
:204BA000324620460299FDF7E5FE761CF6B2A86886422046ECDB0DF085FA20460CF0F0FF99
:204BC0002A7A20460299FDF7D5FE2A680021002013464B4307E025185E5D85006F18019D26
:204BE000401CEE55C0B29042F5DB491CC9B20429EDD3204603F0DAF9FEBD0000EC641100ED
:204C000010B50B4948600B4A104203D04A680242FCD110BD074AD243104204D04A68034642
:204C20009343FBD110BD1E2203A111A0FDF770FE00102020AAAAAAAA2E2E5C706C665C625E
:204C400078323430305C7372635C7379735F696E746567726174696F6E5C636C6B5F6761F7
:204C600074655C636C6B5F676174652E6300000030000000044903480861486103490861A5
:204C800048617047AAAAAAAA002013200090142010B50B4948610B4A104203D04A690242C2
:204CA000FCD110BD074AD243104204D04A6903469343FBD110BD672203A111A0FDF728FE6B
:204CC00000201320AAAAAAAA2E2E5C706C665C6278323430305C7372635C7379735F696E4E
:204CE000746567726174696F6E5C636C6B5F676174655C636C6B5F676174652E630000002A
:204D00003000000010B50B4908610B4A104203D00A690242FCD110BD074AD243104204D08A
:204D20000A6903469343FBD110BD302203A111A0FDF7EEFD00901420AAAAAAAA2E2E5C702E
:204D40006C665C6278323430305C7372635C7379735F696E746567726174696F6E5C636CF8
:204D60006B5F676174655C636C6B5F676174652E630000003000000010B50B4948610B4A5A
:204D8000104203D04A690242FCD110BD074AD243104204D04A6903469343FBD110BD422202
:204DA00003A111A0FDF7B4FD00901420AAAAAAAA2E2E5C706C665C6278323430305C737256
:204DC000635C7379735F696E746567726174696F6E5C636C6B5F676174655C636C6B5F67C0
:204DE0006174652E63000000300000000248806902490820086070470000202080E200E071
:204E000070B5094C1D46207000206070A270002A02D0E01CFDF6A0FEA17800232A46204688
:204E2000C91C0DF023FF70BDC49D110001700A0A42700A0C8270090EC1707047F8B50C4692
:204E4000054616460978007804F02AF807466178E87804F025F84740A178A87804F020F839
:204E60004740E178687804F01BF8474037702178687804F015F807466178287804F010F801
:204E80004740A178E87804F00BF84740E178A87804F006F8474077702178A87804F000F816
:204EA00007466178687803F0FBFF4740A178287803F0F6FF4740E178E87803F0F1FF47402D
:204EC000B7702178E87803F0EBFF07466178A87803F0E6FF4740A178687803F0E1FF4740DD
:204EE000E178287803F0DCFF4740F770F8BD000070B588B00C46694605460C72200A1101E5
:204F00000843694648721009887202AE10221946F01CFDF621FE132000902346034A0449A5
:204F20000196284604F0ECFF08B070BD43471100305F1100F0B585B00C4604281CD1002206
:204F400011462068FCF7AEF987B2002211466068FCF7A8F986B200221146A068FCF7A2F983
:204F600085B26A461021E0680DF07EF86B462A4631463846FFF7BCFF05B0F0BDFEB5064636
:204F800000210898099C1546029113281DD1617820780A07120D1043A2780909120111430D
:204FA00002AF03AA00F016F8694608722078487260788872A078C872042000902B46034A84
:204FC00003490197304604F09BFFFEBD0D471100505F110010B504F055FC10BD3EB56C468D
:204FE000217214010B0A23436C4663721209A27202AB0322019300920B46024A024904F004
:205000007FFF3EBD49471100305F110070B50C46032815D1002211462068FCF743F986B2E6
:20502000002211466068FCF73DF985B200221146A068FCF737F982B229463046FFF7CEFF4F
:2050400070BD0000FEB5064600210898099C1546029103281CD1617820780A07120D1043C4
:20506000A27809091201114300F018F8694608722078487260788872A078C87202A904202F
:20508000019100902B46034A0349304604F038FFFEBD00000D471100505F110010B504F0AA
:2050A00017FB10BD0EB56B4619720A0A5A7202AB0222019300920B46024A034904F020FF3F
:2050C0000EBD00004C471100305F110070B50C4603280ED1002211462068FCF7E3F885B23A
:2050E000002211466068FCF7DDF881B22846FFF7D9FF70BDF0B58BB006461546202102A899
:20510000109F119CFDF641FD022F1CD1617820780907090D084300216A4611722178517252
:205120006178917202AC1B210B3200F013F8C01CC1B21E2907D800912B46044A01940449CA
:20514000304604F0DDFE0BB0F0BD00000A471100505F110010B504F057FB10BD704710B52C
:20516000039B029A1978002909D19C7859782407240DD21E2143D2B2DB1CFFF7EFFF10BDA0
:20518000704710B50299039B04290DD1197800290AD19A7859781407DB78240D12091B0101
:2051A00021431A43FFF7ECFF10BD000070B588B00C46694605460C72200A11010843694623
:2051C00048721009887202AE10221946F01CFDF6C3FC132000902346034A04490196284638
:2051E00004F08EFE08B070BD46471100305F1100F0B585B00C4604281CD1002211462068C6
:20520000FCF750F887B2002211466068FCF74AF886B200221146A068FCF744F885B26A46D5
:205220001021E0680CF020FF6B462A4631463846FFF7BCFF05B0F0BDFEB5064600210898F1
:20524000099C1546029113281DD1617820780A07120D1043A27809091201114302AF03AAAD
:2052600000F016F8694608722078487260788872A078C872042000902B46034A034901973B
:20528000304604F03DFEFEBD0D471100505F110010B504F047FB10BD704700003EB50546CC
:2052A000002106981446029100280DD100F012F86946087202A90120019100902346034A75
:2052C0000349284604F01CFE3EBD000010471100505F110010B506F01FFF10BD7047000086
:2052E0003EB514460546002206980799029201280ED1087800F012F86946087202A90120AB
:20530000019100902346034A0349284604F0F8FD3EBD000010471100505F110010B506F034
:20532000FDFE10BD704710B50299039A012902D11178FFF7F7FF10BD10B50249024804F064
:20534000C7FE10BD305F110008651100F0B58FB006461546342102A8149F159CFDF615FCAB
:20536000012F12D1207869460872207802AC3121621C00F01BF8401CC0B200902B46044A23
:2053800004490194304604F0BBFD0FB0F0BD000007471100505F1100704710B5039B029AC8
:2053A00019785B1CFFF7F8FF10BD704710B5104604F008FD10BD70473EB5054606981446A6
:2053C00000280ED1029000F011F86946087202A90120019100902346024A0349284604F0C1
:2053E0008FFD3EBD13471100505F110000207047704700003EB5054606980799144601286E
:2054000010D100200290087800F012F86946087202A90120019100902346034A03492846F8
:2054200004F06EFD3EBD000013471100505F110000207047704710B50299039A012902D15F
:205440001178FFF7F7FF10BD704700003EB505460698144600280DD100F012F869460872F4
:2054600002A90120019100902346034A0349284604F046FD3EBD000016471100505F11006E
:2054800000207047704700003EB5054606980799144601280ED1087800F012F869460872FD
:2054A00002A90120019100902346034A0349284604F026FD3EBD000016471100505F11004E
:2054C00000207047704710B50299039A012902D11178FFF7F7FF10BD704700003EB505460D
:2054E0000698144600280DD100F012F86946087202A90120019100902346034A034928462D
:2055000004F0FEFC3EBD000019471100505F110000207047704700003EB505460698079967
:20552000144601280ED1087800F012F86946087202A90120019100902346034A0349284608
:2055400004F0DEFC3EBD000019471100505F110000207047704710B50299039A012902D1C9
:205560001178FFF7F7FF10BD1CB5002200920B460192024A024904F0C3FC1CBD5E471100A7
:20558000305F110070B50C4602280ED1002211462068FBF787FE85B2002211466068FBF709
:2055A00081FE81B22846FFF7DFFF70BD70470000F0B585B01D468446140A68460A9F0B9EEE
:2055C0000C9B447202728572C77206731A0A82734373C1730A0A027402AA09200B4601920B
:2055E0000090034A0349604604F08AFC05B0F0BD61471100305F1100F0B587B00C4607284A
:2056000036D1002211462068FBF74CFE80B20590002211466068FBF745FE80B20490002221
:205620001146A068FBF73EFEC0B2039000221146E068FBF737FEC7B2002211462069FBF783
:2056400031FEC6B2002211466069FBF72BFE054600221146A069FBF725FE81B2E8B2009601
:20566000029101903B46039A04990598FFF7A0FF07B0F0BD704770471CB5002200920B4671
:205680000192024A024904F03BFC1CBD64471100305F110070B50C4602280ED10022114687
:2056A0002068FBF7FFFD85B2002211466068FBF7F9FD81B22846FFF7DFFF70BD7047704704
:2056C00070477047704700003EB5054606990798144602290CD102A900F010F802A9042055
:2056E000019100902346034A0349284604F008FC3EBD00001C471100505F1100002070471A
:20570000704700003EB5054606990798144603290CD102A900F010F802A90420019100905F
:205720002346034A0349284604F0EAFB3EBD00001C471100505F1100002070477047000063
:20574000F0B585B01D460A9B84460C0ACFB25E881448E9B22D0A864268464472077281725A
:20576000C572188807D1010A684641731978017302A906200CE0010A6846417319780173D9
:205780005888010A6846C1739978817302A90820134601910090044A0449604604F0B0FB09
:2057A00005B0F0BDFFFF000067471100305F110070470000FEB50C4615496A469180052822
:2057C00025D1002211462068FBF76CFD87B2002211466068FBF766FD86B200221146A068EF
:2057E000FBF760FD6946C88000221146E068FBF759FD85B2002211462069FBF753FD83B2AA
:2058000001A800902A4631463846FFF799FFFEBDBDBC0000FFB585B00E980F9C06283CD0B4
:20582000082838D16078217807020F43E078A1780002084301906079217905020D4369469B
:205840000D80E079A17906020E4369464E8004F083FE381A80B204F04DFC3246294605F060
:205860003BF805460199079803F08CFF0146284601F089F969460872214602AC0822601CE7
:20588000FDF66AF9092000900194194A1949079B059804F035FB09B0F0BD6078217806025D
:2058A000E0780E43A17807020F436079217905020D4369460D8004F04FFE301A80B204F014
:2058C00019FC294605F000F805463946079803F059FF0146284600F0ABFF694608722146C4
:2058E00002AC0622601CFDF637F90720CBE7000031471100505F1100F8B50C4611496A4608
:20590000118004281DD1002211462068FBF7CAFC86B2002211466068FBF7C4FC85B200229F
:205920001146A068FBF7BEFC6946488000221146E068FBF7B7FC82B26B462946304601F0C4
:2059400027F9F8BDBDBC0000F8B5079B069D591C9A780C4611025E781A793143DE781202D4
:205960003243DB1C072D11D0092D0ED1657926792C0234436D462C805C791D7923022B4312
:205980006D466B806B46FFF713FFF8BD637924791B0223436C4623800023DB436380F1E7AE
:2059A000F0B585B01D460A9B84460C0ACFB25E881448E9B22D0A86426846447207728172F8
:2059C000C572188807D1010A684641731978017302A906200CE0010A684641731978017377
:2059E0005888010A6846C1739978817302A90820134601910090044A0449604604F080FAD8
:205A000005B0F0BDFFFF00006A471100305F1100FEB50C4615496A469180052825D100225B
:205A200011462068FBF73EFC87B2002211466068FBF738FC86B200221146A068FBF732FCE2
:205A40006946C88000221146E068FBF72BFC85B2002211462069FBF725FC83B201A80090BB
:205A60002A4631463846FFF79BFFFEBDBDBC0000FFB585B00E980F9C06283CD0082838D150
:205A80006078217807020F43E078A1780002084301906079217905020D4369460D80E0798C
:205AA000A17906020E4369464E8004F055FD381A80B204F01FFB3246294604F00DFF0546EC
:205AC0000199079803F05EFE0146284601F0DAF869460872214602AC0822601CFDF63CF8BB
:205AE000092000900194194A1949079B059804F007FA09B0F0BD607821780602E0780E43D7
:205B0000A17807020F436079217905020D4369460D8004F021FD301A80B204F0EBFA294635
:205B200004F0D2FE05463946079803F02BFE0146284600F0D2FE69460872214602AC062241
:205B4000601CFDF609F80720CBE7000031471100505F110030B585B00546089909981446B2
:205B600004290CD102A900F0BCFE02A90C20019100902346034A0449284604F0C1F905B0F9
:205B800030BD00001F471100505F110030B587B005460A990B9814460B2910D00D290CD1B3
:205BA00002A901F073F802A90E20019100902346064A0749284604F0A3F907B030BD02A98D
:205BC00000F091FE02A90C20EFE700001F471100505F11007047000030B587B005460A99A1
:205BE0000B981446192910D01B290CD102A900F019F802A90E20019100902346064A0749B5
:205C0000284604F07DF907B030BD02A900F008F802A90C20EFE700001F471100505F110089
:205C20000020704700207047F0B585B01D460A9B84460C0ACFB25E881448290A8642684688
:205C400044720772EDB2C1728572188807D1010A684641731978017302A906200CE0010A9A
:205C600068464173197801735888010A6846C1739978817302A90820134601910090044A4F
:205C80000449604604F03CF905B0F0BDFFFF00004F471100305F1100FFB585B00E980F9C07
:205CA000062836D0082832D16078217807020F43E078A178000208430190607921790502E8
:205CC0000D4369460D80E079A17906020E4369464E8004F041FC381A80B204F00BFA3246C9
:205CE000294604F0F9FD019900F0D2FF69460872214602AC0822601CFCF62EFF0920009034
:205D00000194164A1649079B059804F0F9F809B0F0BD607821780602E0780E43A178070261
:205D20000F436079217905020D4369460D8004F013FC301A80B204F0DDF9294604F0C4FD9E
:205D4000394600F0D2FD69460872214602AC0622601CFCF601FF0720D1E7000022471100D8
:205D6000505F1100F0B585B01D460A9B84460C0ACFB25E881448290A864268464472077206
:205D8000EDB2C1728572188807D1010A684641731978017302A906200CE0010A6846417326
:205DA000197801735888010A6846C1739978817302A90820134601910090044A044960467D
:205DC00004F09EF805B0F0BDFFFF000052471100305F11007FB55D88114E0C0AB5426D4657
:205DE000C9B26C722972198806D1090AE9721978A97202AB04210AE0090AE9721978A97247
:205E00005988090A69739978297302AB0621019300911346034A044904F072F87FBD00007F
:205E2000FFFF000055471100305F1100FFB585B00E980F9C042837D0062833D16078217807
:205E400007020F436079217905020D4369460D80E079A17906020E4369464E8004F07CFB2D
:205E6000381A80B204F046F93246294604F034FD00F012FF69460872207848726078887211
:205E800000200873C872A11C02AC0422601DFCF663FE092001940090174A1849079B05987D
:205EA00004F02EF809B0F0BD6078217806020E436079217905020D4369460D8004F04CFB57
:205EC000301A80B204F016F9294604F0FDFC00F010FD69460872207848726078887200207D
:205EE0000873C872A0784873E078887302A9072001910090D0E7000022471100505F1100E2
:205F0000FFB585B00E980F9C062836D0082832D16078217807020F43E078A1780002084356
:205F200001906079217905020D4369460D80E079A17906020E4369464E8004F00DFB381A33
:205F400080B204F0D7F83246294604F0C5FC019900F0A6FE69460872214602AC0822601C9E
:205F6000FCF6FAFD092000900194164A1649079B059803F0C5FF09B0F0BD60782178060256
:205F8000E0780E43A17807020F436079217905020D4369460D8004F0DFFA301A80B204F0A1
:205FA000A9F8294604F090FC394600F0A6FC69460872214602AC0622601CFCF6CDFD07207B
:205FC000D1E7000022471100505F1100F0B585B01D460A9B84460C0ACFB25E881448290A17
:205FE0008642684644720772EDB2C1728572188807D1010A684641731978017302A9062078
:206000000CE0010A68464173197801735888010A6846C1739978817302A908201346019192
:206020000090044A0449604603F06AFF05B0F0BDFFFF000058471100305F1100FFB585B09A
:206040000E980F9C062836D0082832D16078217807020F43E078A178000208430190607994
:20606000217905020D4369460D80E079A17906020E4369464E8004F06FFA381A80B204F0D5
:2060800039F83246294604F027FC019900F086FE69460872214602AC0822601CFCF65CFD94
:2060A000092000900194164A1649079B059803F027FF09B0F0BD607821780602E0780E43F3
:2060C000A17807020F436079217905020D4369460D8004F041FA301A80B204F00BF8294635
:2060E00004F0F2FB394600F061FC69460872214602AC0622601CFCF62FFD0720D1E7000014
:2061000022471100505F11007047F8B5079B069D591C9A780C4611025E781A793143DE787D
:2061200012023243DB1C072D11D0092D0ED1657926792C0234436D462C805C791D792302A4
:206140002B436D466B806B46FFF7DEFFF8BD637924791B0223436C4623800023DB43638085
:20616000F1E70000FFB589B01298139C14283BD0162837D16078217807020F43102205A8C9
:20618000A11CFCF6E9FCE07CA17C05020D4369460D80607D217D06020E4369464E8004F01A
:2061A000DBF9381A80B203F0A5FF3246294604F093FB05A900F0F6FD69460872207848727B
:2061C00060788872214602AC04221231601DFCF6C3FC092001940090184A19490B9B0998E8
:2061E00003F08EFE0DB0F0BD6078217806020E43102205A8A11CFCF6AFFCE07CA17C050233
:206200000D4369460D8004F0A7F9301A80B203F071FF294604F058FB05A900F0CBFB6946B6
:2062200008722078487260788872A07C4873E07C887302A9072001910090CDE72247110070
:20624000505F110030B585B00546089909981446142910D016290CD102A900F0A5FD02A95C
:206260000920019100902346064A0749284603F047FE05B030BD02A900F09EFB02A907207C
:20628000EFE7000022471100505F110030B585B00546089909981446142910D016290CD1B4
:2062A00002A900F083FD02A90920019100902346064A0749284603F023FE05B030BD02A9F5
:2062C00000F07CFB02A90720EFE7000022471100505F110070B588B00C46064669460C724D
:2062E000200A1346487202AD10221946A81CFCF633FC122000902346034A0449019530466B
:2063000003F0FEFD08B070BD6D471100305F11007FB500220C460092019202920392032824
:2063200014D111462068FAF7BDFF86B2002211466068FAF7B7FF85B26A461021A0680BF0B1
:2063400093FE6A4629463046FFF7C4FF7FBD0000FEB506460898099C1546122817D1617888
:2063600020780907090D0843A11C00F015F869460872207848726078887202A903200191AD
:2063800000902B46024A0349304603F0B9FDFEBD37471100505F110010B504F0FFFC10BDBA
:2063A0000EB56B4619720A0A5A7202AB0222019300920B46024A034903F0A2FD0EBD0000C1
:2063C00070471100305F110070B50C4602280ED1002211462068FAF765FF85B200221146CF
:2063E0006068FAF75FFF81B22846FFF7D9FF70BDFEB506460898099C1546022816D1617861
:2064000020780907090D084300F016F869460872207848726078887202A903200191009038
:206420002B46034A0349304603F06AFDFEBD000037471100505F110010B504F05BFC10BD9B
:206440001CB5002200920B460192024A024903F057FD1CBD73471100305F110070B50C463A
:2064600002280ED1002211462068FAF71BFF85B2002211466068FAF715FF81B22846FFF7F3
:20648000DFFF70BD30B58BB005460E98144600280DD102A91E2000F011F8C1B202A80091F0
:2064A00001902346034A0449284603F029FD0BB030BD000034471100505F110010B504F014
:2064C00039FC10BD704710B5039A0299FFF7FAFF10BD704710B5029A0399032A05D18A7891
:2064E0004B7811021943FFF7F4FF10BD70B588B00C46064669460C72200A1346487202ADA0
:2065000010221946A81CFCF627FB122000902346034A04490195304603F0F2FC08B070BD7B
:2065200076471100305F11007FB50C46032815D1002211462068FAF7B5FE86B20022114600
:206540006068FAF7AFFE85B26A461021A0680BF08BFD6A4629463046FFF7C8FF7FBD0000A4
:20656000FEB506460898099C1546122817D1617820780907090D0843A11C00F015F869460F
:206580000872207848726078887202A90320019100902B46024A0349304603F0B1FCFEBD93
:2065A00037471100505F110010B504F083FC10BD3EB5054606990798144600290CD102A900
:2065C00000F010F802A90120019100902346034A0349284603F094FC3EBD0000254711006A
:2065E000505F1100002070473EB5054606990798144601290CD102A900F010F802A90120B8
:20660000019100902346034A0349284603F078FC3EBD000025471100505F11000020704772
:20662000704700000EB56B4619720A0A5A7202AB0222019300920B46024A034903F060FC95
:206640000EBD000079471100305F110070B50C4602280ED1002211462068FAF723FE85B234
:20666000002211466068FAF71DFE81B22846FFF7D9FF70BD3EB50546069907981446022930
:206680000CD102A900F010F802A90420019100902346034A0349284603F032FC3EBD0000FD
:2066A0003A471100505F1100002070473EB56C4621720B0A6372A27202AB03220193009283
:2066C0000B46024A024903F01BFC3EBD7C471100305F110070B50C46032815D10022114658
:2066E0002068FAF7DFFD86B2002211466068FAF7D9FD85B200221146A068FAF7D3FDC2B218
:2067000029463046FFF7D2FF70BD00003EB5054606990798144603290CD102A900F010F81E
:2067200002A90420019100902346034A0349284603F0E6FB3EBD00003A471100505F1100D7
:2067400000207047704700001CB5002200920B460192024A024903F0D3FB1CBD7F4711003A
:20676000305F110070B50C4602280ED1002211462068FAF797FD85B2002211466068FAF70A
:2067800091FD81B22846FFF7DFFF70BD7047704770477047704770473EB505460698144649
:2067A00000280DD100F012F86946087202A90220019100902346034A0349284603F0A0FBC3
:2067C0003EBD000028471100505F110000207047704700003EB505460698144601280DD1B3
:2067E000FFF7F4FF6946087202A90220019100902346034A0349284603F082FB3EBD0000BD
:2068000028471100505F1100704710B50299039A022902D11178FFF7F7FF10BD10B5024934
:20682000024803F055FC10BD505F11000865110010B504F02FF810BDFFB58BB014981599C9
:206840001446042826D148780A780502C87815438A780602164300206A46107202AF04224E
:20686000781CFCF679F903F077FE281A80B203F041FC314604F028F87A1D1E2100F010F8BB
:20688000401DC0B2019700902346034A03490B9803F036FB0FB0F0BD3D471100505F110077
:2068A00010B504F00CF810BD70477CB5079A069C93785578190229431579D6782B02334345
:2068C0006D46AB800023DB43EB80521D641F0092A3B201AAFFF7E8FF7CBD10B504F059F88A
:2068E00010BD032070470020704710B504F00CF810BD10B504F018F810BD10B504F039F810
:2069000010BD0000FFB58BB01498159C1546042828D16078217806020E43E078A17807029A
:206920000F4303F019FE301A80B203F0E3FB394603F0CAFF0646002069460872214602ACC9
:206940000422601CFCF608F9611D304600F010F8401DC0B2019400902B46034A03490B9815
:2069600003F0CEFA0FB0F0BD2B471100505F110010B5491D03F0C3FF10BD70477CB5079A77
:20698000069C93785578190229431579D6782B0233436D46AB800023DB43EB80521D641FFB
:2069A0000092A3B201AAFFF7E8FF7CBD10B503F0D0FF10BD00207047002070470020704756
:2069C000FEB50C4615496A469180052825D1002211462068FAF766FC87B2002211466068A2
:2069E000FAF760FC86B200221146A068FAF75AFC6946C88000221146E068FAF753FC85B21B
:206A0000002211462069FAF74DFC83B201A800902A4631463846FFF707F9FEBDBDBC00003D
:206A2000F8B50C4611496A46118004281DD1002211462068FAF736FC86B200221146606805
:206A4000FAF730FC6946488000221146A068FAF729FC85B200221146E068FAF723FC82B2CF
:206A60006B4629463046FFF7B5F9F8BDBDBC0000FEB50C4615496A469180052825D1002245
:206A800011462068FAF70EFC87B2002211466068FAF708FC86B200221146A068FAF702FC05
:206AA0006946C88000221146E068FAF7FBFB85B2002211462069FAF7F5FB83B201A80090AF
:206AC0002A4631463846FFF74DF9FEBDBDBC0000F8B50C4611496A46118004281DD100220B
:206AE00011462068FAF7DEFB86B2002211466068FAF7D8FB85B200221146A068FAF7D2FB3A
:206B00006946488000221146E068FAF7CBFB82B26B462946304600F0C7F8F8BDBDBC0000DF
:206B2000FEB50C4615496A469180052825D1002211462068FAF7B6FB87B2002211466068F1
:206B4000FAF7B0FB86B200221146A068FAF7AAFB6946C88000221146E068FAF7A3FB85B2CC
:206B6000002211462069FAF79DFB83B201A800902A4631463846FFF729FAFEBDBDBC00006A
:206B800070477047704710B503F084FE10BD00007FB50D0A6C46657221721988090AE1725B
:206BA0001978A1725988090A61739978217302AB0621019300911346024A034903F0A0F94E
:206BC0007FBD000082471100305F1100FFB58BB01498159906282ED148780A7806021643E6
:206BE000C8788A78040214436A46148048790A79050215436A4655800020107202AF06220F
:206C0000781CFBF6A9FF03F0A7FC301A80B203F071FA2A46214603F05FFEFA1D1E2100F06A
:206C200011F8C01DC0B201970090044A04490D9B0B9803F065F90FB0F0BD00004047110099
:206C4000505F110010B503F03AFE10BDFEB5099B089D5A1C144699785A7809021E79114312
:206C6000DF7832023A436E46B2806279247912022243F280DB1DED1F0093ABB201AAFFF72E
:206C800013FEFEBD10B503F084FE10BD0020704710B503F039FE10BD10B503F045FE10BDC6
:206CA00010B503F066FE10BD7FB50D0A6C46657221721988090AE1721978A1725988090AE5
:206CC00061739978217302AB0621019300911346024A034903F014F97FBD00005B47110062
:206CE000305F1100FFB58BB01498159906282DD148780A7806021643C8788A78040214433D
:206D00006A46148048790A79050215436A4655800020107202AF0622781CFBF61DFF03F0F8
:206D20001BFC301A80B203F0E5F92A46214603F0D3FDF91D00F010F8C01DC0B201970090D0
:206D4000034A04490D9B0B9803F0DAF80FB0F0BD2E471100505F110010B5C91D03F0CFFD6D
:206D600010BD7047FEB5099B089D5A1C144699785A7809021E791143DF7832023A436E462E
:206D8000B2806279247912022243F280DB1DED1F0093ABB201AAFFF7E4FFFEBD10B503F073
:206DA000D8FD10BD002070470020704700207047F0B505468FB00C46032218A0FBF6F0FE6F
:206DC000002803D12246294605F064FB14A12046FAF73AFA134E0546002420018019416819
:206DE0002846FAF722FA002804D0641C412CF4D30FB0F0BD00256F460BA10020FAF724FA47
:206E0000A9007850002802D06D1C0F2DF4DB20013258694628469047EAE7000041542B0043
:206E20003A000000885F11002C00000002480068002800D001207047105D11001CB5002300
:206E400000930824024B0194DB790AF06CFC1CBDE466110070B500F0D9FE2A4D0446E869A9
:206E600010218843E8611A202749C0430860FDF765F8FDF769F800F031FF01200BF06AF973
:206E800028680126C008C00030432860002009F0A3FD1E49641C0868A042FCD3E869012184
:206EA000090488430843E86100200BF0C9F9A868400840003043A86015490869042210432E
:206EC000086102F00FFA134C134DA168884321690843286002F0E6F9A1688843E168084325
:206EE0006860286802F024FA686802F0E3F909F06BF9044960684031486102200BF02AF9C0
:206F000070BD00000010202080E100E00000202000ED00E0145D1100D85C110070B50D4667
:206F20000646002403E0FBF605FE3055641CAC42F9D3012070BD70B506460D460069890047
:206F40000C186068002803D009F722F800206060B18A28020843002109F77AFA70BD10B519
:206F6000808A09020843012109F772FA10BD70B5056906460024A00040194068002801D0B9
:206F800009F706F8641CE4B20A2CF4D300203061284608F7FDFF70BDFFB581B00F460398C4
:206FA00009F728FA05460398060A152007F050FF040005D11948049A036E03200399984756
:206FC000012D09D0002D04D089223146204600F029F8002005B0F0BDB000051968680028C8
:206FE000F2D101213C2009F7C5F83C216860FBF6CCFD3878002806D03A22B91C6868FBF614
:20700000ABFD0022E1E7064A3146204607F0FCFE0221039809F71CFADBE700008C0010008E
:207020000A180000F8B514460E46074608F05CF805463146384607F003FF01463C232A46EB
:207040000F4809F741F9054604702046B100CC19002808D0606808F79BFF00206060284635
:2070600009F76AF9F8BD3A22A81C6168FBF674FD3146384608F038F8012109F7E9F9EEE7B7
:2070800001150000F8B505461F4614460121382009F770F8064628611149F80700D00846F5
:2070A00020433080A88A084370801520E8820A20E88130462C30A8600A4800242746686099
:2070C000A00080194760A98A20020843002109F7BFF9641CE4B20A2CF2D30020F8BD000071
:2070E00000800000FC36110000487047A0361100FFB581B01646104609F77CF90746350A4F
:20710000152007F0A5FE040005D11A483146036E0320049A9847012F0CD0002F07D089231E
:2071200000200090144A2946204607F029FE002005B0F0BDA800031959680029EFD00298C5
:207140000078092814D206224243921D8A5A002A0ED02031887600925868294643880288F3
:20716000204607F0A7FF0321304609F771F9DEE78223D5E78C0010000315000002460020C6
:20718000802901D98D207047062A06D0072A07D0082AF8D10729F5D170470829F2D17047A7
:2071A0000629EFD37047704730B502460120002103241346CB40DB0704D04D0023466D1C81
:2071C000AB401843491CC9B20929F2D330BD704770B50546046904E0201DFFF6E5F808F71F
:2071E000D7FE6068002808D000210029F4D000202861204608F7CCFE70BD0121F5E730B5FC
:207200000446A2890920521C93B2E48900222546D540ED0706D05D1C8D4201D1104630BDE7
:207220009B1C9BB2521CD2B2092AF0D330BD0000FFB585B00E9F04461D463888FFF7B4FFC9
:20724000049028461E210840A18A1A4A00230191009302920390132304AA17490698FCF6D3
:2072600099FC060022D10121142008F783FF20610699098881813988C181E90701D0012110
:20728000C903079A11430180A18A41801421E1820121E18101461231A1600849001D6160EA
:2072A000FEF6D5FFA08A002109F7D2F8304609B0F0BD0000043711000A180000C43711009B
:2072C000004870479C371100FFB581B00C46142007F0BEFD21780746092931D200F080F82B
:2072E00000282BD061782078FFF748FF060028D17D680DE028792178884208D1002229467E
:20730000381DFEF619FF284608F742FE02E02D68002DEFD160780121083008F72BFF054655
:2073200020782871607868716278A11CA81DFBF613FC2946381DFFF641F802E0822600E0B3
:20734000812602230648039A049908F7BDFF21780170467008F7F0FF002005B0F0BD0000EE
