:02000004A0005A
:200000004258323400E01200380500000DE012000000100000E00F0000000200F8B500F014
:2000200095F80121022000F07DF901242403354A6021204600F018F9334EB169314A08199F
:200040006032602100F010F900F046F9040001D100F054FA2B48844201D1002500E0B56923
:20006000A16DE06D401A21212818C9014718206D0007810F02290ED0012916D0800F1ED066
:2000800000F03CFA2148006BC006C00E142820D3FF218E311FE00F2000F024FA012212054E
:2000A0003846A16D00F0D8F8ECE7032000F01AFA012212053846A16D00F0C6F8E2E703209A
:2000C00000F010FA012212053846A16D00F0CCF8D8E7FF21B231204600F0D8F9002801D1C9
:2000E00000F00CFA01200005006880F30888216D074809078A0F71690468064B2846A04707
:20010000F8BD000028E51200F0DF120080102020040010009933000010B50B4A5824614340
:20012000084B8918CA69984204D91A43CA615942401810BD0005000D120B12031043C861D9
:20014000002010BDFF0F0000000012200349012088610249FF2080398863704780031220A2
:20016000F8B504460F468068FFF7D6FF0246E0684104490F08D0012903D0022906D1022654
:2001800003E00026022501E0002600258104C305890F5B0F09059B03194303055B0FDB025D
:2001A0001943B3075B0D1943AB07DB0D194343075B0E80061943400F4000014358200F4B35
:2001C0007843C018816100210164E1684B0249031B0F090FDB02C9010B439B1C4364216824
:2001E0000160616881600120B8408106890E8006800C0143024801621046F8BD000012207D
:2002000080031220F3B581B002990E4E01248C4031682142FCD00B4F4037BC63A506AD0E4A
:20022000A106890C0D4309E00299FFF775FF0549C0310D6231682142FCD0BC630028F3D1C3
:20024000FEBD0000C00212200B4610B501463B2000F05CF8002010BD0B4610B501466B201E
:2002600000F0D4F8002010BDFEB50446080C029088B20025012716463F04019012E015A0D4
:2002800000680090200C69464870200A8870CC703B4632460421684600F0C4F8E419F619F1
:2002A0006D1CADB202988542E9D3019800280ED008A000680090200C69464870200A887045
:2002C000CC70324604216846019B00F0ABF80020FEBD00000300000010B50B4C206D21467A
:2002E000C30708460A4680326030116B002B03D0C90700D0002010BDC90703D1616D526B1E
:200300009142F8D9004810BD28E512001CB50C46012100930191134601462246012000F082
:2003200011F81CBD054A0023936050610348C03001630349416313617047000000003020BB
:2003400018420000FFB585B00E980F99850784088807AD0F470A294E002C25D02848381800
:200360003060601E706025480721403041610021C1600121C160B16006990162079901625D
:200380002048016AC06A0390089800910190002102946846FFF7E4FE059931610021FFF787
:2003A00031FF0020B0603061002D24D0164838183060681E7060114900224031CA6001205F
:2003C000B06006980862079BA000C3180B62059B3361B36A5B07FCD5B36ADB07FCD1089B88
:2003E000C418002003E00B6A2354401CC0B2A842F9D3B260326109B0F0BD00000000302053
:2004000000031F00F8E41200000307001CB50C460221009301911346014622460120FFF738
:2004200091FF1CBDF0B59446164C85B0144A22605A1E6260134D072640356E610026EE60DE
:200440000126EE60A660002703E0C25D2A627F1CFFB28F42F9D30C480169C0690390604663
:2004600000910190002102936846FFF779FE26610021FFF7C7FE0020A060206105B0F0BD23
:200480000003070000003020F8E41200FEB50646806D0F4601010005090C000D01252D0552
:2004A0000024019100900DE00122120329460020B8476100715A81420FD1012000032D180B
:2004C000641CA4B201988442EED329460020009AB8476100715A814201D00020FEBD012042
:2004E000FEBD000004490A6A000712091201000F02430A6270470000002013200149022015
:200500000860704740102020000000000000000000000000409200006000302000000000AA
:200520000000000080A40000EC003020000000000000000082A400009842FFFFFFFFFFFF61
:20054000FFFFFFFFFFFFFFFFFFFFFFFFFFFFFFFFFFFFFFFFFFFFFFFFFFFFFFFFFFFFFFFFBB
:20056000FFFFFFFFFFFFFFFFFFFFFFFFFFFFFFFFFFFFFFFFFFFFFFFFFFFFFFFFFFFFFFFF9B
:20058000FFFFFFFFFFFFFFFFFFFFFFFFFFFFFFFFFFFFFFFFFFFFFFFFFFFFFFFFFFFFFFFF7B
:2005A000FFFFFFFFFFFFFFFFFFFFFFFFFFFFFFFFFFFFFFFFFFFFFFFFFFFFFFFFFFFFFFFF5B
:20100000AC98619956B6DFCDAAAC34DEC12F394C7F379E4EC719DDF72722570A34491BD68F
:20102000D824DFC85827567CF3EC857CF376CF53855A5D070000000000000000000000000E
:20104000000000000000000000000000000000000A0000007B000000FC9B0100009C0100D6
:20106000000000000000000000000000000000000000000000000000000000000000000070
:2010800070470000881612008D01100005081000E508100000000000000000000000000031
:2010A000000000000000000000000000000000000508100000000000000000004B011000B7
:2010C0000508100005081000F5171000FD171000491D100081191000711910006119100052
:2010E00005081000F51F100005201000152010008520100095201000050810000508100081
:20110000711B100005081000CD1F100005081000460000001509110075FA10000DF91000F3
:20112000EDF8100011FC1000390D11007D0A1100090B1100B5091100D10C1100050D1100A9
:2011400065861000B18510009985100095341100C134110051321100353211006D32110084
:20116000D89D1200E06D1100EE6D1100D1EB1000790A100000000000098B1000000000001B
:20118000000000000348854600F0EAFA00480047DDEF100088161200084B196808682030B6
:2011A00080F30988022080F31488BFF36F8F3FBCAE4608BC04BC62B6184700005494110067
:2011C000EFF3108072B6704780F310887047EFF309800E4B1A6820381060F0C044464D4621
:2011E00056465F46F0C008B572B615F0C3FA62B60CBC116808681030F0C8A046A946B246C9
:20120000BB4680F309882038F0C8184754941100014CA047014C2047252010000101100012
:201220002046714609F0D0FC0146A07D0847421C0178401C0029FBD1801A704710B50022B9
:2012400000E0521C835C8C5CA34201D1002BF8D1D8B2E1B2401A10BD70B5104D002800D10F
:201260002868002414E00A4602E09E4203D0521C1378002BF9D1DAB2224307D0002B06D02A
:20128000002C04D000210170401C04E00446401C0678002EE7D12860204670BDEC9B1100BF
:2012A0000321001D401E037812021A43491EF9D510467047F7B5009C0F4600262578641C81
:2012C000002D05D000F02EF80068405DC007F5D12B2D02D02D2D18D0641E39462046029AF5
:2012E00000F024F8002F04D03968A14201D1009939607105022400290BDA4042002803DD23
:2013000002F010FA0460A007FEBD012080020643E3E70028F8DA02F005FA04600048FEBD03
:20132000FFFFFF7F00487047EC861100F7B582B0029C00272078641C15460197302802D0D7
:20134000002D15D015E020780127641C782804D0582802D0002D09D00BE0002D01D0102D54
:2013600007D1002710252078641C02E0082500E00A250026009610E00099012769430818CA
:20138000020C294680B2714300908E183804864201D3012001902078641C294600F005FAB4
:2013A0000028E9DA0398002805D0002F01D0641E00E0029C04600198002806D002F0B2F912
:2013C00002210160C81E05B0F0BD009930040843F9E70000F0B507460846584087B0C00F6B
:2013E000049048000E46590040084908BC1A884105D2384631461E4617460B4602465800AE
:20140000400810434CD0300D039040055900400D490D0590401A0290402872DA1803012192
:20142000000B09050843019004980092002805D00199524200208841009201900298402157
:201440000A1A0199009801F7C3FB05460C466B4607CB00F097F9C0197141039A0E0D00237A
:20146000D71756401A467A40164344D0049A002A2DD0029A012A039A15DC1205C01A914184
:2014800001263605001C7141D20F059ED2070093019202962A46234600F0A3F907B0F0BD38
:2014A00038463146FAE71605224A0F46B218C01AB74101210905001C4F4100187F411146D3
:2014C00018187941E20F10436D19644113E0E2076D0815436408C2071443039A01261205A3
:2014E000C01A91413605001C7141CE07400830434908C01851412A46234600F065F9CDE711
:20150000FFE7049801224000C117121A00238B4104983146C417381AA141EEE730B40124F3
:20152000E407634030BC55E730B40124E407614030BC4FE70000E0FFF0B51FB488B00B990B
:201540000998002448400999C00F490049080991C0070B990090490049080B910999089826
:20156000A64608431CD00B990A98084318D0099801244000420D4800410D09982405000317
:20158000000B204309900B980003000B20430B9050181C494018002201901446104605E028
:2015A000002001460DB0F0BD032801DA034600E003239C46C11A0AAE0AE05F0008ADED5B4A
:2015C0004F00F75B7D430027AA187C41491C5B1E6145F2DD410004AB5A522104120C0A4385
:2015E000240C401C0828DFDB019802900099704601910090059B049A0799069800F0F1F884
:20160000D0E700000DFCFFFFF0B50C465C4085B0E40FE40703944C000026640859009446BE
:20162000490802460296224321D062460A431ED06200570D4A000E032303550D012402462A
:201640002C492405781B1B0B360B401823432643614600901C46501AB44103D30098401C09
:20166000009002E0921800985B41002803DA0020014605B0F0BD00200121090507468646E3
:2016800011E064461D46141BB54106D36546521BB341744607430C43A646CD074008490896
:2016A000284392185B4105460D43EAD11046184313D06046194650407140084306D0604682
:2016C000101AB34106D20122002306E000220123DB0702E00122D2435310009874460105EB
:2016E000381C6141029C039D0019694100F06CF8BFE70000FD0300004A0009030123090B6B
:201700001B0519430A4B10B5520D9A4202DA0020014610BD064B34339A4203DC9A1A01F7C9
:2017200067FA10BD034BD21801F752FA10BD0000FF030000CDFBFFFF10B5002904DB012478
:20174000E40740428C412146002B04DB1C460123DB075242A341994200D1904210BD0000B3
:20176000064C0125064E05E0E36807CC2B430C3C98471034B442F7D3FFF708FDF89311006A
:201780001894110010B5202A06DBCB170846203A1041C1170B4306E00B461341D0402024BC
:2017A000A21A91400843194610BD3A2800D23038202302469A43412A01D310463738884253
:2017C00001D30020C043704710B5002B08DA0024401C614192185B411A4301D1400840006A
:2017E00010BDF0B51FB482B005460C0003D0084601F04AFF02E001F047FF2030024600907F
:201800002146284601F7E4F9049B059A04460F4618431143084314D0184610431BD000982F
:2018200040210A1A1846059901F7E2F905460E46009A0599049801F7CBF9084305D00120E4
:2018400004E02046394607B0F0BD0020C11705430E432C43374300990E986305401A790562
:20186000E40A00220C43FD0A0A3002D500200146E9E70105101969410C9C0D9D00196941CC
:20188000FFF7A2FFDFE70000FEE70000401E0028FCD17047FEB53C48066845688468C16895
:2018A00002910169019141690091876937A1012012F06CFC43A1012012F068FC44A101209A
:2018C000029A12F063FC46A10120019A12F05EFC47A10120009A12F059FC3A4648A1012088
:2018E00012F054FC22464AA1012012F04FFC32464BA1012012F04AFC2A464DA1012012F087
:2019000045FCE41C2DD034464DA1012012F03EFC50A10120226812F039FC52A10120626813
:2019200012F034FC53A10120A26812F02FFC55A10120E26812F02AFC56A10120226912F0FB
:2019400025FC58A10120626912F020FC59A10120A26912F01BFC5BA10120E26912F016FCA8
:20196000FEBD2C465BA1D0E710B5EFF308814A680548083100F0B8F8FFF78CFF0020417825
:201980000029FCD110BD0000C4D2110021212121212121212121486172644661756C7420F8
:2019A00048616E646C657220697320747269676765726564212121212121212121210D0A2F
:2019C0000000000050726F6C6F673A0D0A00000052342020203D203078253038780D0A003C
:2019E00052352020203D203078253038780D0A0052362020203D203078253038780D0A00D6
:201A000052372020203D203078253038780D0A006C722020203D203078253038780D0A005D
:201A20006D737020203D203078253038780D0A0070737020203D203078253038780D0A0041
:201A40004D535020537461636B20496E666F3A0D0A00000052302020203D2030782530380F
:201A6000780D0A0052312020203D203078253038780D0A0052322020203D2030782530385D
:201A8000780D0A0052332020203D203078253038780D0A0052313220203D2030782530382A
:201AA000780D0A004C522020203D203078253038780D0A0050432020203D203078253038F3
:201AC000780D0A0078505352203D203078253038780D0A0050535020537461636B20496EE9
:201AE000666F3A0D0A0000000160EFF3098343608260C460056146618761704700B573462E
:201B000012F05CFB00BD000010B5012805D000280FD00BA001F05AFF10BD0022086811463A
:201B2000FFF7C8FB84B220460CF07EFE21460CA003E00AF0DFFC01460FA001F047FF10BD13
:201B40004552524F523A696E76616C69642061726775656D656E74206E756D210A00000057
:201B60004F4B3A736574206D6573682061646472203D2025640A00004F4B3A72656164201D
:201B80006D6573682061646472203D2025640A0070B50C46002186B004910591042808D0D0
:201BA00003282DD000284AD02AA001F00FFF06B070BD30A12068FFF741FB002801D02EA0BD
:201BC000F3E7002211466068FFF774FB85B200221146A068FFF76EFB86B26A461021E0680D
:201BE00013F084F96A463146284609F0CDFC00281ED1334627A26946102001F0AFFED6E77B
:201C00002DA12068FFF71AFB0028D8D1002211466068FFF74FFB85B200221146A068FFF763
:201C200049FB84B22146284609F0D4FB002801D023A0BAE7214629A001F0C8FEB7E704A9FE
:201C400006200BF0ABF8002801D02BA0ADE730A0ABE700004552524F523A696E76616C69BF
:201C6000642061726775656D656E74206E756D210A000000414444004552524F523A696E19
:201C800076616C69642061726775656D656E74210A0000004F4B3A616464206170706B65F3
:201CA0007920696E646578203D2025642C206170706B6579203D200044454C455445000067
:201CC0004552524F523A696E76616C6964206B657920696E646578210A0000004F4B3A6455
:201CE000656C657465206170706B657920696E646578203D202564004552524F523A6E6F4C
:201D00002076616C6964206170706B6579210A004552524F523A6E6F2076616C6964206E5F
:201D200065746B6579210A0010B5012806D1002208681146FFF7BEFA0CF080FE10BD0000B3
:201D4000F0B50C46002185B06A4E01910291042805D003285CD0002876D067A04FE000223B
:201D600011466068FFF7A6FA85B200221146A068FFF7A0FA010C6A4611800AD086B2568030
:201D800028460AF0A7F96946098832460AF0B2FD08E087B21780568028460AF09BF93946D1
:201DA0000AF0A0FD064600221146E068FFF782FA85B259A12068FFF741FA002807D057A12C
:201DC0002068FFF73BFA00280FD056A017E0E8B209F04CFB014630460AF06AFD002801D06B
:201DE00057A00CE029465EA00FE0E8B209F03EFB014630460AF0DBFD002804D060A001F05C
:201E0000E5FD05B0F0BD294665A001F0DFFDF8E7002211466068FFF74DFA80B203900022F9
:201E20001146A068FFF746FA0546000C694608800BD0AEB24E8003980AF04CF9694609885C
:201E400032460AF057FD09E01BE0AFB20F804E8003980AF03FF939460AF044FD064658A14E
:201E60002068FFF7EBF90028CBD101AA062130460AF033FD68468288294652A001F0A6FD1D
:201E8000BFE7002501200AF03DF9AAB259490AF031FD00282AD001AA06210AF01EFD0746AA
:201EA000002421E0381B032801A8015D09DA001940780007000D0A1801214FA001F086FD09
:201EC00014E0061970780007000D0A1801214AA001F07CFD7078B1780009090142180121BB
:201EE00045A001F073FDE41CBC42DBDB6D1C0A2DC8DB86E7FFFF00004552524F523A696E7F
:201F000076616C69642061726775656D656E74206E756D210A0000004144440044454C454B
:201F2000544500004552524F523A696E76616C69642061726775656D656E74210A0000004A
:201F40004552524F523A63616E6E27742062696E6420746865206170706B65790A000000B0
:201F60004F4B3A2062696E64206170706B657920696E646578203D202564200A00000000BE
:201F80004552524F523A63616E6E277420756E62696E6420746865206170706B65790A008D
:201FA0004F4B3A20756E62696E64206170706B657920696E646578203D202564200A00009B
:201FC000474554004F4B3A206D6F64656C206964202578206765742062696E6420617070F4
:201FE0006B657920696E646578203D202564200A00000000BDBC00004F4B3A6D6F64656CD2
:20200000206964203D20307825303878202C6170706B657920696E646578203D2025642075
:202020000A0000007CB500240E46054600946946062001940AF0B2FE002809D068460478CF
:20204000012D09D0002D14D00EA001F0BFFC7CBD14A001F0BBFCF3E7002211463068FFF798
:2020600029F90546014620460AF0BEFF294613A004E020460AF09AFD014617A001F0A6FC01
:202080007CBD00004552524F523A696E76616C69642061726775656D656E74206E756D21E3
:2020A0000A0000004552524F523A6E6F2076616C6964206E65746B6579210A004F4B3A7323
:2020C00065742069765F696E646578206973203A307825780A0000004F4B3A72656164207C
:2020E00069765F696E646578203D20307825780A000000001CB50C4600210091019101282E
:2021000005D0002817D010A001F060FC1CBD2068FFF78DF80C2801D013A0F5E76A46062197
:20212000206812F0E3FE68460AF080FB15A0216801F04CFC1CBD68460AF066FB16A2694651
:20214000062001F00BFC1CBD4552524F523A696E76616C69642061726775656D656E7420D5
:202160006E756D210A0000004552524F523A696E76616C6964206D6163206C656E67746846
:20218000210A00004F4B3A736574206D6163203D2025730A000000004F4B3A7265616420F4
:2021A0006D6163203D20000030B50C46002187B004910591032808D0022820D0002834D06E
:2021C00026A001F003FC07B030BD2CA12068FFF735F8002801D02AA0F3E70022114660684F
:2021E000FFF768F885B26A461021A06812F07EFE694628460AF006FE2B4628A229E030A1BB
:202200002068FFF71BF80028E5D1002211466068FFF750F884B220460AF07AFD002812D1B8
:20222000214629A001F0D2FBCDE704A906200AF0B5FD002809D06846048A694620460AF031
:2022400087FD002803D028A0BBE72FA0B9E7234633A26946102001F081FBB4E74552524FC9
:20226000523A696E76616C69642061726775656D656E74206E756D210A000000414444009F
:202280004552524F523A696E76616C69642061726775656D656E74210A0000004F4B3A208C
:2022A000736574206E65746B657920696E646578203D25642C6E65746B6579203D200000CB
:2022C00044454C45544500004F4B3A64656C657465206E65746B657920696E646578203DBF
:2022E000202564200A0000004552524F523A696E76616C6964206E65746B657920696E6455
:202300006578210A000000004552524F523A6E6F2076616C6964206E65746B6579210A0009
:202320004F4B3A72656164206E65746B657920696E646578203D2025642C6E65746B657983
:20234000203D2000F0B500218BB007910391049101910291089109910A91002804D036A079
:2023600001F034FB0BB0F0BD05A80AF04DFA3AA205A9062001F0F2FA0AF0BCF8014639A08C
:2023800001F024FB07980AF011FC014639A001F01DFB0CF0A3F901463DA001F017FB01A9F5
:2023A00007980AF0D5FC3FA201A91020079B01F0D5FA08AA0A21079809F0A8F80646002411
:2023C00036E0301B032808A8015D10DA001940780007000D0C182146079809F055F8011D06
:2023E000009439A21020079B01F0B8FABAE7051968780007000D0F183946079809F044F8CC
:20240000011D009730A21020079B01F0A7FA6878A9780009090145182946079809F034F82D
:20242000011D009528A21020079B01F097FAE41CB442C6DB96E700004552524F523A696E1C
:2024400076616C69642061726775656D656E74206E756D210A0000004A6D657368206D6104
:20246000633A00004A6D65736820616464723A2025640A004A6D6573682069765F696E6490
:202480006578203D203078253038780A000000004A6D65736820736571203D203078257809
:2024A0000A0000004A6D657368206E65746B65795F696E646578203D2025642C6E65746B10
:2024C0006579203D200000006E65746B65795F696E646578203D2025642C6170706B6579DE
:2024E0005F696E646578203D2025642C4A6D657368206170706B6579203D200010B5012827
:2025000012D1002208681146FEF7D4FE84B2214606A001F05BFA09F0EDFF401C80B22346C3
:202520000122002110F0EEFF10BD0000736574207265616C636F6D6D20636F6E666967202B
:20254000616464722069732025640A0010B510F0D3FF014601A001F039FA10BD6765742061
:202560007265616C636F6D6D20636F6E66696720616464722069732025640A0010B501281D
:2025800008D1002208681146FEF794FE014602A001F01CFA10BD0000736574207265616C25
:2025A000636F6D6D20636F6E6669672062617564203D2025640A0000F0B5074685B00020C6
:2025C000019002900C46002248681146FEF772FE80B2039000221146A068FEF76BFE054609
:2025E000000C694608800AD0AEB24E80039809F071FD6946098832460AF07CF90AE0AEB21D
:2026000000200E80C0434880039809F063FD31460AF068F90646042F03D0032F36D024A02D
:202620002BE000221146E068FEF744FE85B22848854202D827A001F0C9F92FA12068FEF788
:20264000FDFD002807D02DA12068FEF7F7FD00280CD02CA011E0294630460AF063F900281E
:2026600001D02FA009E0294635A00CE0294630460AF08DF9002804D03DA001F0A7F905B01D
:20268000F0BD294646A001F0A1F9F8E751A12068FEF7D4FD0028F2D101A930460AF03DF953
:2026A0006846828829464CA001F090F9E7E700004552524F523A696E76616C696420617221
:2026C0006775656D656E74206E756D210A000000FF7F00004552524F523A696E76616C69A5
:2026E000642067726F7570206D657368206164647265737320210A004144440044454C4528
:20270000544500004552524F523A696E76616C69642061726775656D656E74210A00000062
:202720004552524F523A61646420737562736372697074696F6E206661696C65640A0000D8
:202740004F4B3A2061646420737562736372697074696F6E2067726F7570206D65736820DD
:2027600061646472657373203D202564200A00004552524F523A64656C65746520737562A2
:20278000736372697074696F6E2067726F7570206D6573682061646472657373200A000014
:2027A0004F4B3A2064656C65746520737562736372697074696F6E2067726F7570206D652E
:2027C00073682061646472657373203D202564200A000000474554004F4B3A206D6F64656F
:2027E0006C20696420257820737562736372697074696F6E2067726F757020616464726511
:202800007373203D202564200A0000007CB50C46042825D1002211462068FEF74BFDC5B248
:20282000002211466068FEF745FD6946087100221146A068FEF73EFD694648710022114666
:20284000E068FEF737FD6946887109F053FE01A9401C009180B22B46012200210CF002FF9A
:202860007CBD70B5002404E00D5D165D75401D55641C8442F8DB70BD10B502F0CFFF10BD56
:2028800010B519F70DFC0349042008600DF0BEFF10BD000080E200E0FFB5244D89B0002437
:2028A0002C80234817464DC86D464DC568468473C4730D22401C00F751F907940C9804944B
:2028C0000609354605940694761C13E0401C0880010A6A469173D07304AA6946099801F0E1
:2028E00061FC2001C219134604A91020FFF7B9FF641CA4B20D49AC420888E7DB401C08804B
:20290000010A6A469173D07304AA6946099801F049FC3001C2190C99103A081A134604A95E
:202920001030FFF79EFF0DB0F0BD0000D09B1100DC7F11000FB4F0B589B0284D0020159F88
:202940002880274A04900590069007905CCA6D465CC56A469073D07300A80D22013000F719
:20296000FDF804AA69460E9801F01CFC1698002406093546761C13E0401C0880010A6A46D6
:202980009173D07304AA69460E9801F00BFC2001C219134604A91020FFF763FF641CA4B295
:2029A0000E49AC420888E7DB401C0880010A6A469173D07304AA69460E9801F0F3FB300187
:2029C000C2191699103A081A134604A91030FFF748FF09B0F0BC08BC04B01847D09B1100C6
:2029E000CC7F110010B50248006801F0A7FC10BD7495110010B50248006801F075FE10BDE1
:202A0000A0951100F8B50D4EB06A00248506AD0E01273846A040284204D0F0620848A100DD
:202A200040588047641CE4B2052CF2D3A80604D52020F062034800688047F8BD0010202093
:202A4000E0D71100BC95110070B594B0054602A812900E460AA81446134613900AAA02A991
:202A6000304610F043FF61880194491C09B20091002814D00020800012A90A58214600231C
:202A80002846443100F00FF82078400041B2284613F037F8002804D0002014B070BD0120C3
:202AA000E9E70120F9E7FFB5AFB0399C00202056029002460FA830991E46389D039013F09E
:202AC0008EF9029830998000411806901FA804910746029A13F083F917AB07AA3946009651
:202AE0000194039800F009FCAD1E21E02946319813F098F9002878D00022500117A941181D
:202B000000940B4605910121891A4A0107AE871917A9511896193A463046019100F065FB25
:202B2000009432463846019B059900F0FDFA6D1E2DB2002DDADC0021319813F073F900281C
:202B400055D00020420117A901255718281A07AE40014518921980193B46294606460094EF
:202B6000019200F042FB02980090231D07AA27A8039913F08CF827A92A462346084613F08E
:202B800070F827A923460846309A13F06AF827A9221D0846029B12F0DCFF27A923460846B9
:202BA000049A13F05EF827A932462346084613F058F82B46394600943246019800F0B4FA99
:202BC000234627AA17A907A802F0A2FA07A9029A2F9813F004F92F990698029A401817A991
:202BE00013F0FDF833B0F0BDFFE7012285E70120A8E7000010B50248006801F0D7FC10BD20
:202C0000B8951100F7B50E468AB0002100910191029103910491059106910791C117090F67
:202C200002070918002A0BD000282AD00A0912010F11801A7F1C00250897C4B27F1E34E0DD
:202C400000281ED00F1100247D1E0CE02001811904AB6A461020FFF704FE6A4604A9274885
:202C600001F0A0FA641CAC42F0DB3801811904AB6A4610201039FFF7F4FD204A04AB1032A3
:202C800031E080201D4A6946087404AB20322AE02801811904AB6A461020FFF7E2FD6A460F
:202CA00004A9164801F07EFA6D1CBD42F0DB089A0020120104A9103A03E01318F35C0B54C5
:202CC000401CA042F9DB80200855002000E00855641C102CFBDB094A0B4620321020FFF7DA
:202CE000C0FD04AB6A4619461020FFF7BAFD04A902480C9A01F056FA0DB0F0BDDC04120042
:202D000070B5002310E0CC5C25092407240F30343035392D00D9ED1D392C00D9E41D5E0018
:202D2000855535186C705B1C9342ECDB70BD000010B58CB00021089109910A910B911CA107
:202D40001EC9079404AC0EC41D4A0021435C5354491C1029FADB6A4608A9194801F022FA5F
:202D600068460078174A8028694603D210200CF0B7FB08E010200CF0B3FB124B04AA194696
:202D80001020FFF76EFD0F480F4A00780D49802804D210200CF0A4FB0CB010BD10200CF026
:202DA0009FFB094B04AA19461020FFF75AFDF3E7000000000000000000000000000000873A
:202DC000DC041200EC041200FC04120010B513F04FFB10BD10B503480078002801D100F09C
:202DE000C1FA10BD0C051200F8B5044616480078002801D100F0B6FAFF2000256946087056
:202E0000102C1DD21148104E005D48701836307D0E4F8007800F7F1E02280BD0304600F045
:202E2000D7FA02280CD33C7002226946304600F0FAFB07E03C700222304600F0C4FB01E021
:202E40000025ED432846F8BD0C0512000E95110070B5074B0646187814460D46002801D129
:202E600000F080FA22462946304600F003F870BD0C05120070B50E4618214843134914466D
:202E80004518E86A1835002804D001280FD0022805D113E0284600F09BFAA04201D2002473
:202EA00011E022463146284600F0BDFB0BE0284600F08EFAA042F4D20446F2E731462846AB
:202EC00000F081FB0446204670BD00000C051200F7B598B007A802904020039000200C46EC
:202EE0000490189915460826069105902178641C002970D0252907D002A800F045FB0598BA
:202F00000028F3DA1BB0F0BD0122002013460227217823291BD02B2916D02D2902D03029F4
:202F200006D101E0184300E03843641C002AEFD1002122781346303B0A2B0AD20A23594360
:202F400089183039641CF4E704210843EDE73043EBE70023D7B22E2F0AD1641C2278174628
:202F6000303F0A2F04D20A277B439B18303BF4E76C2A0DD0682A0BD0702A48D00BDC252A23
:202F80004FD0582A28D0632A0CD0642A4DD10EE02278641CECE7732A2AD0752A13D0782AED
:202FA00043D119E02868011D296001783AE02A68171D2F601768009101900A22394602A8EF
:202FC00000F011FA31E02A68171D2F6017680A220091019007E02AE02A68171D2F601768FE
:202FE000102200910190394602A800F061FA1CE02868011D2960076839787F1C002914D00E
:2030000002A800F0C1FA05980028F5DA0DE028680823011D29600168002010220096019096
:20302000E2E7252102A800F0AFFA641C67E7002800DC67E70498002804D0024607A91898DE
:20304000FFF706FF04990598401805905AE7000010B5074900204860064900238A69C8699A
:203060008B61CB61194690470DF0D0FB10BD000040201320FC9B110010B50248006801F0CA
:203080002DFE10BDB095110010B50248406801F025FE10BDB095110010B50248006801F08C
:2030A0001DFE10BDAC95110070B5114D114CAB4205D00020206060600220A06006E007C401
:2030C0000121132089030004FFF661FDBFF35F8F0120094900058860BFF34F8F2520074993
:2030E000C003FFF654FD06490648FFF650FD70BD993300000CF5120000ED00E0C61D00002C
:20310000340A0000CCF5120010B50248006801F0E1FE10BDA495110010B50248406801F098
:20312000D9FE10BDA4951100FFB589B0129D00240E4607462C570246009401A82B1D0B994C
:2031400012F0A5FD01A92A46084612F09AFD39462B4601AA084612F084FD0B992B4601AA9E
:20316000084612F07EFD0C992B1D32460094084612F08DFD2A4601A80C9912F082FD01A9C8
:203180002B1D3A460846009412F081FD01A92B1D009408460B9A12F07AFD0B992B1D3A46A7
:2031A0000094084612F073FD31462B4608460B9A12F057FD2B1D01AA394600940B9812F0DF
:2031C00066FD0C992B4608460B9A12F04AFD0C992B1D32460094084612F059FD224601A989
:2031E0000B9812F0FCFD0DB0F0BDFFB599B0229D002416462C570F460094314609A82B1DAF
:20320000199A12F044FD09A92A46084612F039FD19992B4609AA084612F023FD31462B46E2
:2032200009AA084612F01DFD2B1D3A46009409A81C9912F077FC1C992B1D3A4600940846DB
:2032400012F025FD00942B1D314601A8199A12F01EFD39462B4601AA084612F002FD009400
:203260002B1D324601A8199912F05CFC2A4630461C9912F006FD31462B1D01AA08460094ED
:2032800012F005FD00942B1D324611A8199912F0FEFC1C992B4611AA084612F0E2FC1C99AB
:2032A0002B1D3A460094084612F0F1FC2A4609A911A812F0E6FC11A92B1D01AA0846009427
:2032C00012F0E5FC00942B1D11A901A8199A12F0DEFC01A92B4609AA084612F0C2FC3A46E1
:2032E0002B1D01A91046009412F0D1FC224611A9199812F074FD1DB0F0BDFFB589B0139CC7
:203300000025129965571E461746002904D02A46684612F064FD05E02946684612F0B7FB2C
:20332000012000902A463846099912F058FD2A4630460A9912F053FD23466A460A990998BD
:2033400001F0E6FEA420055923466A460A990998A84723466A463146384601F0D9FE0DB097
:20336000F0BD000010B5114C02202061606110A0A0611248E061012080020021A162206285
:2033800061620BA0E162A0640D48E064A165102061652065E1650BA1E01DFFF610FC0AA1C3
:2033A0002046FFF60CFC2020A07110BD0C0512005465726D696E616C00000000E0D211006A
:2033C000E0D611005254540053454747455200000269C1688A4203D88068401A801800E07A
:2033E000501A401E7047FFB583B00E4670420D9F0C9C0090002900DB0846012502E0FFF62E
:2034000057FB6D1C05998842F9DA0698A84200D90546002C04D0002E01DB780700D5641E0A
:20342000B80702D50698002810D0F8070ED1002C0CD0A5420AD22021641E039800F0A4F8BD
:203440000398C0680028F2DA07B0F0BD0398C0680028F9DB002E02DA2D21009E02E078073B
:2034600007D52B21039800F08FF80398C0680028EADBB807800F022810D1069800280DD165
:20348000002C0BD0A54209D23021641E039800F07BF80398C0680028F2DAD5E701970094F3
:2034A0003146069B059A039800F002F8CCE70000FFB581B001261F4635460A9C029802E00F
:2034C000FFF6E0FA6D1C03998842F9D2AF4200D93D460B98C00718D1002C16D00B98800787
:2034E00001D5002F02D0202000900CE03020FBE7641E0099019800F047F80198C06800283B
:203500003DDB002C01D0A542F2D30198C068002835DB012F01D97F1E06E031460298FFF65E
:20352000B1FA0399884202D303984643F1E7154F31460298FFF6A6FA0146029A7143511A9D
:203540000291395C019800F01FF80198C068002805DB30460399FFF695FA0600E8D10B98E2
:20356000C0070CD0002C0AD0A54208D22021641E019800F009F80198C0680028F2DA05B02A
:20358000F0BD0000F36D110010B5044680686368421C934205D323681954A260E068401CA2
:2035A000E060A2686068824209D121682069FFF74FFCA168884203D00020C043E06010BD32
:2035C0000020A06010BDF7B5054682B000200090EC6817462869A04201D9061B02E0A96813
:2035E000201A0E1AA868761E001BB04200D80646BE4200D33E466868324600190399FFF64B
:20360000ADFA0098BF1B801900900398A41980190390A868A04200D10024EC60002FD9D1D8
:20362000009805B0F0BDF7B50446C7688068E168C51B606816464018B54205D90199FFF67A
:203640008DFAB819E060FEBD2A460199FFF686FA0198761B411932466068FFF67FFAE66020
:20366000FEBD000037B514460846064B6A46214600F0C6F904466946002000F05DFD20461B
:203680003EBD0000B53010002021020C01D010211046020A01D010460839020901D01046ED
:2036A000091F820801D01046891E420801D0881E7047081A7047F8B5040C8BB2264682B29F
:2036C0005E430D0C1046370C5843360480190021794116466E43370C360480197941264605
:2036E0006E438919F8BD000008B572B613460A46009002A1012010F049FDFEE74173736529
:203700007274696F6E204661696C65643A2066696C652025732C206C696E652025642C207D
:2037200025730A0000487047F89B110002E008C8121F08C1002AFAD170477047002001E034
:2037400001C1121F002AFBD170470000F0B51FB486B00998089A030D0021024314D05148E5
:20376000514A1818504305141198012810981AD0281A401C00264D4F4D49009601910490BC
:20378000002812DA444211E01198012449A3012801D11098C1430698119A84600360C2608B
:2037A00041600BB0F0BD4042E4E70446210500203F4A001C51410391029012E0E00707D016
:2037C00032463B4601990098FDF7B6FE0191009032463B4610461946FDF7AEFE06460F4605
:2037E0006410002CEAD10498039B0028029A0999089806DAFDF7A0FE019B009AFDF79CFEF8
:2038000005E0FDF701FF019B009AFDF7FDFE04460E460022284BFDF78FFF03D80020C043F7
:20382000014607E00022254B20463146FDF7D2FDFDF762FF102409E0002C0ADB0A22002356
:20384000FFF64AF9079B30321A55641E02460A43F2D11122641C079B121B1C19119B012B54
:2038600003D0012308430ED10AE0084304D0112010900020119077E71098151A6D1E0BE0E1
:203880001098824202DD00236D1C03E0824201DA00236D1E002BEED0069811998260C160CD
:2038A00030C07EE701FCFFFF104D0000000014400000F03F300000000000F0430000E03F56
:2038C0000FB410B503AA09480299FFF7CBFE04460648FDF7ACFC81B2044A02200BF07EF9BF
:2038E000204610BC08BC04B018470000CC0012000FB4F8B5054609AA17480899FFF7B2FECD
:20390000009000271448FDF792FC134E044630192038C07F0A2800D1641E68000019FE285B
:2039200004DDFE20001BC10F0818451030192A460799FFF7E5F968000A2100193154811930
:203940004F70401C81B2044A02200BF047F90098F8BC08BC04B01847CC0012000FB4F8B5FD
:20396000054613F0E7F909AA17480899FFF77AFE009000271448FDF75AFC134E04463019A7
:203980002038C07F0A2800D1641E68000019FE2804DDFE20001BC10F0818451030192A464C
:2039A0000799FFF7ADF968000A210019315481194F70401C81B2044A00200BF00FF90098A9
:2039C000F8BC08BC04B01847CC0012000FB410B513F0B0F903AA09480299FFF743FE044630
:2039E0000648FDF724FC81B2044A00200BF0F6F8204610BC08BC04B018470000CC001200F4
:203A0000FFB597B00646002518E2252877D100242746FD49049400E00443761C32780120B8
:203A2000203A90400842F7D130782A280ED00222307801463039092916D804990A23594370
:203A4000303940181443761C0490F1E7189802C804911890002904DA01204003044348425D
:203A6000049002200443761C30782E2814D1042004437078761C2A2809D11898761C80C839
:203A8000189009E00A214F43303FC719761C3078014630390929F5D930786C2810D006DCA1
:203AA0004C281AD068280ED06A2817D104E0742813D07A2812D110E00120400504430CE04F
:203AC0000121090501E0032109050C437178814203D1012000052418761C761C3078119005
:203AE00066280BD013DC58287DD009DC00287BD04528F6D04628F4D047281AD1A5E118E00C
:203B0000632835D0642870D0652812D19DE170286CD008DC6728F1D069287BD06E280DD004
:203B20006F2806D1BAE073282ED0752871D0782859D01A9A199990476D1C7EE16002400F67
:203B4000022809D003280DD00428189801680DD00D60001D189070E11898EA1701680D602E
:203B60004A60F6E7189801680D80F2E70D70F0E718986A4601781172001D189000205072E8
:203B800002A80090012005E0189802C8189000200091C04361070DD5002101E00199491CC4
:203BA0000191B94212DA8142F8DB009A515C0029F4D10BE0002101E00199491C0191814280
:203BC000FADB019A0099895C0029F5D1019904981A9B471A21463846199A00F097FA019909
:203BE000401945180BE04FE02CE113E04EE0009800990078491C00911A9A19999047019852
:203C0000401E0190401CF2D1214638461A9B199A10E137E00A200021009001916002410F22
:203C2000022907D0189A01CA1892C2179446032908D00AE01898C01DC108C90005C9189124
:203C4000944607E000B2C2179446042902D140B2C1178C4600226146944506DA0A460021AF
:203C6000404291418C462D2102E0210504D52B216A461173012103E0E10701D02021F7E792
:203C8000029155E00A200AE0102008E0102000900021042004430191082703E008200021F7
:203CA000019100906002410F022907D0189A01CA189200229446032908D008E01898C01D92
:203CC000C108C90005C91891944603E080B2042900D1C0B200210291210729D5119970295F
:203CE00006D0009A1021019B4A401A4305D00EE040216A461173012108E06146014306D07D
:203D000030216A4611731199517302210291009A0821019B4A401A430AD16146014301D11C
:203D2000610705D530216A46117301217F1E02911199582904D035A10E910DA90D910DE0B5
:203D400037A1F9E76146019B009AFEF6C5FE0E9B8C469B5C0D9A521E0D9213706146014381
:203D6000F0D10D9805A9081A20300190600703D501200004844300E001270198874201DDB9
:203D8000381A00E00020019900904118029809180498401A0490E00306D421461A9B199A7D
:203DA000049800F0B3F94519002706E003A81A9AC05D199990476D1C7F1C02988742F5DB04
:203DC000E0030CD521461A9B199A049800F09EF9451904E01A9A3020199990476D1C00993C
:203DE000481E00900029F5DC08E00D980D990078491C0D911A9A199990476D1C0199481E5F
:203E000001900029F1DC63E109280100303132333435363738396162636465660000000043
:203E2000303132333435363738394142434445460000000000F05AF94519761C30780028DD
:203E400000D0E2E528461BB0F0BD600700D406271898C01DC108C90048680A680831C30F31
:203E6000DB071891190001D09CA108E0210501D59BA104E0E10701D09AA100E09AA143003A
:203E800011985B08109165280CD006DC452809D046281DD0472841D141E0662818D06728E2
:203EA0003CD13CE00021112F01DB112000E0781C0191009008A911A8FFF748FC13990591EF
:203EC0000021119A15927F1C12980197009150E00120C00703900120019008A9009711A8A3
:203EE000FFF734FC139A149905920022119B009212981593059A0192002901D0104602E095
:203F0000791C40180190381A01D5019804E04042401E0090781C0190C01B029043E0012F29
:203F200000DA01270021112F01DD112000E038460191009008A911A8FFF708FC13990591E9
:203F4000119A0021129815920091019721070CD40599B94201DB019900E00191012904DD87
:203F6000159A491E515C302906D0B84201DA011D05DA0121029115E00199491EEDE70028D6
:203F800005DC0099411800910199091A03E0019A411C914200DD01910099401A401C029002
:203FA0000120C0070390200706D402990198814202DB0020C043029000206946C87707AF38
:203FC000012103980337C907884224D0022011902B201290039800280CDA404203902D20A1
:203FE000129007E00A210398FEF64CFD30317F1E039039701199481E11900029F2DC0398B8
:204000000028EFD1791E129808703078202108404530BF1E387006A8C01BC01D0390109833
:204020000078002800D00120019941180298C0170918039809180498401A401E0490E003E3
:2040400006D421461A9B199A049800F05FF8451910980078002803D01A9A199990476D1C95
:20406000E00324D521461A9B199A049800F04EF845191CE00098002807DB009905988842C7
:2040800003DD1598405C199901E0199930201A9A904700986D1C401C00900298401E029040
:2040A000002804D11A9A2E20199990476D1C0199481E01900029DDDC05E038781A9A7F1C98
:2040C000199990476D1C0399481E03900029F4DC21461A9B199A0498ACE600002D00000016
:2040E0002B0000002000000000000000F8B5044600251E461746880404D405E03946202090
:20410000B0476D1C641EF9D52846F8BDFFB50446002581B01E46C80301D5302700E02027D5
:20412000880404D505E038460399B0476D1C641EF9D5284605B0F0BD0A68531C0B601070AF
:2041400070470000F0B59646154A0023146824E0A600724656439D006F18F75DC25C76180A
:204160005740C754E7186A1CBC46B25CC75D7A406746C2556700FF18AA1CBC46B25CC75DDE
:20418000ED1C7A406746C2556200A218755DD218865C75405B1C8554DBB2A342D8DBF0BD07
:2041A000C09B110030B5ADB00D46144669460BF0EFF86A462146284602F05CFA00202DB049
:2041C00030BD0000FFB591B0002415461E46089409940A94142224490CA80B94FEF6BEFC9F
:2041E00037090094019402947F1C03940494059406940794300707D03801321A411908A88B
:2042000010391032FEF6AAFC00240CAE7F1E12E02001411904AB6A461020FEF722FB721C62
:2042200004A91298FFF7BEFF1022711C6846FEF695FC641CE4B2BC42EADB04AB6A4608A999
:204240001020FEF70EFB721C04A91298FFF7AAFF1022711C6846FEF681FC11220CA911983D
:20426000FEF67CFC15B0F0BDB87F110070B50646104615460C4608300EF0A4FE00280BD0C9
:204280000680448010218180C580083004462946FEF67DFC204670BD122202A109A0FFF7F6
:2042A00023FA00002E2E5C6672656572746F735C6170705C6F736170705F7461736B2E6300
:2042C000000000006D736720213D204E554C4C0070B5154D044669688847EA680021204674
:2042E00090472A680221204690472A680021204690470720E1680122C00108188261207A14
:204300008240521E9006800E02021043032212028918086308616A69002120469047EA68BF
:2043200001212046904770BD5C95110010B50248FFF7CEFF10BD0000DC951100F8B50646D5
:20434000C068032109024718B968002916D0CD220FA119A0FFF7C8F900240BE0A96E012021
:20436000A040014204D0B8632146304604F096FE641CE4B2307AA04203D9EFE70521C90182
:204380004518A86E0028E7D1304604F039FEF8BD2E2E5C706C665C7065726970686572615E
:2043A0006C5C6170705F646D61635C6170705F646D61632E630000007265672D3E737461ED
:2043C0007475735F6572725F6C203D3D20300000F8B50C46054604F061FD06460C23584372
:2043E0006A682168031DD15001466B68626808315A506A68216911502D4F0021FA68284630
:2044000090477A690221284690473146284604F023FD60694104490F0DD0012908D0022911
:2044200004D0682223A12DA0FFF75EF9022203E00022022101E000220021EB688504C70528
:20444000AD0F7F0F2D05BF033D4307057F0FFF023D4352021543C9010D434107490E0D43CE
:204460008106490F49000D430002C00F582105437143C818856100220264626955025203B9
:204480002D0F120FED02D2011543AD1C4564A2685A50E16881600120B04081068006890EA0
:2044A000800C01430720C001181801623046F8BD5C9511002E2E5C706C665C70657269700E
:2044C000686572616C5C6170705F646D61635C6170705F646D61632E6300000030000000ED
:2044E00010B501460148FFF773FF10BDDC951100F3B50646C0680521C90183B04518049977
:2045000001248C40296C2142FCD003210902411802918C63A706A106BF0E890C0F430721AC
:20452000C9014018019004980C214843009008E004F092FC01980762286C2042FCD002981C
:204540008463716800980858049900283046EFD104F0DEFC304604F053FD05B0F0BD0000BE
:2045600010B501460148FFF7C3FF10BDDC95110070B50D4E0546F268002190473268022105
:204580002846904732680021284690476C6804E02146284606F095FA2468002CF8D1726968
:2045A00000212846904770BD4C6E110070B5054644680EE0E968086C227AD040C00707D084
:2045C000CB6C0120904083431843C864606880472468002CEED170BDC06842688A434260F2
:2045E0007047C06842680A4342607047C06840687047C06841607047C06802688A430260C4
:204600007047C06800687047C06802680A4302607047C0680160704770B50E460446EFF3BF
:20462000108572B6406801F0BAFB002804D073220CA116A0FFF758F83146606801F088FB82
:20464000207A002803D00020002D03D003E001202072F9E762B6002802D0204606F036FB90
:2046600070BD00002E2E5C706C665C7065726970686572616C5C6170705F68776563635C29
:204680006170705F68776563632E63003000000010B501460148FFF7BFFF10BDF095110043
:2046A00070B50C4C054661688847E2680021284690472268022128469047226800212846DF
:2046C0009047E8680021416001210161E2682846904770BD8895110010B50248FFF7E0FF9F
:2046E00010BD0000F0951100F8B50446E1680120C8610021606801F05AFB054687694669B4
:204700000721E068C90141182022E868FEF626FA1D21E0684901411820222869FEF61EFA58
:204720000F480121C26820469047EFF3108572B6606801F0FBFA606801F02AFB002802D074
:204740000020207200E00120002D00D162B6002802D0204606F0BAFA3846B047F8BD00005C
:204760008895110070B5174D04462B690179C668002298472A68022120469047AA680121D5
:2047800020469047EA68002120469047207C000181194A68E08892B2000410434860207CFC
:2047A000000181194A682089120C1204104348606A69002120469047EA68012120469047F2
:2047C00070BD0000646E110070B5144E044633690179C56800229847F268002120469047FC
:2047E000207C000141194A68E08892B2000410434860207C000141194A682089120C1204DF
:2048000010434860207C00012958012211432950726902212046904770BD0000646E110044
:20482000F8B50F4609491646CA681D46046900219047A8070649400A40182060B008401E98
:20484000606027610120A060F8BD0000046E110000021F0010B50B46024601210148FFF7D7
:20486000DFFF10BD0096110001698A6AD207FCD18A600A610149CA6801211047046E110015
:2048800010B50248FFF7F0FF10BD000000961100006960307047000010B50248FFF7F8FF04
:2048A00010BD000000961100FFB581B01E4605460EF003FD0090144F2C69FA680021284679
:2048C00090477A69022128469047204600990EF023FD039820663002000E20663004000E70
:2048E0002066F0B2206620460B9B0A9A02990EF021FD7A69032128469047FA680121284665
:20490000904705B0F0BD0000046E1100FFB583B01D4614460E4605F09FF8074633460195FB
:20492000009401210448039AFFF7BEFF384605F09BF807B0F0BD000000961100F8B5244FF4
:20494000044679688847FA680021204690473B69E179002220469847607B002809D03B69B8
:20496000E17A0422204698473B69A17A0322204698473B69217A0122204698473B69617A22
:20498000022220469847002505266019017B3B693246204698476D1C761CEDB2F6B2002D79
:2049A000F3D02169002088602169A08848612069A1798030016720690649803041677A6979
:2049C000002120469047FA68012120469047F8BD046E11001842000010B50B4902228A80DF
:2049E00001228A714873182008731920C8711A2008721B2048721C2088721D20C872084615
:204A0000FFF79CFF10BD000000961100FFB587B006900469119901208004814204D39B22FD
:204A200039A144A0FEF760FE474F8D088E07B60FFA680021069890477A690221069890476D
:204A400012988007470A002D2ED0404838182060681E6060072060650020E0640120E06456
:204A6000A060099820660A982066182238496846FEF674F82046EC300290109803900F229E
:204A800005980121D203C9039043084311018843059004956846FFF723FD08992161FFF7B0
:204AA0005FFD0020A0602061002E22D0294838182060701E60600023E3640120A06009981E
:204AC00020660A98A9000818206608982061A06A4007FCD5A06AC007FCD110980918002095
:204AE00003E0226E0A54401CC0B2B042F9D3A3602361154C0321626906989047E2680121A1
:204B0000069890470BB0F0BD2E2E5C706C665C7065726970686572616C5C7373695C61705E
:204B2000705F717370695C6170705F717370692E630000006C656E677468203C20307834C5
:204B40003030303000000000046E110000021F00DC6E110000020700FFB583B01D461646E7
:204B60000C9F04F079FF0446002F01D0022100E0012102910096019501210548049B039A45
:204B8000FFF744FF204604F06FFF07B0F0BD000000961100FFB505460469254887B0C268CF
:204BA0001F46119E002128469047214802214269284690471F482060701E606007206065DE
:204BC0000020E0640120E064A060002004E00999095C2166401CC0B2B842F8D3182216494E
:204BE0006846FDF6BBFF204660300290109803900F2205980121D203C903904308431101D6
:204C000088430496059000266846FFF769FC08992161FFF7A5FCA6602661054C03216269E4
:204C200028469047E2680121284690470BB0F0BD046E110000030700C46E1100FFB583B05F
:204C40001D4614460E4604F007FF074633460195009401210448039AFFF79CFF384604F04B
:204C600003FF07B0F0BD000000961100FFB581B004460EF022FB0F4D0746EA682669002132
:204C8000204690476A69022120469047394630460EF042FB304602AE0ECE0EF04BFB6A695B
:204CA000032120469047EA6801212046904705B0F0BD0000046E110070B50C46054604F047
:204CC000CBFE064623462A4601210348FFF7CEFF304604F0C9FE70BD0096110070B5064640
:204CE00005462036A86A006B0406240E2ED0A00606D5327B1AA102200FF048FAA86A406C52
:204D0000E00602D528460FF0F3FF200706D5327B1BA102200FF03AFAA86AC06B600706D538
:204D2000327B1FA102200FF031FAA86A006CA00706D5327B22A102200FF028FAA86A806B0A
:204D4000E007CFD0284610F063F8CBE7A86A8068002804D122480121C2682846904770BD33
:204D600073706925642C6D756C74695F6D617374657220636F6E74656E74696F6E0A0000B1
:204D800073706925642C52656365697665204649464F204F766572666C6F770A000000008D
:204DA00073706925642C52656365697665204649464F20556E646572666C6F770A0000000B
:204DC00073706925642C5472616E736D6974204649464F204F766572666C6F770A000000BE
:204DE000346E1100406BEFF3108272B6C16F090708D4C16F490705D5016902239943016176
:204E0000012000E00020002A00D162B67047406B016902221143016170470000F8B5064608
:204E2000051D40682A4F840A8005800D0090796830468847BA68214630469047FA68002180
:204E4000304690473B6929790122304698473B696979002230469847287A746B400709D5A4
:204E60003B69A9790322304698473B69E979022230469847287A20210007002804DA8120E2
:204E8000A0602069084303E00120A060206988432061287AC1078007C00F090F0001C91CA7
:204EA0000143E16060680421084360603A680221304690473A680021304690472046009954
:204EC00011F0DEF87A69002130469047F8BD00001C6E1100F8B50646406B35462035009056
:204EE000009880680107090F012954D0022939D0042920D0062907D00C291CD02A7E26A1DD
:204F000002200FF043F9EBE7746B6069C7B2B80708D527A101200FF039F900E0206860695A
:204F2000C007FBD13807DBD525A101200FF02EF901202874D4E73046726B0AE01168436A07
:204F40001970016A491E0162436A5B1C4362002903D05169C907C3D0F0E70021416211F015
:204F60004FF8BDE73169304600290FD0426B09E04169097811604169491C41610169491E7A
:204F80000161ADD0D16F8907AAD5F1E70021416111F01EF9A4E7F8BD756172743A25642051
:204FA000756E6578706563746564206969640A0075617274206F76657272756E0A00000065
:204FC00075617274206672616D696E67206572726F720A00F8B516460F4604461D461A4652
:204FE0003146384611F0B2F867622662A5620698E06209480221426920469047207B80065C
:2050000003D5204600F00AF8F8BD606B4168012211434160F8BD00001C6E110030B587B0B3
:20502000044610F073FF0546182216496846FDF695FD0194606B0290606A0390206A049030
:20504000207B000701D5680800E0012003F076FFFF2205994007C132C00D914301432034CD
:205060000591207E002801D00B2000E009200F22D203C0039143014368460591FFF730FA8A
:2050800007B030BD7C6E1100F0B516460F46044687B01D461A463146384611F057F86761CA
:2050A0002661A5610C98E06117480421426920469047207BC00621D5204610F027FF1822F5
:2050C00012496846FDF64AFD019460690290606B0390206920340490207E002801D00A200D
:2050E00000E008200F220599D204C0049143014368460591FFF7F4F907B0F0BD606B416828
:20510000022211434160F7E71C6E1100946E1100F0B5164689B00F4604461D461A463146D7
:20512000684610F0AEFD21462B466A46084610F098FD69462B463246084610F092FD3946B7
:205140002B466A46084610F08CFD09B0F0BD00000249896A002900D008477047309A1100D9
:2051600008B508460B310091417A827A491ECBB22821095C801C06F005FD07F02FF908BD96
:20518000F0B585B030220D211048FFF76FF8032202700F2304464370C02020841B20FF215B
:2051A00060844931A18400250126A576E676F702E78404976F4663C7054903200EF0E6FF77
:2051C000302120460CF0B0FA05B0F0BD040D00007C93110030B50C4685B01D462C22194663
:2051E0001B48FFF743F8002228210A5419494D802C210CF099FA2388E27BA17B607B0190B7
:2052000002A80EC0207B0090E37AA27A12A102200EF0BCFF06F05EFD014620460A30032980
:20522000217809D0C9B2002206F098FB0121002007F0A1F905B030BDC9B2012206F08EFB44
:2052400000230E481A461946406811F047FEEDE7020E0000E49B110025782025782025789D
:2052600020257820257820257820636F6E6E65637465642069643D25640A0000D89B1100E3
:2052800008B500931346024602A103200EF07EFF08BD000064656675616C742068616E6477
:2052A0006C65722C6D736769643A20307825782C20646573745F69643A20307825782C20B9
:2052C0007372635F69643A20307825780A00000010B506F031FC00F0CDFB10BD10B502A1DC
:2052E00003200EF053FF10BD636861720000000010B502A103200EF049FF10BD6465736393
:205300000000000010B502A103200EF03FFF10BD696E636C0000000070B51846040A0D466F
:205320008B78224606A102200EF030FFA978204606F03EFB0021084607F01DF970BD0000AD
:20534000256420646973636F6E6E656374656420726561736F6E2025640A000003490A6B95
:2053600052005208C00702430A6370470000102010B50C460A788EB018A103200EF006FF6B
:205380002078022822D006281ED1A378E278217960790D930AAB07C3A379E279217A607A49
:2053A000069007A80EC0A37AE27A217B607B029003A80EC0A17BE07B01910090237C627CC9
:2053C0000AA103200EF0E2FE0EB010BDE378A27814A103200EF0DAFEF6E70000626F6E64F3
:2053E0005F696E645F25640A000000004373726B203D2025783A25783A25783A25783A2590
:20540000783A25783A25783A25783A25783A25783A25783A25783A25783A25783A25783A74
:2054200025780A00417574685F25642C4C746B2050726573656E745F25640A00F8B50C4602
:205440000A7826A103200EF0A1FE2078294C2A4F01251026002828D0072825D127A1032031
:205460000EF094FE618822223846FEF7FFFE4570072101702549044641820025FDF65CFBC7
:2054800061196D1CEDB28870102DF7D30025FDF653FB61196D1CEDB20875082DF7D326774A
:2054A000222120460CF040F9F8BD19A103200EF06DFE618822223846FEF7D8FE0570457073
:2054C000032181700022C27009230371467104238371C17102722221E4E7000067617063A2
:2054E0005F626F6E645F7265715F696E645F25640A000000E49B1100140E000047415043AA
:205500005F4C544B5F455843480A0000A4A60000474150435F50414952494E475F5245519B
:205520000A0000007047000010B51A4602A103200EF02CFE10BD0000636F6E6E6563746977
:205540006F6E5B25785D20636F6E6669726D65640A00000010B503A103200EF017FE002079
:2055600010BD0000706172616D20757064617465640A000070B50878364D0C460D2808D0B5
:2055800015DC01281CD002284BD0032827D00C280CD111F0B3FF024663782FA103200EF0C6
:2055A000F5FD6078442837D0002840D070BD11281CD012281AD013283CD01B28F6D136E099
:2055C0004878002804D06A222CA135A0FEF78CF83BA103200EF0DAFDFFF7D2FD70BD3AA1C7
:2055E00003200EF0D3FD05F04DFE70BD11F086FF0246637838A103200EF0C8FD60784428A1
:20560000F3D106F067FB0128EFD100231A461946286811F063FC70BD06F05CFB0228F4D04B
:2056200070BD4A7836A103200EF0B0FD70BD08F085FE70BD4878442806D00028F9D139A133
:2056400003200EF0A3FDF2E706F044FB0328DCD070BD0000D89B1100256C643A2061647669
:20566000207564697265637420696E6420737461747573203D20307825780A002E2E5C2E49
:205680002E5C6A6D657368424C455C7372635C424C455C424C455F61646170742E6300009A
:2056A000706172616D2D3E7374617475733D3D4741505F4552525F4E4F5F4552524F52004B
:2056C00072657365740A00006164642070726F66696C650A00000000256C643A20736361D3
:2056E0006E207061737369766520696E6420737461747573203D20307825780A0000000036
:205700006761706D2063616E63656C656420696E6420737461747573203D20307825780AAA
:2057200000000000636F6E6E656374206F6B207374617274207363616E0A0000F8B50C4669
:205740000978164D0C2909D0160A0D291BD0122912D100926388627811A118E0627818A164
:2057600002200EF013FD6078002805D100231A461946686811F0B2FBF8BD304606F0E6FDBF
:2057800006F09EFDF8BD00926388627812A102200EF0FCFC60780028EFD1E7E7D89B11008F
:2057A000626C65206E6F7469667920636F6D706C6574652025642C25642C25640A00000067
:2057C000626C6520777269746520636F6D706C6574652025640A0000626C65207772697406
:2057E00065206E6F20726573706F6E736520636F6D706C6574652025642C25642025640A2E
:205800000000000001490320486370470010202010B503200FF032FC10BD000010B50120A1
:20582000800200F081FF0AF015FF00200FF026FC0A49012008700A490420086009490A6898
:20584000024207D0002C07D1FF22023206A10FA0FDF74AFF641CF2E710BD0000FC9411007A
:2058600000E100E000E200E02E2E5C706C665C6278323430305C7372635C736C6565705C3A
:205880007379735F736C6565702E6300726564756E64616E745F74696D65000004490A680E
:2058A000C00752085200C00F02430A60704700004000112004494A69000712091201000F8B
:2058C00002434A61704700004000112004494A680005120B1203000D02434A6070470000C7
:2058E0004000112004498A680005120B1203000D02438A6070470000400011200449CA68DE
:205900000005120B1203000D0243CA60704700004000112004490A690005120B1203000DA8
:2059200002430A617047000040001120014610B50748002300685A1E406811F0CFFA012896
:2059400004D01F2203A10AA0FDF7CEFE10BD00001C9411002E2E5C6672656572746F735C18
:205960006170705C626C655F7461736B2E6300003000000010B50988180A05F0A5FF10BDA6
:2059800010B5E120194606220001FEF76FFC0446012020700549A180618005A103200EF047
:2059A000F5FB062120460BF0BFFE10BDFFFF0000626C655F706172616D5F75706461746562
:2059C0005F7265715F68616E646C65720A000000FFB581B00C9F1C4615460E46880704D5D0
:2059E000002211460120FCF789F8280B04D0002211460120FCF782F8600804D000221146D6
:205A00000120FCF77BF80A98400804D0002211460120FCF773F80B98400804D00022114611
:205A20000120FCF76BF8780904D0002211460120FCF764F80D98000904D000221146012095
:205A4000FCF75CF80198B107C007084329040843E10308430A99490308430B9909030843C0
:205A6000390108430D9908430149486305B0F0BD4000102010B501220D210748FEF7F6FB9E
:205A800001220446027005A103200EF07FFB012120460BF049FE10BD020D0000626C655FAE
:205AA00072657365743A636D642D3E6F7065726174696F6E203D202578200A0004490A6816
:205AC000FF231B049A43000402430A60704700008000102010B503480078022801D10EF00C
:205AE0004BFC10BDFC94110010B54A8A180A002105F0C5FE002303481A461946406811F087
:205B0000EDF910BDD89B110010B50A4C207800280ED109A103200EF039FB0B4910200A6B9C
:205B2000824302430A6300E030BF20780228FBD110BD0000FC941100736F66742077616B04
:205B40006575700A00000000000010201CB50E4C20600E4800680EF069FB0025ED43FFF7AB
:205B6000B9FF20682A460068694611F0F3FA0128F5D1FFF7C9FF684681880029EFD0827929
:205B800000980BF0D9FDEAE71C941100A894110003490A68120A120202430A607047000069
:205BA0008000102070B50C460646FF21154691310748FCF6ECFF224631460548FCF6CEFF1E
:205BC0000348286020090001103080B270BD00004C031200F8B5054610F0A2FB0EF04AFFEC
:205BE000044603F003FD060001D0072C05D0E00700D030BF10F0A0FBF8BD2A4FB968386859
:205C00000C1A012E0FD0651E2748456000F082FE0BF00EFF30BF0BF0D5FE23480069002888
:205C200007D0012106E06D1C684379680019451AEAE700211C480068012E0DD100290BD029
:205C40007A680021AA180B464B41821A994103D3EA2216A11CA023E0001B3968FCF612FF15
:205C6000054610F043FDB868A04204D339686943C943814201D2012400E00024396869435B
:205C80000818094DB860686000F044FE002CB1D12868B9688842ADD9FF22043203A11AA018
:205CA000FDF722FD28941100000020202E2E5C6672656572746F735C6170705C7461736BF6
:205CC0005F696E69742E63002875696E7436345F742977616B6575704D6174636856616C35
:205CE0007565202B2052544357616B65757044656C6179203E52544356616C7565416674BB
:205D00006572536C656570005254435F43555252454E54434E545F47455428293C3D727474
:205D2000634D61746368436F756E74008188037B02684B439A184389491C5B1E438189B230
:205D400081800389994201D1002181801046704710B50B46044600F015F8227B1946FCF68F
:205D6000FDFE204600F001F810BD4189491C4181C188491C89B2C1800289914201D10021A0
:205D8000C1807047C2880168007B4243501870474089002801D000207047012070474189FE
:205DA0000089814201D1012070470020704742898A4201D80020704783880268591803895D
:205DC000994200D3C91A007B4143881870477047704710B500220169026108460AF7DAF899
:205DE00010BD10B508781446002808D010460AF703FB002803D1012120460AF72BFB002017
:205E000010BD0000F8B5000B801CC6B20848012700683F03C519002406E00021284603F05D
:205E200027FDED19641CE4B2B442F6D3F8BD0000F094110010B50446F2200BF0E3FE808A12
:205E4000001980B210BD10B50446F2200BF0DAFE007D201AC0B210BDFFB585B004460027E6
:205E60001E46808A274901AD009743C513210F233A4649020698FDF68FFE05003ED1012172
:205E80001C200AF779F920618775C775476087600761069909888182F10701D00121C903BA
:205EA000079A11430180A18A4180F221E1820121E1811830A06014486060144A0421182067
:205EC00003F0E2FD114E12A1361F032072680EF05DF916480268002A01D0002000E070689D
:205EE000306013A103200EF051F918A1032032680EF04CF9A08A00210AF7ACFA284609B021
:205F0000F0BD000078691100286A1100F4941100696D6167655F73697A655F6C696D69740B
:205F2000203D20307825780A000000000CF5120063757272656E745F696D6167655F6261FB
:205F40007365203D20307825780A00006F74615F696D6167655F62617365203D20307825B3
:205F6000780A000070B514460D460EF041FD012120460AF76FFAF2200BF044FE29460BF0E6
:205F800039FE0146224602480AF7ECF970BD000005F20000F8B506461F460D46F2200BF009
:205FA00031FE044638460AF727FA0146A06862684019904204D9D9220BA11748FDF794FB1E
:205FC000022910D1A06032462946E06803F0BCFCE0684019E060A1686068814203D103216E
:205FE00038460AF737FAF8BD2E2E5C69705C626C655C70726F66696C65735C62786F7461E2
:206000005C62786F7461735C7372635C62786F7461732E6300000000E888110000487047F1
:20602000F069110010B54878002803D00878114600F0B6F8002010BD70B515460C46F22030
:206040000BF0E0FD21460BF0D5FD014601232A4603480AF73BF904700AF770F970BD0000CE
:2060600003F20000F8B5054617460E46F2200BF0C9FD044638460AF7BFF90246022805D0E7
:206080002B7A12A102200EF081F8F8BD287A002816D1A1686068814212D1E07D01280FD1CC
:2060A000A07DB0420CD12868606000201749A060096801226868120389184018E060F8BDBD
:2060C00013A102200EF062F8F8BD00007570646174655F72657120696E2077726F6E67204F
:2060E00073746174653A7365727665725F73746174653A25642C7570646174655F73656322
:2061000074696F6E3A25640A00000000F094110062786F7461735F72785F696E666F5F75AA
:20612000706461746520636865636B206661696C0A00000070B514460D46F2200BF062FD2F
:20614000807D0A23010222460B48C91D0AF7BEF804460220FFF76EFE208004206080002028
:20616000207104222946601DFCF6F8FC20460AF7E5F8002070BD0000140C000070B5054675
:206180000C46F2200BF03EFD29460BF033FD0146224602480AF7E6F870BD000001F20000D3
:2061A00070B504460D46F2200BF02CFD84750121C175002181604160022128460AF74AF91E
:2061C00070BD10B5002904D00120400200F0F4FA10BDFF200130F9E704480268C9075208B2
:2061E0005200C90F0A4302607047000040201320081A1949001F0B400105490D09040B43D7
:20620000C101420210B54A40D20FD2430124D207E4061209A3431A4363001A4303024B409D
:20622000DB0FDB43DB07A4009B08A24313430322920713439A0A80029202800D0243E0145E
:206240008243C80F800202431F20C00282430F200003101810BD0000FFFF00F8FFB5B3B0E1
:20626000284C02AE014622783046419F3F9DFCF675FC20786278861930463499FCF66EFCD4
:206280006078A278861930463599FCF667FCA078E278861930463699FCF660FCE2783C9901
:2062A0009019FCF65BFC3A46912102A80EF0C6FA2FA80190042314A2202100973D980EF062
:2062C000CEF910222FA94298FCF648FC0024FF21002007F07BFB2855641CE4B2102CF6D374
:2062E0001022294627A8FCF639FC10222BA83E99FCF634FC27AA2021409B42980EF03CF90F
:2063000037B0F0BD5C9A11007072636B00000000FFB597B00D460446302102A8219F229E1F
:20632000FCF635FC1022214602A8FCF617FC1022294606A8FCF612FC10220AA81999FCF61B
:206340000DFC29A221461020FDF7D2FA2DA229461020FDF7CDFA30A210201999FDF7C8FA7F
:2063600012AA302102A80EF069FA30A212A91020FDF7BEFA0EAD12AC0195042332A2202151
:2063800000941A980EF06BF910220EA92098FCF6E5FB2FA210202099FDF7AAFA01950423D3
:2063A00033A2202100941A980EF059F910220EA93846FCF6D3FB30A239461020FDF798FA03
:2063C0000195042335A2202100941A980EF047F910220EA93046FCF6C1FB32A231461020DC
:2063E000FDF786FA1BB0F0BD286E6F746529636F6E6669726D6174696F6E5F73616C743A54
:2064000000000000286E6F74652972616E646F6D5F70726F763A0000286E6F7465297261BA
:206420006E646F6D5F6465763A000000286E6F74652970726F766973696F6E696E67207315
:20644000616C743A000000007072736B00000000286E6F74652970726F766973696F6E69A8
:206460006E672073657373696F6E206B65793A007072736E00000000286E6F7465297072D4
:206480006F766973696F6E696E672073657373696F6E206E6F6E63653A0000007072646B75
:2064A00000000000286E6F74652970726F766973696F6E696E6720646576696365206B652E
:2064C000793A0000F0B50F4691B01446064601461D46102208A8FCF641FB102239460CA809
:2064E000FCF63CFB20A231461020FDF701FA22A239461020FDF7FCF925A229461020FDF765
:20650000F7F96B4608AA202120460EF035F825A269461020FDF7ECF9102229466846FCF696
:2065200041FB00281ED026A0FDF7CAF92FA231461020FDF7DDF932A239461020FDF7D8F902
:2065400034A221461020FDF7D3F937A269461020FDF7CEF93AA229461020FDF7C9F900204A
:2065600011B0F0BD0120FBE7706565725F72616E646F6D3A0000000061757468656E746982
:20658000636174696F6E5F76616C75653A000000706565725F636F6E6669726D6174696F21
:2065A0006E3A0000706565725F636F6E6669726D6174696F6E5F726563616C633A0000001C
:2065C000286E6F74652970726F766973696F6E696E6720636F6E6669726D6174696F6E2044
:2065E000636865636B206661696C0A00286E6F746529706565722072616E646F6D3A000049
:20660000286E6F746529617574682076616C75653A000000286E6F746529636F6E666972C2
:206620006D206B65793A0000286E6F7465296D7920636F6E6669726D6174696F6E3A0000FA
:20664000286E6F7465297065657220636F6E6669726D6174696F6E3A00000000002204E01E
:20666000401E80B20B5C9A18D2B20028F8D1104670470000F7B52B4D2868800009F018FDAD
:2066800004462868002200210346534307E08E00B718009EF65D6718491CDE55C9B2814274
:2066A000F5DB521CD2B2042AEDD3002220460299FDF748FD01260EE00EF046FC20460EF015
:2066C000B1F9204609F016FE324620460299FDF739FD761CF6B2A86886422046ECDB0EF0BD
:2066E00033FC20460EF09EF92A7A20460299FDF729FD2A680021002013464B4307E02518D3
:206700005E5D85006F18019D401CEE55C0B29042F5DB491CC9B20429EDD3204603F0EAF958
:20672000FEBD0000C09B110010B50B4948600B4A104203D04A680242FCD110BD074AD24301
:20674000104204D04A6803469343FBD110BD1E2203A111A0FCF7C8FF00102020AAAAAAAA62
:206760002E2E5C706C665C6278323430305C7372635C7379735F696E746567726174696F2F
:206780006E5C636C6B5F676174655C636C6B5F676174652E63000000300000000449034806
:2067A000086148610349086148617047AAAAAAAA002013200090142010B50B4948610B4ADC
:2067C000104203D04A690242FCD110BD074AD243104204D04A6903469343FBD110BD672283
:2067E00003A111A0FCF780FF00201320AAAAAAAA2E2E5C706C665C6278323430305C7372A0
:20680000635C7379735F696E746567726174696F6E5C636C6B5F676174655C636C6B5F6765
:206820006174652E630000003000000010B50B4908610B4A104203D00A690242FCD110BD10
:20684000074AD243104204D00A6903469343FBD110BD302203A111A0FCF746FF00901420DE
:20686000AAAAAAAA2E2E5C706C665C6278323430305C7372635C7379735F696E7465677233
:206880006174696F6E5C636C6B5F676174655C636C6B5F676174652E6300000030000000F0
:2068A00010B50B4948610B4A104203D04A690242FCD110BD074AD243104204D04A69034683
:2068C0009343FBD110BD422203A111A0FCF70CFF00901420AAAAAAAA2E2E5C706C665C626E
:2068E00078323430305C7372635C7379735F696E746567726174696F6E5C636C6B5F67613B
:2069000074655C636C6B5F676174652E630000003000000002488069024908200860704782
:206920000000202080E200E070B5094C1D46207000206070A270002A02D0E01CFCF60EF975
:20694000A17800232A462046C91C0FF091FA70BDB8D2110001700A0A42700A0C8270090E98
:20696000C1707047F8B50C46054616460978007804F086F807466178E87804F081F84740A4
:20698000A178A87804F07CF84740E178687804F077F8474037702178687804F071F80746E2
:2069A0006178287804F06CF84740A178E87804F067F84740E178A87804F062F847407770F7
:2069C0002178A87804F05CF807466178687804F057F84740A178287804F052F84740E1780F
:2069E000E87804F04DF84740B7702178E87804F047F807466178A87804F042F84740A17810
:206A0000687804F03DF84740E178287804F038F84740F770F8BD0000FEB506460021089866
:206A2000099C15460291132822D1124B12A22146FCF75EFF617820780A07120D1043A278BF
:206A4000090912011143E21C00F020F8694608722078487260788872A078C87202A9042049
:206A6000019100902B46074A0749304605F00AFAFEBD000074771100286E6F74652925731D
:206A80003A200000557D11008C97110010B504F07BFD10BDF0B585B0064603460A9F0B9CC8
:206AA000684686C0154617A221463846FCF720FF00200390032F22D11D4B1EA221463846F2
:206AC000FCF716FF617820780A07120D1043A27809091201114300F037F869460873207846
:206AE000487360788873A078C87303A90420019100902B46124A1349304605F0C3F905B0BE
:206B0000F0BD00006170706B657920616464207372632025782C6473742025782C6E696435
:206B2000202564206C656E2025643A0A000000008E771100286E6F74652925733A20000051
:206B4000557D11008C97110010B504F043FC10BDF0B58BB006461546202102A8109F119C8B
:206B6000FCF615F8022F22D1124B13A221463846FCF7BEFE617820780907090D0843002149
:206B80006A461172217851726178917202AC1B210B3200F01BF8C01CC1B21E2907D800915A
:206BA0002B46084A01940849304605F06BF90BB0F0BD0000AB771100286E6F746529257323
:206BC0003A200000527D11008C97110010B504F09DFC10BD10B5024902A0FCF771FE10BD47
:206BE000047411007072696E742062792025730A0000000070B5059C049D06460C4B0DA269
:206C000021462846FCF774FE2278002A04D031210C48FCF755FE70BDA07861780007000D84
:206C20000143ED1EEAB2E31C3046FFF7D3FF70BDDC7011002573203A2064617461203D2079
:206C400000000000788B110010B5024902A0FCF737FE10BD207411007072696E74206279AC
:206C60002025730A0000000070B5059C049E05460E4B0FA221463046FCF73AFE042E06D184
:206C80002278002A04D03E210D48FCF719FE70BDA17860780A07120D10430A09E178090187
:206CA0000A4301462846FFF7CFFF70BDF77011002573203A2064617461203D200000000040
:206CC000788B1100FEB5064600210898099C15460291132822D1124B12A22146FCF708FEAE
:206CE000617820780A07120D1043A278090912011143E21C00F020F869460872207848728C
:206D000060788872A078C87202A90420019100902B46074A0749304605F0B4F8FEBD00007A
:206D2000C5771100286E6F74652925733A200000557D11008C97110010B504F075FC10BDFF
:206D40003EB5144605460022069807990292002811D1094B09A2FCF7CBFD00F019F8694633
:206D6000087202A90120019100902346064A0749284605F087F83EBDE2771100286E6F74E2
:206D8000652925733A200000587D11008C97110010B507F079FD10BDFEB50546002108989B
:206DA000099E14460291012813D10A4B0AA23146FCF79EFD307800F019F86946087202A9AF
:206DC0000120019100902346064A0749284605F059F8FEBDFC771100286E6F7465292573D5
:206DE0003A200000587D11008C97110010B507F04DFD10BD10B5024902A0FCF761FD10BD7C
:206E00003E7411007072696E742062792025730A0000000070B5059D049C0646064B07A218
:206E200029462046FCF764FD012C03D129783046FFF7E0FF70BD0000147111002573203A87
:206E40002064617461203D200000000010B50249024805F02DF910BD6C9711008898110074
:206E6000FFB58FB01646342102A8189D199CFBF68EFE012D1DD1104B10A221462846FCF7EC
:206E800037FD20786946087202AD207831216A1C00F056F8401CC7B20BA221463846FCF746
:206EA00027FD009733460E4A0E4901950F9804F0E9FF13B0F0BD000016781100286E6F744E
:206EC000652925733A200000286E6F746529636F6D706F736974696F6E20646174613A0083
:206EE0004F7D11008C97110010B5024902A0FCF7E7FC10BD5C7411007072696E7420627923
:206F00002025730A0000000070B5059C049D0646064B07A221462846FCF7EAFC2178631C3C
:206F20002A463046FFF7E0FF70BD0000317111002573203A2064617461203D20000000008D
:206F400070B510460D4604F0CBFE0446A84203DD31210248FCF7B4FC204670BD3C8C1100E7
:206F60003EB50546069807991446002812D10A4B0AA20290FCF7BCFC00F01AF869460872C7
:206F800002A90120019100902346074A0749284604F078FF3EBD00003A781100286E6F74E9
:206FA000652925733A2000005B7D11008C97110000207047FEB505460898099E1446012895
:206FC00015D1002102910A4B0AA23146FCF790FC307800F019F86946087202A901200191F0
:206FE00000902346064A0749284604F04BFFFEBD59781100286E6F74652925733A200000B6
:207000005B7D11008C9711000020704710B5024902A0FCF755FC10BD847411007072696EF7
:20702000742062792025730A0000000070B5059D049C0646064B07A229462046FCF758FC56
:20704000012C03D129783046FFF7E0FF70BD0000587111002573203A2064617461203D2013
:20706000000000003EB50546069807991446002811D1094B09A2FCF73BFC00F019F8694657
:20708000087202A90120019100902346064A0749284604F0F7FE3EBDB4781100286E6F7477
:2070A000652925733A2000005E7D11008C97110000207047FEB505460898099E1446012891
:2070C00013D10A4B0AA23146FCF712FC307800F019F86946087202A901200191009023462A
:2070E000064A0749284604F0CDFEFEBDCE781100286E6F74652925733A2000005E7D1100CC
:207100008C9711000020704710B5024902A0FCF7D7FB10BDC97411007072696E74206279AA
:207120002025730A0000000070B5059D049C0646064B07A229462046FCF7DAFB012C03D142
:2071400029783046FFF7E0FF70BD00009B7111002573203A2064617461203D2000000000D0
:207160003EB50546069807991446002811D1094B09A2FCF7BDFB00F019F86946087202A9B0
:207180000120019100902346064A0749284604F079FE3EBD78781100286E6F74652925732F
:2071A0003A200000617D11008C97110000207047FEB505460898099E1446012813D10A4B7A
:2071C0000AA23146FCF794FB307800F019F86946087202A90120019100902346064A074941
:2071E000284604F04FFEFEBD96781100286E6F74652925733A200000617D11008C971100EA
:207200000020704710B5024902A0FCF759FB10BDA77411007072696E742062792025730ABB
:207220000000000070B5059D049C0646064B07A229462046FCF75CFB012C03D1297830466A
:20724000FFF7E0FF70BD00007A7111002573203A2064617461203D20000000007047704799
:2072600010B5034B03A203990298FCF741FB10BD847311002573203A2064617461203D20F3
:20728000000000007047704710B5034B03A203990298FCF72DFB10BDB07311002573203A84
:2072A0002064617461203D2000000000FEB506460898099C1546022812D10A4B0AA2214683
:2072C000FCF716FB02A9204600F018F802A90420019100902B46074A0749304604F0D2FD5D
:2072E000FEBD0000B17B1100286E6F74652925733A200000647D11008C97110000207047A0
:20730000FEB506460898099C1546032812D10A4B0AA22146FCF7ECFA02A9204600F018F86E
:2073200002A90420019100902B46074A0749304604F0A8FDFEBD0000D67B1100286E6F74A5
:20734000652925733A200000647D11008C9711000020704710B5034B03A203990298FCF7CF
